{
  "contractName": "EventManagement",
  "abi": [
    {
      "anonymous": false,
      "inputs": [
        {
          "indexed": false,
          "internalType": "uint8",
          "name": "version",
          "type": "uint8"
        }
      ],
      "name": "Initialized",
      "type": "event"
    },
    {
      "anonymous": false,
      "inputs": [
        {
          "indexed": true,
          "internalType": "address",
          "name": "previousOwner",
          "type": "address"
        },
        {
          "indexed": true,
          "internalType": "address",
          "name": "newOwner",
          "type": "address"
        }
      ],
      "name": "OwnershipTransferred",
      "type": "event"
    },
    {
      "inputs": [
        {
          "internalType": "address",
          "name": "",
          "type": "address"
        }
      ],
      "name": "eventDetailsBook",
      "outputs": [
        {
          "internalType": "uint256",
          "name": "ticketsNo",
          "type": "uint256"
        },
        {
          "internalType": "uint256",
          "name": "eventStartTime",
          "type": "uint256"
        },
        {
          "internalType": "address",
          "name": "paymentAddress",
          "type": "address"
        },
        {
          "internalType": "uint256",
          "name": "price",
          "type": "uint256"
        },
        {
          "internalType": "uint256",
          "name": "eventDuration",
          "type": "uint256"
        },
        {
          "internalType": "string",
          "name": "event_name",
          "type": "string"
        },
        {
          "internalType": "uint256",
          "name": "tickets_used",
          "type": "uint256"
        }
      ],
      "stateMutability": "view",
      "type": "function"
    },
    {
      "inputs": [],
      "name": "owner",
      "outputs": [
        {
          "internalType": "address",
          "name": "",
          "type": "address"
        }
      ],
      "stateMutability": "view",
      "type": "function"
    },
    {
      "inputs": [],
      "name": "renounceOwnership",
      "outputs": [],
      "stateMutability": "nonpayable",
      "type": "function"
    },
    {
      "inputs": [
        {
          "internalType": "address",
          "name": "newOwner",
          "type": "address"
        }
      ],
      "name": "transferOwnership",
      "outputs": [],
      "stateMutability": "nonpayable",
      "type": "function"
    }
  ],
  "bytecode": "0x608060405234801561001057600080fd5b5061002d61002261003260201b60201c565b61003a60201b60201c565b6100ff565b600033905090565b60008060029054906101000a900473ffffffffffffffffffffffffffffffffffffffff16905081600060026101000a81548173ffffffffffffffffffffffffffffffffffffffff021916908373ffffffffffffffffffffffffffffffffffffffff1602179055508173ffffffffffffffffffffffffffffffffffffffff168173ffffffffffffffffffffffffffffffffffffffff167f8be0079c531659141344cd1fd0a4f28419497f9722a3daafe3b4186f6b6457e060405160405180910390a35050565b6107998061010e6000396000f3fe608060405234801561001057600080fd5b506004361061004c5760003560e01c8063715018a6146100515780638da5cb5b1461005b578063e171be7814610079578063f2fde38b146100af575b600080fd5b6100596100cb565b005b610063610153565b6040516100709190610506565b60405180910390f35b610093600480360381019061008e9190610440565b61017c565b6040516100a69796959493929190610561565b60405180910390f35b6100c960048036038101906100c49190610440565b610266565b005b6100d361035e565b73ffffffffffffffffffffffffffffffffffffffff166100f1610153565b73ffffffffffffffffffffffffffffffffffffffff1614610147576040517f08c379a000000000000000000000000000000000000000000000000000000000815260040161013e90610541565b60405180910390fd5b6101516000610366565b565b60008060029054906101000a900473ffffffffffffffffffffffffffffffffffffffff16905090565b60016020528060005260406000206000915090508060000154908060010154908060020160009054906101000a900473ffffffffffffffffffffffffffffffffffffffff16908060030154908060040154908060050180546101dd90610662565b80601f016020809104026020016040519081016040528092919081815260200182805461020990610662565b80156102565780601f1061022b57610100808354040283529160200191610256565b820191906000526020600020905b81548152906001019060200180831161023957829003601f168201915b5050505050908060060154905087565b61026e61035e565b73ffffffffffffffffffffffffffffffffffffffff1661028c610153565b73ffffffffffffffffffffffffffffffffffffffff16146102e2576040517f08c379a00000000000000000000000000000000000000000000000000000000081526004016102d990610541565b60405180910390fd5b600073ffffffffffffffffffffffffffffffffffffffff168173ffffffffffffffffffffffffffffffffffffffff161415610352576040517f08c379a000000000000000000000000000000000000000000000000000000000815260040161034990610521565b60405180910390fd5b61035b81610366565b50565b600033905090565b60008060029054906101000a900473ffffffffffffffffffffffffffffffffffffffff16905081600060026101000a81548173ffffffffffffffffffffffffffffffffffffffff021916908373ffffffffffffffffffffffffffffffffffffffff1602179055508173ffffffffffffffffffffffffffffffffffffffff168173ffffffffffffffffffffffffffffffffffffffff167f8be0079c531659141344cd1fd0a4f28419497f9722a3daafe3b4186f6b6457e060405160405180910390a35050565b60008135905061043a8161074c565b92915050565b60006020828403121561045257600080fd5b60006104608482850161042b565b91505092915050565b610472816105f3565b82525050565b6000610483826105d7565b61048d81856105e2565b935061049d81856020860161062f565b6104a6816106c3565b840191505092915050565b60006104be6026836105e2565b91506104c9826106d4565b604082019050919050565b60006104e16020836105e2565b91506104ec82610723565b602082019050919050565b61050081610625565b82525050565b600060208201905061051b6000830184610469565b92915050565b6000602082019050818103600083015261053a816104b1565b9050919050565b6000602082019050818103600083015261055a816104d4565b9050919050565b600060e082019050610576600083018a6104f7565b61058360208301896104f7565b6105906040830188610469565b61059d60608301876104f7565b6105aa60808301866104f7565b81810360a08301526105bc8185610478565b90506105cb60c08301846104f7565b98975050505050505050565b600081519050919050565b600082825260208201905092915050565b60006105fe82610605565b9050919050565b600073ffffffffffffffffffffffffffffffffffffffff82169050919050565b6000819050919050565b60005b8381101561064d578082015181840152602081019050610632565b8381111561065c576000848401525b50505050565b6000600282049050600182168061067a57607f821691505b6020821081141561068e5761068d610694565b5b50919050565b7f4e487b7100000000000000000000000000000000000000000000000000000000600052602260045260246000fd5b6000601f19601f8301169050919050565b7f4f776e61626c653a206e6577206f776e657220697320746865207a65726f206160008201527f6464726573730000000000000000000000000000000000000000000000000000602082015250565b7f4f776e61626c653a2063616c6c6572206973206e6f7420746865206f776e6572600082015250565b610755816105f3565b811461076057600080fd5b5056fea2646970667358221220c7de709df5f72794f3698346dd26e760bf806b812970fdc9dd0507b2199fdcb664736f6c63430008040033",
  "immutableReferences": {},
  "source": "// SPDX-License-Identifier: Unlicenced\nimport \"@openzeppelin/contracts-upgradeable/proxy/utils/Initializable.sol\";\nimport \"@openzeppelin/contracts/access/Ownable.sol\";\n\npragma solidity ^0.8.4;\n\ncontract EventManagement is Initializable, Ownable{\n  struct eventDetails {\n    uint256 ticketsNo;\n    uint256 eventStartTime;\n    address paymentAddress;\n    uint256 price;\n    uint256 eventDuration;\n    string event_name;\n    uint256 tickets_used;\n  }\n\n  mapping(address => eventDetails) public eventDetailsBook;\n  \n}\n\n  ",
  "sourcePath": "/Users/raghukapur/private-projects/EventManagementSystem/contracts/EventManagement.sol",
  "compiler": {
    "name": "solc",
    "version": "0.8.4+commit.c7e474f2.Emscripten.clang"
  },
  "schemaVersion": "3.4.4",
  "updatedAt": "2022-06-22T07:16:17.847Z",
  "devdoc": {
    "kind": "dev",
    "methods": {
      "owner()": {
        "details": "Returns the address of the current owner."
      },
      "renounceOwnership()": {
        "details": "Leaves the contract without owner. It will not be possible to call `onlyOwner` functions anymore. Can only be called by the current owner. NOTE: Renouncing ownership will leave the contract without an owner, thereby removing any functionality that is only available to the owner."
      },
      "transferOwnership(address)": {
        "details": "Transfers ownership of the contract to a new account (`newOwner`). Can only be called by the current owner."
      }
    },
    "version": 1
  },
  "userdoc": {
    "kind": "user",
    "methods": {},
    "version": 1
  }
}