{
  "contractName": "EventManagement",
  "abi": [
    {
      "inputs": [
        {
          "internalType": "address",
          "name": "_nft",
          "type": "address"
        }
      ],
      "stateMutability": "nonpayable",
      "type": "constructor"
    },
    {
      "anonymous": false,
      "inputs": [
        {
          "indexed": false,
          "internalType": "address",
          "name": "user",
          "type": "address"
        },
        {
          "indexed": false,
          "internalType": "uint256",
          "name": "eventId",
          "type": "uint256"
        },
        {
          "indexed": false,
          "internalType": "uint256",
          "name": "totalPrice",
          "type": "uint256"
        },
        {
          "indexed": false,
          "internalType": "uint256",
          "name": "totalTickets",
          "type": "uint256"
        }
      ],
      "name": "BuyTicket",
      "type": "event"
    },
    {
      "anonymous": false,
      "inputs": [
        {
          "indexed": false,
          "internalType": "uint256",
          "name": "eventId",
          "type": "uint256"
        }
      ],
      "name": "CancelEvent",
      "type": "event"
    },
    {
      "anonymous": false,
      "inputs": [
        {
          "indexed": false,
          "internalType": "uint256",
          "name": "eventId",
          "type": "uint256"
        },
        {
          "indexed": false,
          "internalType": "address",
          "name": "eventHost",
          "type": "address"
        },
        {
          "indexed": false,
          "internalType": "uint256",
          "name": "eventStartTime",
          "type": "uint256"
        },
        {
          "indexed": false,
          "internalType": "address",
          "name": "paymentAddress",
          "type": "address"
        },
        {
          "indexed": false,
          "internalType": "uint256",
          "name": "eventDuration",
          "type": "uint256"
        },
        {
          "indexed": false,
          "internalType": "uint256",
          "name": "ticketsPerUser",
          "type": "uint256"
        },
        {
          "indexed": false,
          "internalType": "string",
          "name": "eventName",
          "type": "string"
        },
        {
          "indexed": false,
          "internalType": "uint256",
          "name": "totalAttendees",
          "type": "uint256"
        },
        {
          "indexed": false,
          "internalType": "uint256",
          "name": "ticketsSold",
          "type": "uint256"
        },
        {
          "indexed": false,
          "internalType": "bool",
          "name": "isEventCancelled",
          "type": "bool"
        },
        {
          "indexed": false,
          "internalType": "bool",
          "name": "isPaymentComplete",
          "type": "bool"
        },
        {
          "indexed": false,
          "internalType": "uint256",
          "name": "resellStartTime",
          "type": "uint256"
        },
        {
          "indexed": false,
          "internalType": "address",
          "name": "nftContractAddress",
          "type": "address"
        }
      ],
      "name": "CreateEventId",
      "type": "event"
    },
    {
      "anonymous": false,
      "inputs": [
        {
          "indexed": false,
          "internalType": "address",
          "name": "user",
          "type": "address"
        },
        {
          "indexed": false,
          "internalType": "uint256",
          "name": "eventId",
          "type": "uint256"
        },
        {
          "indexed": false,
          "internalType": "uint256",
          "name": "ticketId",
          "type": "uint256"
        }
      ],
      "name": "MarkAttendance",
      "type": "event"
    },
    {
      "anonymous": false,
      "inputs": [
        {
          "indexed": false,
          "internalType": "address",
          "name": "user",
          "type": "address"
        },
        {
          "indexed": false,
          "internalType": "uint256",
          "name": "orderId",
          "type": "uint256"
        }
      ],
      "name": "buyResellEventTicket",
      "type": "event"
    },
    {
      "anonymous": false,
      "inputs": [
        {
          "indexed": false,
          "internalType": "uint256",
          "name": "orderId",
          "type": "uint256"
        }
      ],
      "name": "cancelTicket",
      "type": "event"
    },
    {
      "anonymous": false,
      "inputs": [
        {
          "indexed": false,
          "internalType": "uint256",
          "name": "eventId",
          "type": "uint256"
        },
        {
          "indexed": false,
          "internalType": "uint256",
          "name": "totalEarnings",
          "type": "uint256"
        }
      ],
      "name": "getEarnings",
      "type": "event"
    },
    {
      "anonymous": false,
      "inputs": [
        {
          "indexed": false,
          "internalType": "uint256",
          "name": "eventId",
          "type": "uint256"
        },
        {
          "indexed": false,
          "internalType": "address",
          "name": "user",
          "type": "address"
        },
        {
          "indexed": false,
          "internalType": "uint256",
          "name": "ticketId",
          "type": "uint256"
        },
        {
          "indexed": false,
          "internalType": "uint256",
          "name": "price",
          "type": "uint256"
        }
      ],
      "name": "getTicketRefund",
      "type": "event"
    },
    {
      "anonymous": false,
      "inputs": [
        {
          "indexed": false,
          "internalType": "address",
          "name": "user",
          "type": "address"
        },
        {
          "indexed": false,
          "internalType": "uint256",
          "name": "eventId",
          "type": "uint256"
        },
        {
          "indexed": false,
          "internalType": "uint256",
          "name": "orderId",
          "type": "uint256"
        },
        {
          "indexed": false,
          "internalType": "uint256",
          "name": "ticketId",
          "type": "uint256"
        },
        {
          "indexed": false,
          "internalType": "uint256",
          "name": "price",
          "type": "uint256"
        }
      ],
      "name": "resellEventTicket",
      "type": "event"
    },
    {
      "inputs": [
        {
          "internalType": "uint256",
          "name": "",
          "type": "uint256"
        }
      ],
      "name": "eventDetailsBook",
      "outputs": [
        {
          "internalType": "address",
          "name": "eventHost",
          "type": "address"
        },
        {
          "internalType": "uint256",
          "name": "eventStartTime",
          "type": "uint256"
        },
        {
          "internalType": "address",
          "name": "paymentAddress",
          "type": "address"
        },
        {
          "internalType": "uint256",
          "name": "eventDuration",
          "type": "uint256"
        },
        {
          "internalType": "uint256",
          "name": "ticketsPerUser",
          "type": "uint256"
        },
        {
          "internalType": "string",
          "name": "eventName",
          "type": "string"
        },
        {
          "internalType": "uint256",
          "name": "totalAttendees",
          "type": "uint256"
        },
        {
          "internalType": "uint256",
          "name": "ticketsSold",
          "type": "uint256"
        },
        {
          "internalType": "bool",
          "name": "isEventCancelled",
          "type": "bool"
        },
        {
          "internalType": "bool",
          "name": "isPaymentComplete",
          "type": "bool"
        },
        {
          "internalType": "uint256",
          "name": "resellStartTime",
          "type": "uint256"
        },
        {
          "internalType": "address",
          "name": "nftContractAddress",
          "type": "address"
        }
      ],
      "stateMutability": "view",
      "type": "function"
    },
    {
      "inputs": [],
      "name": "eventId",
      "outputs": [
        {
          "internalType": "uint256",
          "name": "",
          "type": "uint256"
        }
      ],
      "stateMutability": "view",
      "type": "function"
    },
    {
      "inputs": [],
      "name": "owner",
      "outputs": [
        {
          "internalType": "address payable",
          "name": "",
          "type": "address"
        }
      ],
      "stateMutability": "view",
      "type": "function"
    },
    {
      "inputs": [],
      "name": "ticketNFT",
      "outputs": [
        {
          "internalType": "address",
          "name": "",
          "type": "address"
        }
      ],
      "stateMutability": "view",
      "type": "function"
    },
    {
      "inputs": [
        {
          "internalType": "uint256",
          "name": "",
          "type": "uint256"
        },
        {
          "internalType": "uint256",
          "name": "",
          "type": "uint256"
        }
      ],
      "name": "ticketScheduleBook",
      "outputs": [
        {
          "internalType": "uint256",
          "name": "ticketsNo",
          "type": "uint256"
        },
        {
          "internalType": "string",
          "name": "ticketScheduleName",
          "type": "string"
        },
        {
          "internalType": "uint256",
          "name": "price",
          "type": "uint256"
        },
        {
          "internalType": "uint256",
          "name": "ticketsUsed",
          "type": "uint256"
        }
      ],
      "stateMutability": "view",
      "type": "function"
    },
    {
      "inputs": [
        {
          "internalType": "uint256",
          "name": "",
          "type": "uint256"
        }
      ],
      "name": "tradeDetailsBook",
      "outputs": [
        {
          "internalType": "address",
          "name": "orderCreator",
          "type": "address"
        },
        {
          "internalType": "uint256",
          "name": "eventId",
          "type": "uint256"
        },
        {
          "internalType": "uint256",
          "name": "ticketId",
          "type": "uint256"
        },
        {
          "internalType": "uint256",
          "name": "price",
          "type": "uint256"
        },
        {
          "internalType": "bool",
          "name": "orderFulfilled",
          "type": "bool"
        },
        {
          "internalType": "bool",
          "name": "isOrderCancelled",
          "type": "bool"
        }
      ],
      "stateMutability": "view",
      "type": "function"
    },
    {
      "inputs": [],
      "name": "tradeId",
      "outputs": [
        {
          "internalType": "uint256",
          "name": "",
          "type": "uint256"
        }
      ],
      "stateMutability": "view",
      "type": "function"
    },
    {
      "inputs": [
        {
          "internalType": "uint256",
          "name": "_eventStartTime",
          "type": "uint256"
        },
        {
          "internalType": "address",
          "name": "_paymentAddress",
          "type": "address"
        },
        {
          "internalType": "uint256",
          "name": "_eventDuration",
          "type": "uint256"
        },
        {
          "internalType": "uint256",
          "name": "_ticketsPerUser",
          "type": "uint256"
        },
        {
          "internalType": "string",
          "name": "_eventName",
          "type": "string"
        },
        {
          "internalType": "uint256",
          "name": "_resellStartTime",
          "type": "uint256"
        },
        {
          "internalType": "string[]",
          "name": "_ticketScheduleNames",
          "type": "string[]"
        },
        {
          "internalType": "uint256[]",
          "name": "_noOfTickets",
          "type": "uint256[]"
        },
        {
          "internalType": "uint256[]",
          "name": "_price",
          "type": "uint256[]"
        }
      ],
      "name": "createEvent",
      "outputs": [],
      "stateMutability": "nonpayable",
      "type": "function"
    },
    {
      "inputs": [
        {
          "internalType": "uint256",
          "name": "_eventId",
          "type": "uint256"
        }
      ],
      "name": "cancelEvent",
      "outputs": [],
      "stateMutability": "nonpayable",
      "type": "function"
    },
    {
      "inputs": [
        {
          "internalType": "uint256",
          "name": "_eventId",
          "type": "uint256"
        },
        {
          "internalType": "uint256",
          "name": "_noOfTickets",
          "type": "uint256"
        }
      ],
      "name": "buyEventTicket",
      "outputs": [],
      "stateMutability": "payable",
      "type": "function"
    },
    {
      "inputs": [
        {
          "internalType": "uint256",
          "name": "_eventId",
          "type": "uint256"
        },
        {
          "internalType": "uint256",
          "name": "_ticketId",
          "type": "uint256"
        }
      ],
      "name": "markEventAttendance",
      "outputs": [],
      "stateMutability": "nonpayable",
      "type": "function"
    },
    {
      "inputs": [
        {
          "internalType": "uint256",
          "name": "_eventId",
          "type": "uint256"
        }
      ],
      "name": "getEventEarnings",
      "outputs": [],
      "stateMutability": "nonpayable",
      "type": "function"
    },
    {
      "inputs": [
        {
          "internalType": "uint256",
          "name": "_eventId",
          "type": "uint256"
        },
        {
          "internalType": "uint256[]",
          "name": "_ticketIds",
          "type": "uint256[]"
        }
      ],
      "name": "redeemCancelledEventTicket",
      "outputs": [],
      "stateMutability": "nonpayable",
      "type": "function"
    },
    {
      "inputs": [
        {
          "internalType": "uint256",
          "name": "_eventId",
          "type": "uint256"
        },
        {
          "internalType": "uint256",
          "name": "_ticketId",
          "type": "uint256"
        },
        {
          "internalType": "uint256",
          "name": "_price",
          "type": "uint256"
        }
      ],
      "name": "resellTicket",
      "outputs": [],
      "stateMutability": "payable",
      "type": "function"
    },
    {
      "inputs": [
        {
          "internalType": "uint256",
          "name": "_tradeId",
          "type": "uint256"
        }
      ],
      "name": "cancelresellTicketOrder",
      "outputs": [],
      "stateMutability": "nonpayable",
      "type": "function"
    },
    {
      "inputs": [
        {
          "internalType": "uint256",
          "name": "_tradeId",
          "type": "uint256"
        }
      ],
      "name": "buyResellTicket",
      "outputs": [],
      "stateMutability": "payable",
      "type": "function"
    },
    {
      "inputs": [],
      "name": "contractBalance",
      "outputs": [
        {
          "internalType": "uint256",
          "name": "",
          "type": "uint256"
        }
      ],
      "stateMutability": "view",
      "type": "function"
    }
  ],
  "bytecode": "0x60806040523480156200001157600080fd5b50604051620057e0380380620057e08339818101604052810190620000379190620000e6565b80600260006101000a81548173ffffffffffffffffffffffffffffffffffffffff021916908373ffffffffffffffffffffffffffffffffffffffff16021790555033600660006101000a81548173ffffffffffffffffffffffffffffffffffffffff021916908373ffffffffffffffffffffffffffffffffffffffff1602179055506000808190555060006001819055505062000160565b600081519050620000e08162000146565b92915050565b600060208284031215620000f957600080fd5b60006200010984828501620000cf565b91505092915050565b60006200011f8262000126565b9050919050565b600073ffffffffffffffffffffffffffffffffffffffff82169050919050565b620001518162000112565b81146200015d57600080fd5b50565b61567080620001706000396000f3fe6080604052600436106100fe5760003560e01c80638da5cb5b11610095578063c051969011610064578063c051969014610324578063d4ac9f3914610364578063d8fe0c071461038d578063f4b18b7d146103a9578063fb45e4ea146103d2576100fe565b80638da5cb5b1461027c5780638fa9e5bf146102a7578063a17d4c14146102d0578063b393391b146102f9576100fe565b806350494afd116100d157806350494afd1461019e578063535e63ce146101e0578063692b3a3b146102095780638b7afe2e14610251576100fe565b806302c5115b14610103578063089cdd0c1461012e5780631489a2b0146101595780633f69babd14610175575b600080fd5b34801561010f57600080fd5b506101186103ee565b6040516101259190614e34565b60405180910390f35b34801561013a57600080fd5b506101436103f4565b6040516101509190614e34565b60405180910390f35b610173600480360381019061016e919061489b565b6103fa565b005b34801561018157600080fd5b5061019c6004803603810190610197919061468f565b610937565b005b3480156101aa57600080fd5b506101c560048036038101906101c0919061468f565b610d94565b6040516101d796959493929190614c31565b60405180910390f35b3480156101ec57600080fd5b50610207600480360381019061020291906146e1565b610e0a565b005b34801561021557600080fd5b50610230600480360381019061022b919061468f565b61156c565b6040516102489c9b9a99989796959493929190614b70565b60405180910390f35b34801561025d57600080fd5b506102666116ce565b6040516102739190614e34565b60405180910390f35b34801561028857600080fd5b506102916116d6565b60405161029e9190614b1e565b60405180910390f35b3480156102b357600080fd5b506102ce60048036038101906102c9919061468f565b6116fc565b005b3480156102dc57600080fd5b506102f760048036038101906102f29190614807565b611cda565b005b34801561030557600080fd5b5061030e6123e0565b60405161031b9190614b03565b60405180910390f35b34801561033057600080fd5b5061034b6004803603810190610346919061485f565b612406565b60405161035b9493929190614e78565b60405180910390f35b34801561037057600080fd5b5061038b6004803603810190610386919061485f565b6124db565b005b6103a760048036038101906103a2919061468f565b612a5c565b005b3480156103b557600080fd5b506103d060048036038101906103cb919061468f565b6130f1565b005b6103ec60048036038101906103e7919061485f565b61378f565b005b60015481565b60005481565b600060036000858152602001908152602001600020604051806101800160405290816000820160009054906101000a900473ffffffffffffffffffffffffffffffffffffffff1673ffffffffffffffffffffffffffffffffffffffff1673ffffffffffffffffffffffffffffffffffffffff168152602001600182015481526020016002820160009054906101000a900473ffffffffffffffffffffffffffffffffffffffff1673ffffffffffffffffffffffffffffffffffffffff1673ffffffffffffffffffffffffffffffffffffffff16815260200160038201548152602001600482015481526020016005820180546104f59061510e565b80601f01602080910402602001604051908101604052809291908181526020018280546105219061510e565b801561056e5780601f106105435761010080835404028352916020019161056e565b820191906000526020600020905b81548152906001019060200180831161055157829003601f168201915b5050505050815260200160068201548152602001600782015481526020016008820160009054906101000a900460ff161515151581526020016008820160019054906101000a900460ff1615151515815260200160098201548152602001600a820160009054906101000a900473ffffffffffffffffffffffffffffffffffffffff1673ffffffffffffffffffffffffffffffffffffffff1673ffffffffffffffffffffffffffffffffffffffff16815250509050600081610160015173ffffffffffffffffffffffffffffffffffffffff16636352211e856040518263ffffffff1660e01b81526004016106639190614e34565b602060405180830381600087803b15801561067d57600080fd5b505af1158015610691573d6000803e3d6000fd5b505050506040513d601f19601f820116820180604052508101906106b59190614666565b9050600073ffffffffffffffffffffffffffffffffffffffff16826000015173ffffffffffffffffffffffffffffffffffffffff16141580156106fb5750428260200151115b801561073257503373ffffffffffffffffffffffffffffffffffffffff168173ffffffffffffffffffffffffffffffffffffffff16145b801561073e5750600083115b801561074f57508161014001514210155b801561075e5750816101000151155b61079d576040517f08c379a000000000000000000000000000000000000000000000000000000000815260040161079490614db4565b60405180910390fd5b60018060008282546107af9190614f8e565b925050819055506040518060c001604052803373ffffffffffffffffffffffffffffffffffffffff1681526020018681526020018581526020018481526020016000151581526020016000151581525060046000600154815260200190815260200160002060008201518160000160006101000a81548173ffffffffffffffffffffffffffffffffffffffff021916908373ffffffffffffffffffffffffffffffffffffffff16021790555060208201518160010155604082015181600201556060820151816003015560808201518160040160006101000a81548160ff02191690831515021790555060a08201518160040160016101000a81548160ff02191690831515021790555090505081610160015173ffffffffffffffffffffffffffffffffffffffff166323b872dd3330876040518463ffffffff1660e01b81526004016108fe93929190614b39565b600060405180830381600087803b15801561091857600080fd5b505af115801561092c573d6000803e3d6000fd5b505050505050505050565b600060036000838152602001908152602001600020604051806101800160405290816000820160009054906101000a900473ffffffffffffffffffffffffffffffffffffffff1673ffffffffffffffffffffffffffffffffffffffff1673ffffffffffffffffffffffffffffffffffffffff168152602001600182015481526020016002820160009054906101000a900473ffffffffffffffffffffffffffffffffffffffff1673ffffffffffffffffffffffffffffffffffffffff1673ffffffffffffffffffffffffffffffffffffffff1681526020016003820154815260200160048201548152602001600582018054610a329061510e565b80601f0160208091040260200160405190810160405280929190818152602001828054610a5e9061510e565b8015610aab5780601f10610a8057610100808354040283529160200191610aab565b820191906000526020600020905b815481529060010190602001808311610a8e57829003601f168201915b5050505050815260200160068201548152602001600782015481526020016008820160009054906101000a900460ff161515151581526020016008820160019054906101000a900460ff1615151515815260200160098201548152602001600a820160009054906101000a900473ffffffffffffffffffffffffffffffffffffffff1673ffffffffffffffffffffffffffffffffffffffff1673ffffffffffffffffffffffffffffffffffffffff16815250509050806000015173ffffffffffffffffffffffffffffffffffffffff163373ffffffffffffffffffffffffffffffffffffffff16148015610ba25750806101000151155b8015610bb15750428160200151115b610bf0576040517f08c379a0000000000000000000000000000000000000000000000000000000008152600401610be790614d54565b60405180910390fd5b8061010001511581610100019015159081151581525050806003600084815260200190815260200160002060008201518160000160006101000a81548173ffffffffffffffffffffffffffffffffffffffff021916908373ffffffffffffffffffffffffffffffffffffffff1602179055506020820151816001015560408201518160020160006101000a81548173ffffffffffffffffffffffffffffffffffffffff021916908373ffffffffffffffffffffffffffffffffffffffff160217905550606082015181600301556080820151816004015560a0820151816005019080519060200190610ce3929190614377565b5060c0820151816006015560e082015181600701556101008201518160080160006101000a81548160ff0219169083151502179055506101208201518160080160016101000a81548160ff021916908315150217905550610140820151816009015561016082015181600a0160006101000a81548173ffffffffffffffffffffffffffffffffffffffff021916908373ffffffffffffffffffffffffffffffffffffffff1602179055509050505050565b60046020528060005260406000206000915090508060000160009054906101000a900473ffffffffffffffffffffffffffffffffffffffff16908060010154908060020154908060030154908060040160009054906101000a900460ff16908060040160019054906101000a900460ff16905086565b4289118015610e465750600073ffffffffffffffffffffffffffffffffffffffff168873ffffffffffffffffffffffffffffffffffffffff1614155b8015610e525750600087115b8015610e5e5750600086115b8015610e6c57506000855114155b8015610e7757504284115b8015610e8257508884105b610ec1576040517f08c379a0000000000000000000000000000000000000000000000000000000008152600401610eb890614df4565b60405180910390fd5b6000825114158015610ed4575081518351145b8015610ee1575080518251145b610f20576040517f08c379a0000000000000000000000000000000000000000000000000000000008152600401610f1790614df4565b60405180910390fd5b6001600080828254610f329190614f8e565b925050819055506000610f66600260009054906101000a900473ffffffffffffffffffffffffffffffffffffffff1661430d565b9050600073ffffffffffffffffffffffffffffffffffffffff168173ffffffffffffffffffffffffffffffffffffffff161415610fcc577f4e487b7100000000000000000000000000000000000000000000000000000000600052600160045260246000fd5b8073ffffffffffffffffffffffffffffffffffffffff1663f62d1888876040518263ffffffff1660e01b81526004016110059190614c92565b600060405180830381600087803b15801561101f57600080fd5b505af1158015611033573d6000803e3d6000fd5b505050508073ffffffffffffffffffffffffffffffffffffffff166392eefe9b306040518263ffffffff1660e01b81526004016110709190614b03565b600060405180830381600087803b15801561108a57600080fd5b505af115801561109e573d6000803e3d6000fd5b5050505060005b835181101561133a5760008482815181106110e9577f4e487b7100000000000000000000000000000000000000000000000000000000600052603260045260246000fd5b602002602001015111801561113e57506000838281518110611134577f4e487b7100000000000000000000000000000000000000000000000000000000600052603260045260246000fd5b6020026020010151115b801561118c57506000858281518110611180577f4e487b7100000000000000000000000000000000000000000000000000000000600052603260045260246000fd5b60200260200101515114155b6111cb576040517f08c379a00000000000000000000000000000000000000000000000000000000081526004016111c290614d34565b60405180910390fd5b60056000805481526020019081526020016000206040518060800160405280868481518110611223577f4e487b7100000000000000000000000000000000000000000000000000000000600052603260045260246000fd5b60200260200101518152602001878481518110611269577f4e487b7100000000000000000000000000000000000000000000000000000000600052603260045260246000fd5b602002602001015181526020018584815181106112af577f4e487b7100000000000000000000000000000000000000000000000000000000600052603260045260246000fd5b6020026020010151815260200160008152509080600181540180825580915050600190039060005260206000209060040201600090919091909150600082015181600001556020820151816001019080519060200190611310929190614377565b5060408201518160020155606082015181600301555050808061133290615171565b9150506110a5565b506040518061018001604052803373ffffffffffffffffffffffffffffffffffffffff1681526020018b81526020018a73ffffffffffffffffffffffffffffffffffffffff16815260200189815260200188815260200187815260200160008152602001600081526020016000151581526020016000151581526020018681526020018273ffffffffffffffffffffffffffffffffffffffff16815250600360008054815260200190815260200160002060008201518160000160006101000a81548173ffffffffffffffffffffffffffffffffffffffff021916908373ffffffffffffffffffffffffffffffffffffffff1602179055506020820151816001015560408201518160020160006101000a81548173ffffffffffffffffffffffffffffffffffffffff021916908373ffffffffffffffffffffffffffffffffffffffff160217905550606082015181600301556080820151816004015560a08201518160050190805190602001906114b3929190614377565b5060c0820151816006015560e082015181600701556101008201518160080160006101000a81548160ff0219169083151502179055506101208201518160080160016101000a81548160ff021916908315150217905550610140820151816009015561016082015181600a0160006101000a81548173ffffffffffffffffffffffffffffffffffffffff021916908373ffffffffffffffffffffffffffffffffffffffff16021790555090505050505050505050505050565b60036020528060005260406000206000915090508060000160009054906101000a900473ffffffffffffffffffffffffffffffffffffffff16908060010154908060020160009054906101000a900473ffffffffffffffffffffffffffffffffffffffff16908060030154908060040154908060050180546115ed9061510e565b80601f01602080910402602001604051908101604052809291908181526020018280546116199061510e565b80156116665780601f1061163b57610100808354040283529160200191611666565b820191906000526020600020905b81548152906001019060200180831161164957829003601f168201915b5050505050908060060154908060070154908060080160009054906101000a900460ff16908060080160019054906101000a900460ff169080600901549080600a0160009054906101000a900473ffffffffffffffffffffffffffffffffffffffff1690508c565b600047905090565b600660009054906101000a900473ffffffffffffffffffffffffffffffffffffffff1681565b6000600460008381526020019081526020016000206040518060c00160405290816000820160009054906101000a900473ffffffffffffffffffffffffffffffffffffffff1673ffffffffffffffffffffffffffffffffffffffff1673ffffffffffffffffffffffffffffffffffffffff1681526020016001820154815260200160028201548152602001600382015481526020016004820160009054906101000a900460ff161515151581526020016004820160019054906101000a900460ff161515151581525050905060006003600083602001518152602001908152602001600020604051806101800160405290816000820160009054906101000a900473ffffffffffffffffffffffffffffffffffffffff1673ffffffffffffffffffffffffffffffffffffffff1673ffffffffffffffffffffffffffffffffffffffff168152602001600182015481526020016002820160009054906101000a900473ffffffffffffffffffffffffffffffffffffffff1673ffffffffffffffffffffffffffffffffffffffff1673ffffffffffffffffffffffffffffffffffffffff16815260200160038201548152602001600482015481526020016005820180546118c79061510e565b80601f01602080910402602001604051908101604052809291908181526020018280546118f39061510e565b80156119405780601f1061191557610100808354040283529160200191611940565b820191906000526020600020905b81548152906001019060200180831161192357829003601f168201915b5050505050815260200160068201548152602001600782015481526020016008820160009054906101000a900460ff161515151581526020016008820160019054906101000a900460ff1615151515815260200160098201548152602001600a820160009054906101000a900473ffffffffffffffffffffffffffffffffffffffff1673ffffffffffffffffffffffffffffffffffffffff1673ffffffffffffffffffffffffffffffffffffffff16815250509050600081610160015173ffffffffffffffffffffffffffffffffffffffff16636352211e84604001516040518263ffffffff1660e01b8152600401611a399190614e34565b602060405180830381600087803b158015611a5357600080fd5b505af1158015611a67573d6000803e3d6000fd5b505050506040513d601f19601f82011682018060405250810190611a8b9190614666565b9050600073ffffffffffffffffffffffffffffffffffffffff16836000015173ffffffffffffffffffffffffffffffffffffffff1614158015611afd57503373ffffffffffffffffffffffffffffffffffffffff16836000015173ffffffffffffffffffffffffffffffffffffffff16145b8015611b0b57508260a00151155b8015611b1957508260800151155b8015611b5057503073ffffffffffffffffffffffffffffffffffffffff168173ffffffffffffffffffffffffffffffffffffffff16145b611b8f576040517f08c379a0000000000000000000000000000000000000000000000000000000008152600401611b8690614d74565b60405180910390fd5b60018360a001901515908115158152505081610160015173ffffffffffffffffffffffffffffffffffffffff166323b872dd303386604001516040518463ffffffff1660e01b8152600401611be693929190614b39565b600060405180830381600087803b158015611c0057600080fd5b505af1158015611c14573d6000803e3d6000fd5b50505050826004600086815260200190815260200160002060008201518160000160006101000a81548173ffffffffffffffffffffffffffffffffffffffff021916908373ffffffffffffffffffffffffffffffffffffffff16021790555060208201518160010155604082015181600201556060820151816003015560808201518160040160006101000a81548160ff02191690831515021790555060a08201518160040160016101000a81548160ff02191690831515021790555090505050505050565b600060036000858152602001908152602001600020604051806101800160405290816000820160009054906101000a900473ffffffffffffffffffffffffffffffffffffffff1673ffffffffffffffffffffffffffffffffffffffff1673ffffffffffffffffffffffffffffffffffffffff168152602001600182015481526020016002820160009054906101000a900473ffffffffffffffffffffffffffffffffffffffff1673ffffffffffffffffffffffffffffffffffffffff1673ffffffffffffffffffffffffffffffffffffffff1681526020016003820154815260200160048201548152602001600582018054611dd59061510e565b80601f0160208091040260200160405190810160405280929190818152602001828054611e019061510e565b8015611e4e5780601f10611e2357610100808354040283529160200191611e4e565b820191906000526020600020905b815481529060010190602001808311611e3157829003601f168201915b5050505050815260200160068201548152602001600782015481526020016008820160009054906101000a900460ff161515151581526020016008820160019054906101000a900460ff1615151515815260200160098201548152602001600a820160009054906101000a900473ffffffffffffffffffffffffffffffffffffffff1673ffffffffffffffffffffffffffffffffffffffff1673ffffffffffffffffffffffffffffffffffffffff16815250509050600060056000868152602001908152602001600020805480602002602001604051908101604052809291908181526020016000905b8282101561201a578382906000526020600020906004020160405180608001604052908160008201548152602001600182018054611f759061510e565b80601f0160208091040260200160405190810160405280929190818152602001828054611fa19061510e565b8015611fee5780601f10611fc357610100808354040283529160200191611fee565b820191906000526020600020905b815481529060010190602001808311611fd157829003601f168201915b505050505081526020016002820154815260200160038201548152505081526020019060010190611f38565b505050509050600080836101000151612068576040517f08c379a000000000000000000000000000000000000000000000000000000000815260040161205f90614cb4565b60405180910390fd5b60005b8686905081101561238957600085610160015173ffffffffffffffffffffffffffffffffffffffff16636352211e8989858181106120d2577f4e487b7100000000000000000000000000000000000000000000000000000000600052603260045260246000fd5b905060200201356040518263ffffffff1660e01b81526004016120f59190614e34565b602060405180830381600087803b15801561210f57600080fd5b505af1158015612123573d6000803e3d6000fd5b505050506040513d601f19601f820116820180604052508101906121479190614666565b90503373ffffffffffffffffffffffffffffffffffffffff168173ffffffffffffffffffffffffffffffffffffffff16146121b7576040517f08c379a00000000000000000000000000000000000000000000000000000000081526004016121ae90614e14565b60405180910390fd5b60005b85518110156122c5578581815181106121fc577f4e487b7100000000000000000000000000000000000000000000000000000000600052603260045260246000fd5b602002602001015160000151846122139190614f8e565b935088888481811061224e577f4e487b7100000000000000000000000000000000000000000000000000000000600052603260045260246000fd5b9050602002013584106122b257858181518110612294577f4e487b7100000000000000000000000000000000000000000000000000000000600052603260045260246000fd5b602002602001015160400151856122ab9190614f8e565b94506122c5565b80806122bd90615171565b9150506121ba565b5085610160015173ffffffffffffffffffffffffffffffffffffffff1663714951a3898985818110612320577f4e487b7100000000000000000000000000000000000000000000000000000000600052603260045260246000fd5b905060200201356040518263ffffffff1660e01b81526004016123439190614e34565b600060405180830381600087803b15801561235d57600080fd5b505af1158015612371573d6000803e3d6000fd5b5050505050808061238190615171565b91505061206b565b5060003390508073ffffffffffffffffffffffffffffffffffffffff166108fc849081150290604051600060405180830381858888f193505050501580156123d5573d6000803e3d6000fd5b505050505050505050565b600260009054906101000a900473ffffffffffffffffffffffffffffffffffffffff1681565b6005602052816000526040600020818154811061242257600080fd5b90600052602060002090600402016000915091505080600001549080600101805461244c9061510e565b80601f01602080910402602001604051908101604052809291908181526020018280546124789061510e565b80156124c55780601f1061249a576101008083540402835291602001916124c5565b820191906000526020600020905b8154815290600101906020018083116124a857829003601f168201915b5050505050908060020154908060030154905084565b600060036000848152602001908152602001600020604051806101800160405290816000820160009054906101000a900473ffffffffffffffffffffffffffffffffffffffff1673ffffffffffffffffffffffffffffffffffffffff1673ffffffffffffffffffffffffffffffffffffffff168152602001600182015481526020016002820160009054906101000a900473ffffffffffffffffffffffffffffffffffffffff1673ffffffffffffffffffffffffffffffffffffffff1673ffffffffffffffffffffffffffffffffffffffff16815260200160038201548152602001600482015481526020016005820180546125d69061510e565b80601f01602080910402602001604051908101604052809291908181526020018280546126029061510e565b801561264f5780601f106126245761010080835404028352916020019161264f565b820191906000526020600020905b81548152906001019060200180831161263257829003601f168201915b5050505050815260200160068201548152602001600782015481526020016008820160009054906101000a900460ff161515151581526020016008820160019054906101000a900460ff1615151515815260200160098201548152602001600a820160009054906101000a900473ffffffffffffffffffffffffffffffffffffffff1673ffffffffffffffffffffffffffffffffffffffff1673ffffffffffffffffffffffffffffffffffffffff16815250509050600081610160015173ffffffffffffffffffffffffffffffffffffffff16636352211e846040518263ffffffff1660e01b81526004016127449190614e34565b602060405180830381600087803b15801561275e57600080fd5b505af1158015612772573d6000803e3d6000fd5b505050506040513d601f19601f820116820180604052508101906127969190614666565b90503373ffffffffffffffffffffffffffffffffffffffff168173ffffffffffffffffffffffffffffffffffffffff161480156127d7575081602001514210155b80156127f55750816060015182602001516127f29190614f8e565b42105b80156128045750816101000151155b612843576040517f08c379a000000000000000000000000000000000000000000000000000000000815260040161283a90614d14565b60405180910390fd5b60018260c0018181516128569190614f8e565b91508181525050816003600086815260200190815260200160002060008201518160000160006101000a81548173ffffffffffffffffffffffffffffffffffffffff021916908373ffffffffffffffffffffffffffffffffffffffff1602179055506020820151816001015560408201518160020160006101000a81548173ffffffffffffffffffffffffffffffffffffffff021916908373ffffffffffffffffffffffffffffffffffffffff160217905550606082015181600301556080820151816004015560a0820151816005019080519060200190612939929190614377565b5060c0820151816006015560e082015181600701556101008201518160080160006101000a81548160ff0219169083151502179055506101208201518160080160016101000a81548160ff021916908315150217905550610140820151816009015561016082015181600a0160006101000a81548173ffffffffffffffffffffffffffffffffffffffff021916908373ffffffffffffffffffffffffffffffffffffffff16021790555090505081610160015173ffffffffffffffffffffffffffffffffffffffff1663714951a3846040518263ffffffff1660e01b8152600401612a249190614e34565b600060405180830381600087803b158015612a3e57600080fd5b505af1158015612a52573d6000803e3d6000fd5b5050505050505050565b6000600460008381526020019081526020016000206040518060c00160405290816000820160009054906101000a900473ffffffffffffffffffffffffffffffffffffffff1673ffffffffffffffffffffffffffffffffffffffff1673ffffffffffffffffffffffffffffffffffffffff1681526020016001820154815260200160028201548152602001600382015481526020016004820160009054906101000a900460ff161515151581526020016004820160019054906101000a900460ff161515151581525050905060006003600083602001518152602001908152602001600020604051806101800160405290816000820160009054906101000a900473ffffffffffffffffffffffffffffffffffffffff1673ffffffffffffffffffffffffffffffffffffffff1673ffffffffffffffffffffffffffffffffffffffff168152602001600182015481526020016002820160009054906101000a900473ffffffffffffffffffffffffffffffffffffffff1673ffffffffffffffffffffffffffffffffffffffff1673ffffffffffffffffffffffffffffffffffffffff1681526020016003820154815260200160048201548152602001600582018054612c279061510e565b80601f0160208091040260200160405190810160405280929190818152602001828054612c539061510e565b8015612ca05780601f10612c7557610100808354040283529160200191612ca0565b820191906000526020600020905b815481529060010190602001808311612c8357829003601f168201915b5050505050815260200160068201548152602001600782015481526020016008820160009054906101000a900460ff161515151581526020016008820160019054906101000a900460ff1615151515815260200160098201548152602001600a820160009054906101000a900473ffffffffffffffffffffffffffffffffffffffff1673ffffffffffffffffffffffffffffffffffffffff1673ffffffffffffffffffffffffffffffffffffffff16815250509050600081610160015173ffffffffffffffffffffffffffffffffffffffff16636352211e84604001516040518263ffffffff1660e01b8152600401612d999190614e34565b602060405180830381600087803b158015612db357600080fd5b505af1158015612dc7573d6000803e3d6000fd5b505050506040513d601f19601f82011682018060405250810190612deb9190614666565b9050600073ffffffffffffffffffffffffffffffffffffffff16836000015173ffffffffffffffffffffffffffffffffffffffff1614158015612e5957503073ffffffffffffffffffffffffffffffffffffffff168173ffffffffffffffffffffffffffffffffffffffff16145b8015612e9557503373ffffffffffffffffffffffffffffffffffffffff16836000015173ffffffffffffffffffffffffffffffffffffffff1614155b8015612ea357508260a00151155b8015612eb157508260800151155b8015612ec05750428260200151115b8015612ed157508161014001514210155b612f10576040517f08c379a0000000000000000000000000000000000000000000000000000000008152600401612f0790614cf4565b60405180910390fd5b81610160015173ffffffffffffffffffffffffffffffffffffffff166323b872dd303386604001516040518463ffffffff1660e01b8152600401612f5693929190614b39565b600060405180830381600087803b158015612f7057600080fd5b505af1158015612f84573d6000803e3d6000fd5b505050503073ffffffffffffffffffffffffffffffffffffffff166108fc84606001519081150290604051600060405180830381858888f19350505050158015612fd2573d6000803e3d6000fd5b503373ffffffffffffffffffffffffffffffffffffffff166108fc84606001519081150290604051600060405180830381858888f1935050505015801561301d573d6000803e3d6000fd5b506001836080019015159081151581525050826004600086815260200190815260200160002060008201518160000160006101000a81548173ffffffffffffffffffffffffffffffffffffffff021916908373ffffffffffffffffffffffffffffffffffffffff16021790555060208201518160010155604082015181600201556060820151816003015560808201518160040160006101000a81548160ff02191690831515021790555060a08201518160040160016101000a81548160ff02191690831515021790555090505050505050565b600060036000838152602001908152602001600020604051806101800160405290816000820160009054906101000a900473ffffffffffffffffffffffffffffffffffffffff1673ffffffffffffffffffffffffffffffffffffffff1673ffffffffffffffffffffffffffffffffffffffff168152602001600182015481526020016002820160009054906101000a900473ffffffffffffffffffffffffffffffffffffffff1673ffffffffffffffffffffffffffffffffffffffff1673ffffffffffffffffffffffffffffffffffffffff16815260200160038201548152602001600482015481526020016005820180546131ec9061510e565b80601f01602080910402602001604051908101604052809291908181526020018280546132189061510e565b80156132655780601f1061323a57610100808354040283529160200191613265565b820191906000526020600020905b81548152906001019060200180831161324857829003601f168201915b5050505050815260200160068201548152602001600782015481526020016008820160009054906101000a900460ff161515151581526020016008820160019054906101000a900460ff1615151515815260200160098201548152602001600a820160009054906101000a900473ffffffffffffffffffffffffffffffffffffffff1673ffffffffffffffffffffffffffffffffffffffff1673ffffffffffffffffffffffffffffffffffffffff16815250509050600060056000848152602001908152602001600020805480602002602001604051908101604052809291908181526020016000905b8282101561343157838290600052602060002090600402016040518060800160405290816000820154815260200160018201805461338c9061510e565b80601f01602080910402602001604051908101604052809291908181526020018280546133b89061510e565b80156134055780601f106133da57610100808354040283529160200191613405565b820191906000526020600020905b8154815290600101906020018083116133e857829003601f168201915b50505050508152602001600282015481526020016003820154815250508152602001906001019061334f565b505050509050816000015173ffffffffffffffffffffffffffffffffffffffff163373ffffffffffffffffffffffffffffffffffffffff161480156134885750816060015182602001516134859190614f8e565b42115b80156134975750816101000151155b80156134a65750816101200151155b6134e5576040517f08c379a00000000000000000000000000000000000000000000000000000000081526004016134dc90614d94565b60405180910390fd5b6000805b82518110156135a65782818151811061352b577f4e487b7100000000000000000000000000000000000000000000000000000000600052603260045260246000fd5b602002602001015160400151838281518110613570577f4e487b7100000000000000000000000000000000000000000000000000000000600052603260045260246000fd5b6020026020010151606001516135869190614fe4565b826135919190614f8e565b9150808061359e90615171565b9150506134e9565b503373ffffffffffffffffffffffffffffffffffffffff166108fc829081150290604051600060405180830381858888f193505050501580156135ed573d6000803e3d6000fd5b50600183610120019015159081151581525050826003600086815260200190815260200160002060008201518160000160006101000a81548173ffffffffffffffffffffffffffffffffffffffff021916908373ffffffffffffffffffffffffffffffffffffffff1602179055506020820151816001015560408201518160020160006101000a81548173ffffffffffffffffffffffffffffffffffffffff021916908373ffffffffffffffffffffffffffffffffffffffff160217905550606082015181600301556080820151816004015560a08201518160050190805190602001906136dc929190614377565b5060c0820151816006015560e082015181600701556101008201518160080160006101000a81548160ff0219169083151502179055506101208201518160080160016101000a81548160ff021916908315150217905550610140820151816009015561016082015181600a0160006101000a81548173ffffffffffffffffffffffffffffffffffffffff021916908373ffffffffffffffffffffffffffffffffffffffff16021790555090505050505050565b600060036000848152602001908152602001600020604051806101800160405290816000820160009054906101000a900473ffffffffffffffffffffffffffffffffffffffff1673ffffffffffffffffffffffffffffffffffffffff1673ffffffffffffffffffffffffffffffffffffffff168152602001600182015481526020016002820160009054906101000a900473ffffffffffffffffffffffffffffffffffffffff1673ffffffffffffffffffffffffffffffffffffffff1673ffffffffffffffffffffffffffffffffffffffff168152602001600382015481526020016004820154815260200160058201805461388a9061510e565b80601f01602080910402602001604051908101604052809291908181526020018280546138b69061510e565b80156139035780601f106138d857610100808354040283529160200191613903565b820191906000526020600020905b8154815290600101906020018083116138e657829003601f168201915b5050505050815260200160068201548152602001600782015481526020016008820160009054906101000a900460ff161515151581526020016008820160019054906101000a900460ff1615151515815260200160098201548152602001600a820160009054906101000a900473ffffffffffffffffffffffffffffffffffffffff1673ffffffffffffffffffffffffffffffffffffffff1673ffffffffffffffffffffffffffffffffffffffff16815250509050600060056000858152602001908152602001600020805480602002602001604051908101604052809291908181526020016000905b82821015613acf578382906000526020600020906004020160405180608001604052908160008201548152602001600182018054613a2a9061510e565b80601f0160208091040260200160405190810160405280929190818152602001828054613a569061510e565b8015613aa35780601f10613a7857610100808354040283529160200191613aa3565b820191906000526020600020905b815481529060010190602001808311613a8657829003601f168201915b5050505050815260200160028201548152602001600382015481525050815260200190600101906139ed565b505050509050600073ffffffffffffffffffffffffffffffffffffffff16826000015173ffffffffffffffffffffffffffffffffffffffff1614158015613b195750428260200151115b8015613b285750816101000151155b613b67576040517f08c379a0000000000000000000000000000000000000000000000000000000008152600401613b5e90614db4565b60405180910390fd5b600082610160015173ffffffffffffffffffffffffffffffffffffffff166370a08231336040518263ffffffff1660e01b8152600401613ba79190614b03565b602060405180830381600087803b158015613bc157600080fd5b505af1158015613bd5573d6000803e3d6000fd5b505050506040513d601f19601f82011682018060405250810190613bf991906146b8565b90506000805b8351811015613c6d57838181518110613c41577f4e487b7100000000000000000000000000000000000000000000000000000000600052603260045260246000fd5b60200260200101516000015182613c589190614f8e565b91508080613c6590615171565b915050613bff565b5083608001518583613c7f9190614f8e565b11158015613c9b575080858560e00151613c999190614f8e565b105b613cda576040517f08c379a0000000000000000000000000000000000000000000000000000000008152600401613cd190614cd4565b60405180910390fd5b6000805b8451811015614088576000879050858281518110613d25577f4e487b7100000000000000000000000000000000000000000000000000000000600052603260045260246000fd5b602002602001015160000151868381518110613d6a577f4e487b7100000000000000000000000000000000000000000000000000000000600052603260045260246000fd5b60200260200101516060015114614074576000868381518110613db6577f4e487b7100000000000000000000000000000000000000000000000000000000600052603260045260246000fd5b602002602001015160600151878481518110613dfb577f4e487b7100000000000000000000000000000000000000000000000000000000600052603260045260246000fd5b602002602001015160000151613e11919061503e565b905081811115613ecf57868381518110613e54577f4e487b7100000000000000000000000000000000000000000000000000000000600052603260045260246000fd5b60200260200101516040015182613e6b9190614fe4565b93506000915081878481518110613eab577f4e487b7100000000000000000000000000000000000000000000000000000000600052603260045260246000fd5b6020026020010151606001818151613ec39190614f8e565b91508181525050613f89565b868381518110613f08577f4e487b7100000000000000000000000000000000000000000000000000000000600052603260045260246000fd5b60200260200101516040015181613f1f9190614fe4565b93508082613f2d919061503e565b915080878481518110613f69577f4e487b7100000000000000000000000000000000000000000000000000000000600052603260045260246000fd5b6020026020010151606001818151613f819190614f8e565b915081815250505b868381518110613fc2577f4e487b7100000000000000000000000000000000000000000000000000000000600052603260045260246000fd5b602002602001015160056000805481526020019081526020016000208481548110614016577f4e487b7100000000000000000000000000000000000000000000000000000000600052603260045260246000fd5b906000526020600020906004020160008201518160000155602082015181600101908051906020019061404a929190614377565b5060408201518160020155606082015181600301559050506000821415614072575050614088565b505b50808061408090615171565b915050613cde565b5060005b868110156141375760018660e0018181516140a79190614f8e565b9150818152505085610160015173ffffffffffffffffffffffffffffffffffffffff1663b4da675a8760e00151336040518363ffffffff1660e01b81526004016140f2929190614e4f565b600060405180830381600087803b15801561410c57600080fd5b505af1158015614120573d6000803e3d6000fd5b50505050808061412f90615171565b91505061408c565b508034101561417b576040517f08c379a000000000000000000000000000000000000000000000000000000000815260040161417290614dd4565b60405180910390fd5b846003600089815260200190815260200160002060008201518160000160006101000a81548173ffffffffffffffffffffffffffffffffffffffff021916908373ffffffffffffffffffffffffffffffffffffffff1602179055506020820151816001015560408201518160020160006101000a81548173ffffffffffffffffffffffffffffffffffffffff021916908373ffffffffffffffffffffffffffffffffffffffff160217905550606082015181600301556080820151816004015560a0820151816005019080519060200190614257929190614377565b5060c0820151816006015560e082015181600701556101008201518160080160006101000a81548160ff0219169083151502179055506101208201518160080160016101000a81548160ff021916908315150217905550610140820151816009015561016082015181600a0160006101000a81548173ffffffffffffffffffffffffffffffffffffffff021916908373ffffffffffffffffffffffffffffffffffffffff16021790555090505050505050505050565b6000808260601b90506040517f3d602d80600a3d3981f3363d3d373d3d3d363d7300000000000000000000000081528160148201527f5af43d82803e903d91602b57fd5bf3000000000000000000000000000000000060288201526037816000f092505050919050565b8280546143839061510e565b90600052602060002090601f0160209004810192826143a557600085556143ec565b82601f106143be57805160ff19168380011785556143ec565b828001600101855582156143ec579182015b828111156143eb5782518255916020019190600101906143d0565b5b5090506143f991906143fd565b5090565b5b808211156144165760008160009055506001016143fe565b5090565b600061442d61442884614ee9565b614ec4565b9050808382526020820190508285602086028201111561444c57600080fd5b60005b8581101561449657813567ffffffffffffffff81111561446e57600080fd5b80860161447b8982614612565b8552602085019450602084019350505060018101905061444f565b5050509392505050565b60006144b36144ae84614f15565b614ec4565b905080838252602082019050828560208602820111156144d257600080fd5b60005b8581101561450257816144e8888261463c565b8452602084019350602083019250506001810190506144d5565b5050509392505050565b600061451f61451a84614f41565b614ec4565b90508281526020810184848401111561453757600080fd5b6145428482856150cc565b509392505050565b6000813590506145598161560c565b92915050565b60008151905061456e8161560c565b92915050565b600082601f83011261458557600080fd5b813561459584826020860161441a565b91505092915050565b60008083601f8401126145b057600080fd5b8235905067ffffffffffffffff8111156145c957600080fd5b6020830191508360208202830111156145e157600080fd5b9250929050565b600082601f8301126145f957600080fd5b81356146098482602086016144a0565b91505092915050565b600082601f83011261462357600080fd5b813561463384826020860161450c565b91505092915050565b60008135905061464b81615623565b92915050565b60008151905061466081615623565b92915050565b60006020828403121561467857600080fd5b60006146868482850161455f565b91505092915050565b6000602082840312156146a157600080fd5b60006146af8482850161463c565b91505092915050565b6000602082840312156146ca57600080fd5b60006146d884828501614651565b91505092915050565b60008060008060008060008060006101208a8c03121561470057600080fd5b600061470e8c828d0161463c565b995050602061471f8c828d0161454a565b98505060406147308c828d0161463c565b97505060606147418c828d0161463c565b96505060808a013567ffffffffffffffff81111561475e57600080fd5b61476a8c828d01614612565b95505060a061477b8c828d0161463c565b94505060c08a013567ffffffffffffffff81111561479857600080fd5b6147a48c828d01614574565b93505060e08a013567ffffffffffffffff8111156147c157600080fd5b6147cd8c828d016145e8565b9250506101008a013567ffffffffffffffff8111156147eb57600080fd5b6147f78c828d016145e8565b9150509295985092959850929598565b60008060006040848603121561481c57600080fd5b600061482a8682870161463c565b935050602084013567ffffffffffffffff81111561484757600080fd5b6148538682870161459e565b92509250509250925092565b6000806040838503121561487257600080fd5b60006148808582860161463c565b92505060206148918582860161463c565b9150509250929050565b6000806000606084860312156148b057600080fd5b60006148be8682870161463c565b93505060206148cf8682870161463c565b92505060406148e08682870161463c565b9150509250925092565b6148f381615084565b82525050565b61490281615072565b82525050565b61491181615096565b82525050565b600061492282614f72565b61492c8185614f7d565b935061493c8185602086016150db565b61494581615247565b840191505092915050565b600061495d602683614f7d565b915061496882615258565b604082019050919050565b6000614980601f83614f7d565b915061498b826152a7565b602082019050919050565b60006149a3605083614f7d565b91506149ae826152d0565b606082019050919050565b60006149c6604183614f7d565b91506149d182615345565b606082019050919050565b60006149e9603183614f7d565b91506149f4826153ba565b604082019050919050565b6000614a0c605383614f7d565b9150614a1782615409565b606082019050919050565b6000614a2f605383614f7d565b9150614a3a8261547e565b606082019050919050565b6000614a52603783614f7d565b9150614a5d826154f3565b604082019050919050565b6000614a75600d83614f7d565b9150614a8082615542565b602082019050919050565b6000614a98601a83614f7d565b9150614aa38261556b565b602082019050919050565b6000614abb601083614f7d565b9150614ac682615594565b602082019050919050565b6000614ade602583614f7d565b9150614ae9826155bd565b604082019050919050565b614afd816150c2565b82525050565b6000602082019050614b1860008301846148f9565b92915050565b6000602082019050614b3360008301846148ea565b92915050565b6000606082019050614b4e60008301866148f9565b614b5b60208301856148f9565b614b686040830184614af4565b949350505050565b600061018082019050614b86600083018f6148f9565b614b93602083018e614af4565b614ba0604083018d6148f9565b614bad606083018c614af4565b614bba608083018b614af4565b81810360a0830152614bcc818a614917565b9050614bdb60c0830189614af4565b614be860e0830188614af4565b614bf6610100830187614908565b614c04610120830186614908565b614c12610140830185614af4565b614c206101608301846148f9565b9d9c50505050505050505050505050565b600060c082019050614c4660008301896148f9565b614c536020830188614af4565b614c606040830187614af4565b614c6d6060830186614af4565b614c7a6080830185614908565b614c8760a0830184614908565b979650505050505050565b60006020820190508181036000830152614cac8184614917565b905092915050565b60006020820190508181036000830152614ccd81614950565b9050919050565b60006020820190508181036000830152614ced81614973565b9050919050565b60006020820190508181036000830152614d0d81614996565b9050919050565b60006020820190508181036000830152614d2d816149b9565b9050919050565b60006020820190508181036000830152614d4d816149dc565b9050919050565b60006020820190508181036000830152614d6d816149ff565b9050919050565b60006020820190508181036000830152614d8d81614a22565b9050919050565b60006020820190508181036000830152614dad81614a45565b9050919050565b60006020820190508181036000830152614dcd81614a68565b9050919050565b60006020820190508181036000830152614ded81614a8b565b9050919050565b60006020820190508181036000830152614e0d81614aae565b9050919050565b60006020820190508181036000830152614e2d81614ad1565b9050919050565b6000602082019050614e496000830184614af4565b92915050565b6000604082019050614e646000830185614af4565b614e7160208301846148f9565b9392505050565b6000608082019050614e8d6000830187614af4565b8181036020830152614e9f8186614917565b9050614eae6040830185614af4565b614ebb6060830184614af4565b95945050505050565b6000614ece614edf565b9050614eda8282615140565b919050565b6000604051905090565b600067ffffffffffffffff821115614f0457614f03615218565b5b602082029050602081019050919050565b600067ffffffffffffffff821115614f3057614f2f615218565b5b602082029050602081019050919050565b600067ffffffffffffffff821115614f5c57614f5b615218565b5b614f6582615247565b9050602081019050919050565b600081519050919050565b600082825260208201905092915050565b6000614f99826150c2565b9150614fa4836150c2565b9250827fffffffffffffffffffffffffffffffffffffffffffffffffffffffffffffffff03821115614fd957614fd86151ba565b5b828201905092915050565b6000614fef826150c2565b9150614ffa836150c2565b9250817fffffffffffffffffffffffffffffffffffffffffffffffffffffffffffffffff0483118215151615615033576150326151ba565b5b828202905092915050565b6000615049826150c2565b9150615054836150c2565b925082821015615067576150666151ba565b5b828203905092915050565b600061507d826150a2565b9050919050565b600061508f826150a2565b9050919050565b60008115159050919050565b600073ffffffffffffffffffffffffffffffffffffffff82169050919050565b6000819050919050565b82818337600083830152505050565b60005b838110156150f95780820151818401526020810190506150de565b83811115615108576000848401525b50505050565b6000600282049050600182168061512657607f821691505b6020821081141561513a576151396151e9565b5b50919050565b61514982615247565b810181811067ffffffffffffffff8211171561516857615167615218565b5b80604052505050565b600061517c826150c2565b91507fffffffffffffffffffffffffffffffffffffffffffffffffffffffffffffffff8214156151af576151ae6151ba565b5b600182019050919050565b7f4e487b7100000000000000000000000000000000000000000000000000000000600052601160045260246000fd5b7f4e487b7100000000000000000000000000000000000000000000000000000000600052602260045260246000fd5b7f4e487b7100000000000000000000000000000000000000000000000000000000600052604160045260246000fd5b6000601f19601f8301169050919050565b7f4f6e6c792063616e63656c6c6564206576656e74732063616e2062652072656460008201527f65656d65642e0000000000000000000000000000000000000000000000000000602082015250565b7f7469636b6574206c696d69742065786365656420627920746865207573657200600082015250565b7f4f726465722073686f756c6420626520696e206163746976652073746174652060008201527f616e6420746865207469636b6574696e67206576656e742073686f756c64206e60208201527f6f74206861766520737461727465642e00000000000000000000000000000000604082015250565b7f4f6e6c792055736572206f776e696e6720746865204e46542063616e206d617260008201527f6b2074686520617474656e64616e636520647572696e6720746865206576656e60208201527f7400000000000000000000000000000000000000000000000000000000000000604082015250565b7f496e76616c696420496e70757420666f722073657474696e67207469636b657460008201527f2073656c6c696e67207363686564756c65000000000000000000000000000000602082015250565b7f6f6e6c7920686f73742063616e2063616e63656c20746865206576656e74206260008201527f65666f726520746865206576656e74207374617274206f72206576656e74206960208201527f7320616c72656164792063616e63656c6c656400000000000000000000000000604082015250565b7f4f726465722063616e206f6e6c792062652063616e63656c6c6564206279207460008201527f6865206f726465722063726561746f72206f72206f726465722069732063616e60208201527f63656c6c6564206f722066756c66696c6c656400000000000000000000000000604082015250565b7f4f6e6c79204f776e65722063616e2074616b6520746865206561726e696e672060008201527f616674657220746865206576656e74206973206f766572000000000000000000602082015250565b7f496e76616c696420496e70757400000000000000000000000000000000000000600082015250565b7f5469636b6574732072657175697265206d6f72652066756e6473000000000000600082015250565b7f496e636f727265637420496e7075747300000000000000000000000000000000600082015250565b7f4f6e6c79207469636b6574206f776e65722063616e2061736b20666f7220726560008201527f66756e642e000000000000000000000000000000000000000000000000000000602082015250565b61561581615072565b811461562057600080fd5b50565b61562c816150c2565b811461563757600080fd5b5056fea264697066735822122018e44ec0cca7c102f35527e480d06851d3f91503a5cfdfdc63c24363afee952c64736f6c63430008040033",
  "immutableReferences": {},
  "source": "// SPDX-License-Identifier: Unlicenced\n\npragma solidity ^0.8.4;\nimport \"@openzeppelin/contracts-upgradeable/token/ERC20/utils/SafeERC20Upgradeable.sol\";\n\nabstract contract NFTContract {\n  function initialize (\n      string memory name_\n  ) public virtual;\n\n  function setController (\n      address  controller_\n  ) public virtual;\n}\n\ninterface TicketNFTInterface {\n    function mintTicketNFT(uint256 _tokenID, address _lender) external;\n\n    function burnTicketNFT(uint256 _tokenID) external;\n\n    function ownerOf(uint256 _tokenID) external returns (address);\n\n    function transferFrom( address from, address to, uint256 tokenId) external;\n\n    function balanceOf(address owner) external returns (uint256);\n}\n\ncontract EventManagement{\n  using SafeERC20Upgradeable for IERC20Upgradeable;\n\n  uint256 public eventId;\n  uint256 public tradeId;\n  address public ticketNFT;\n\n  struct eventDetails {\n    address eventHost;\n    uint256 eventStartTime;\n    address paymentAddress;\n    uint256 eventDuration;\n    uint256 ticketsPerUser;\n    string eventName;\n    uint256 totalAttendees;\n    uint256 ticketsSold;\n    bool isEventCancelled;\n    bool isPaymentComplete;\n    uint256 resellStartTime;\n    address nftContractAddress;\n  }\n\n  event CreateEventId(\n    uint256 eventId,\n    address eventHost,\n    uint256 eventStartTime,\n    address paymentAddress,\n    uint256 eventDuration,\n    uint256 ticketsPerUser,\n    string eventName,\n    uint256 totalAttendees,\n    uint256 ticketsSold,\n    bool isEventCancelled,\n    bool isPaymentComplete,\n    uint256 resellStartTime,\n    address nftContractAddress\n    );\n  \n  event CancelEvent(\n    uint256 eventId\n  );\n\n  event BuyTicket(\n    address user,\n    uint256 eventId,\n    uint256 totalPrice,\n    uint256 totalTickets\n  );\n\n  event MarkAttendance(\n    address user,\n    uint256 eventId,\n    uint256 ticketId\n  );\n\n  event getEarnings(\n    uint256 eventId,\n    uint256 totalEarnings\n  );\n\n  event getTicketRefund(\n    uint256 eventId,\n    address user,\n    uint256 ticketId,\n    uint256 price\n  );\n\n  event resellEventTicket(\n    address user,\n    uint256 eventId,\n    uint256 orderId,\n    uint256 ticketId,\n    uint256 price\n  );\n\n  event cancelTicket(\n    uint256 orderId\n  );\n\n  event buyResellEventTicket(\n    address user,\n    uint256 orderId\n  );\n  struct ticketSchedule {\n    uint256 ticketsNo;\n    string ticketScheduleName;\n    uint256 price;\n    uint256 ticketsUsed;\n  }\n\n  struct tradeDetails {\n    address orderCreator;\n    uint256 eventId;\n    uint256 ticketId;\n    uint256 price;\n    bool orderFulfilled;\n    bool isOrderCancelled;\n  }\n\n  mapping(uint256 => eventDetails) public eventDetailsBook;\n  mapping(uint256 => tradeDetails) public tradeDetailsBook;\n  mapping(uint256 => ticketSchedule[]) public ticketScheduleBook;\n\n  address payable public owner;\n\n  constructor(address _nft){\n    ticketNFT = _nft;\n    owner = payable(msg.sender);\n    eventId = 0;\n    tradeId = 0;\n  }\n\n  function createEvent(\n      uint256 _eventStartTime,\n      address _paymentAddress,\n      uint256 _eventDuration,\n      uint256 _ticketsPerUser,\n      string memory _eventName,\n      uint256 _resellStartTime,\n      string[] memory _ticketScheduleNames,\n      uint256[] memory _noOfTickets,\n      uint256[] memory _price\n  ) external virtual{\n\n    require(\n      _eventStartTime>block.timestamp &&\n      _paymentAddress != address(0) &&\n      _eventDuration > 0 &&\n      _ticketsPerUser > 0 &&\n      bytes(_eventName).length != 0 &&\n      _resellStartTime > block.timestamp &&\n      _resellStartTime < _eventStartTime, \"Incorrect Inputs\"\n      );\n    // Require to handle the ticket selling schedule\n    require(\n      _noOfTickets.length != 0 &&\n      _ticketScheduleNames.length == _noOfTickets.length &&\n      _noOfTickets.length == _price.length, \"Incorrect Inputs\"\n      );\n\n    eventId +=1;\n\n    address deployedNFT = create(ticketNFT);\n    assert(deployedNFT != address(0));\n    NFTContract(deployedNFT).initialize(_eventName);\n    NFTContract(deployedNFT).setController(address(this) );\n\n    for(uint256 i=0; i< _noOfTickets.length; i++){\n      require(\n        _noOfTickets[i] > 0 &&\n        _price[i] > 0 &&\n        bytes(_ticketScheduleNames[i]).length != 0, \"Invalid Input for setting ticket selling schedule\"\n      );\n\n      ticketScheduleBook[eventId].push(\n        ticketSchedule(\n          _noOfTickets[i],\n          _ticketScheduleNames[i],\n          _price[i],\n          0\n        )\n      );\n    }\n\n    // create event details entry in the event details book\n    eventDetailsBook[eventId] = eventDetails(\n      msg.sender,\n      _eventStartTime,\n      _paymentAddress,\n      _eventDuration,\n      _ticketsPerUser,\n      _eventName,\n      0,\n      0,\n      false,\n      false,\n      _resellStartTime,\n      deployedNFT\n    );\n  }\n\n  function cancelEvent(uint256 _eventId) external virtual{\n    eventDetails memory _eventDetails = eventDetailsBook[_eventId];\n    require(\n      msg.sender == _eventDetails.eventHost &&\n      !_eventDetails.isEventCancelled &&\n      _eventDetails.eventStartTime > block.timestamp, \"only host can cancel the event before the event start or event is already cancelled\"\n      );\n    _eventDetails.isEventCancelled = !(_eventDetails.isEventCancelled);\n    eventDetailsBook[_eventId] = _eventDetails;\n  }\n\n  function buyEventTicket(uint256 _eventId, uint256 _noOfTickets) external virtual payable{\n    // RECHECK FUNCTION LOGIC\n    eventDetails memory _eventDetails = eventDetailsBook[_eventId];\n    ticketSchedule[] memory _ticketSchedule = ticketScheduleBook[_eventId];\n\n    require(\n      _eventDetails.eventHost != address(0) &&\n      _eventDetails.eventStartTime > block.timestamp &&\n      !(_eventDetails.isEventCancelled), \"Invalid Input\"\n    );\n\n    uint256 ticketOwnedByUser = TicketNFTInterface(_eventDetails.nftContractAddress).balanceOf(\n      msg.sender\n    );\n\n    uint256 totalTickets = 0;\n    for(uint256 i=0; i< _ticketSchedule.length; i++){\n      totalTickets += _ticketSchedule[i].ticketsNo;\n    }\n    require(\n      (ticketOwnedByUser + _noOfTickets ) <= _eventDetails.ticketsPerUser &&\n      (_eventDetails.ticketsSold + _noOfTickets ) < totalTickets,\"ticket limit exceed by the user\"\n    );\n    uint256 totalPrice = 0;\n    for(uint256 i=0; i< _ticketSchedule.length; i++){\n      uint256 ticketsPending = _noOfTickets;\n      if (_ticketSchedule[i].ticketsUsed != _ticketSchedule[i].ticketsNo){\n          uint256 ticketsLeft = _ticketSchedule[i].ticketsNo - _ticketSchedule[i].ticketsUsed;\n          if(ticketsLeft > ticketsPending){\n            totalPrice = ticketsPending*_ticketSchedule[i].price;\n            ticketsPending = 0;\n            _ticketSchedule[i].ticketsUsed += ticketsPending;\n          } else {\n            totalPrice = ticketsLeft*_ticketSchedule[i].price;\n            ticketsPending = ticketsPending - ticketsLeft;\n            _ticketSchedule[i].ticketsUsed += ticketsLeft;\n          }\n          ticketScheduleBook[eventId][i] = _ticketSchedule[i];\n          if(ticketsPending == 0){\n            break;\n          }\n      }\n    }\n    for(uint256 i=0; i< _noOfTickets; i++){\n      _eventDetails.ticketsSold +=1;\n      TicketNFTInterface(_eventDetails.nftContractAddress).mintTicketNFT(\n          _eventDetails.ticketsSold,\n          msg.sender\n      );\n    }\n    require(msg.value >= totalPrice, \"Tickets require more funds\");\n    eventDetailsBook[_eventId] = _eventDetails;\n  }\n\n  function markEventAttendance(uint256 _eventId, uint256 _ticketId) external virtual{\n    eventDetails memory _eventDetails = eventDetailsBook[_eventId];\n    address nftOwner = TicketNFTInterface(_eventDetails.nftContractAddress).ownerOf(_ticketId);\n    require(\n      nftOwner == msg.sender &&\n      block.timestamp >= _eventDetails.eventStartTime &&\n      block.timestamp < (_eventDetails.eventStartTime + _eventDetails.eventDuration) &&\n      !(_eventDetails.isEventCancelled), \"Only User owning the NFT can mark the attendance during the event\"\n    );\n    _eventDetails.totalAttendees +=1;\n    eventDetailsBook[_eventId] = _eventDetails;\n    TicketNFTInterface(_eventDetails.nftContractAddress).burnTicketNFT(_ticketId);\n  }\n\n  function getEventEarnings(uint256 _eventId) external virtual{\n    eventDetails memory _eventDetails = eventDetailsBook[_eventId];\n    ticketSchedule[] memory _ticketSchedule = ticketScheduleBook[_eventId];\n    require(\n      msg.sender == _eventDetails.eventHost &&\n      block.timestamp > (_eventDetails.eventStartTime + _eventDetails.eventDuration) &&\n      !(_eventDetails.isEventCancelled) &&\n      !(_eventDetails.isPaymentComplete), \"Only Owner can take the earning after the event is over\"\n    );\n    uint256 ticketsPrice = 0;\n    for(uint256 i=0; i < _ticketSchedule.length; i++){\n      ticketsPrice+=_ticketSchedule[i].ticketsUsed*_ticketSchedule[i].price;\n    }\n    (payable(msg.sender)).transfer(ticketsPrice);\n    _eventDetails.isPaymentComplete = true;\n    eventDetailsBook[_eventId] = _eventDetails;\n  }\n\n  function redeemCancelledEventTicket(uint256 _eventId, uint256[] calldata _ticketIds) external virtual {\n    eventDetails memory _eventDetails = eventDetailsBook[_eventId];\n    ticketSchedule[] memory _ticketSchedule = ticketScheduleBook[_eventId];\n    uint256 totalRefundPrice = 0;\n    uint256 totalTickets = 0;\n    require(\n      _eventDetails.isEventCancelled, \"Only cancelled events can be redeemed.\"\n    );\n    for (uint256 i=0;i<_ticketIds.length;i++){\n      address nftOwner = TicketNFTInterface(_eventDetails.nftContractAddress).ownerOf(_ticketIds[i]);\n      require(\n        nftOwner == msg.sender, \"Only ticket owner can ask for refund.\"\n      );\n      for(uint256 j=0; j<_ticketSchedule.length; j++){\n        totalTickets+=_ticketSchedule[j].ticketsNo;\n        if(totalTickets >= _ticketIds[i]){\n          totalRefundPrice+=_ticketSchedule[j].price;\n          break;\n        }\n      }\n      TicketNFTInterface(_eventDetails.nftContractAddress).burnTicketNFT(_ticketIds[i]);\n    }\n    address payable receiver = payable(msg.sender);\n    receiver.transfer(totalRefundPrice);\n  }\n\n  function resellTicket(uint256 _eventId, uint256 _ticketId, uint256 _price) external virtual payable {\n    eventDetails memory _eventDetails = eventDetailsBook[_eventId];\n    address nftOwner = TicketNFTInterface(_eventDetails.nftContractAddress).ownerOf(_ticketId);\n\n    require(\n      _eventDetails.eventHost != address(0) &&\n      _eventDetails.eventStartTime > block.timestamp &&\n      nftOwner == msg.sender &&\n      _price>0 &&\n      block.timestamp >= _eventDetails.resellStartTime &&\n      !(_eventDetails.isEventCancelled), \"Invalid Input\"\n    );\n    tradeId += 1;\n    tradeDetailsBook[tradeId] = tradeDetails(\n      msg.sender,\n      _eventId,\n      _ticketId,\n      _price,\n      false,\n      false\n    );\n    TicketNFTInterface(_eventDetails.nftContractAddress).transferFrom(msg.sender, address(this), _ticketId);\n  }\n\n  function cancelresellTicketOrder(uint256 _tradeId) external virtual{\n    tradeDetails memory _tradeDetails = tradeDetailsBook[_tradeId];\n    eventDetails memory _eventDetails = eventDetailsBook[_tradeDetails.eventId];\n    address nftOwner = TicketNFTInterface(_eventDetails.nftContractAddress).ownerOf(_tradeDetails.ticketId);\n    require(\n      _tradeDetails.orderCreator != address(0) &&\n      _tradeDetails.orderCreator == msg.sender &&\n      !(_tradeDetails.isOrderCancelled) &&\n      !(_tradeDetails.orderFulfilled) &&\n      nftOwner == address(this) , \"Order can only be cancelled by the order creator or order is cancelled or fulfilled\"\n    );\n    _tradeDetails.isOrderCancelled = true;\n    TicketNFTInterface(_eventDetails.nftContractAddress).transferFrom(address(this), msg.sender, _tradeDetails.ticketId);\n    tradeDetailsBook[_tradeId] = _tradeDetails;\n  }\n\n  function buyResellTicket(uint256 _tradeId) external virtual payable{\n    tradeDetails memory _tradeDetails = tradeDetailsBook[_tradeId];\n    eventDetails memory _eventDetails = eventDetailsBook[_tradeDetails.eventId];\n    address nftOwner = TicketNFTInterface(_eventDetails.nftContractAddress).ownerOf(_tradeDetails.ticketId);\n\n    require(\n      _tradeDetails.orderCreator != address(0) &&\n      nftOwner == address(this) && \n      _tradeDetails.orderCreator != msg.sender &&\n      !(_tradeDetails.isOrderCancelled) &&\n      !(_tradeDetails.orderFulfilled) &&\n      _eventDetails.eventStartTime > block.timestamp &&\n      block.timestamp >= _eventDetails.resellStartTime, \"Order should be in active state and the ticketing event should not have started.\"\n    );\n\n    TicketNFTInterface(_eventDetails.nftContractAddress).transferFrom(address(this), msg.sender, _tradeDetails.ticketId);\n    payable(address(this)).transfer(_tradeDetails.price);\n    (payable(msg.sender)).transfer(_tradeDetails.price);\n    _tradeDetails.orderFulfilled = true;\n    tradeDetailsBook[_tradeId] = _tradeDetails;\n  }\n\n  /// @notice Function uses EIP-1167 implementation\n  function create(address _target) internal returns (address result) {\n      bytes20 targetBytes = bytes20(_target);\n      assembly {\n          let clone := mload(0x40)\n          mstore(\n              clone,\n              0x3d602d80600a3d3981f3363d3d373d3d3d363d73000000000000000000000000\n          )\n          mstore(add(clone, 0x14), targetBytes)\n          mstore(\n              add(clone, 0x28),\n              0x5af43d82803e903d91602b57fd5bf30000000000000000000000000000000000\n          )\n          result := create(0, clone, 0x37)\n      }\n  }\n\n  function contractBalance() public view returns(uint256) {\n    return address(this).balance;\n  }\n}",
  "sourcePath": "/Users/raghukapur/private-projects/EventManagementSystem/contracts/EventManagement.sol",
  "compiler": {
    "name": "solc",
    "version": "0.8.4+commit.c7e474f2.Emscripten.clang"
  },
  "schemaVersion": "3.4.4",
  "updatedAt": "2022-07-13T12:52:55.990Z",
  "devdoc": {
    "kind": "dev",
    "methods": {},
    "version": 1
  },
  "userdoc": {
    "kind": "user",
    "methods": {},
    "version": 1
  }
}