{
  "contractName": "EventManagement",
  "abi": [
    {
      "inputs": [
        {
          "internalType": "address",
          "name": "_nft",
          "type": "address"
        }
      ],
      "stateMutability": "nonpayable",
      "type": "constructor"
    },
    {
      "inputs": [
        {
          "internalType": "uint256",
          "name": "",
          "type": "uint256"
        }
      ],
      "name": "eventDetailsBook",
      "outputs": [
        {
          "internalType": "address",
          "name": "eventHost",
          "type": "address"
        },
        {
          "internalType": "uint256",
          "name": "eventStartTime",
          "type": "uint256"
        },
        {
          "internalType": "address",
          "name": "paymentAddress",
          "type": "address"
        },
        {
          "internalType": "uint256",
          "name": "eventDuration",
          "type": "uint256"
        },
        {
          "internalType": "uint256",
          "name": "ticketsPerUser",
          "type": "uint256"
        },
        {
          "internalType": "string",
          "name": "eventName",
          "type": "string"
        },
        {
          "internalType": "uint256",
          "name": "totalAttendees",
          "type": "uint256"
        },
        {
          "internalType": "uint256",
          "name": "ticketsSold",
          "type": "uint256"
        },
        {
          "internalType": "bool",
          "name": "isEventCancelled",
          "type": "bool"
        },
        {
          "internalType": "bool",
          "name": "isPaymentComplete",
          "type": "bool"
        },
        {
          "internalType": "uint256",
          "name": "resellStartTime",
          "type": "uint256"
        },
        {
          "internalType": "address",
          "name": "nftContractAddress",
          "type": "address"
        }
      ],
      "stateMutability": "view",
      "type": "function"
    },
    {
      "inputs": [],
      "name": "eventId",
      "outputs": [
        {
          "internalType": "uint256",
          "name": "",
          "type": "uint256"
        }
      ],
      "stateMutability": "view",
      "type": "function"
    },
    {
      "inputs": [],
      "name": "owner",
      "outputs": [
        {
          "internalType": "address payable",
          "name": "",
          "type": "address"
        }
      ],
      "stateMutability": "view",
      "type": "function"
    },
    {
      "inputs": [],
      "name": "ticketNFT",
      "outputs": [
        {
          "internalType": "address",
          "name": "",
          "type": "address"
        }
      ],
      "stateMutability": "view",
      "type": "function"
    },
    {
      "inputs": [
        {
          "internalType": "uint256",
          "name": "",
          "type": "uint256"
        },
        {
          "internalType": "uint256",
          "name": "",
          "type": "uint256"
        }
      ],
      "name": "ticketScheduleBook",
      "outputs": [
        {
          "internalType": "uint256",
          "name": "ticketsNo",
          "type": "uint256"
        },
        {
          "internalType": "string",
          "name": "ticketScheduleName",
          "type": "string"
        },
        {
          "internalType": "uint256",
          "name": "price",
          "type": "uint256"
        },
        {
          "internalType": "uint256",
          "name": "ticketsUsed",
          "type": "uint256"
        }
      ],
      "stateMutability": "view",
      "type": "function"
    },
    {
      "inputs": [
        {
          "internalType": "uint256",
          "name": "",
          "type": "uint256"
        }
      ],
      "name": "tradeDetailsBook",
      "outputs": [
        {
          "internalType": "address",
          "name": "orderCreator",
          "type": "address"
        },
        {
          "internalType": "uint256",
          "name": "eventId",
          "type": "uint256"
        },
        {
          "internalType": "uint256",
          "name": "ticketId",
          "type": "uint256"
        },
        {
          "internalType": "uint256",
          "name": "price",
          "type": "uint256"
        },
        {
          "internalType": "bool",
          "name": "orderFulfilled",
          "type": "bool"
        },
        {
          "internalType": "bool",
          "name": "isOrderCancelled",
          "type": "bool"
        }
      ],
      "stateMutability": "view",
      "type": "function"
    },
    {
      "inputs": [],
      "name": "tradeId",
      "outputs": [
        {
          "internalType": "uint256",
          "name": "",
          "type": "uint256"
        }
      ],
      "stateMutability": "view",
      "type": "function"
    },
    {
      "inputs": [
        {
          "internalType": "uint256",
          "name": "_eventStartTime",
          "type": "uint256"
        },
        {
          "internalType": "address",
          "name": "_paymentAddress",
          "type": "address"
        },
        {
          "internalType": "uint256",
          "name": "_eventDuration",
          "type": "uint256"
        },
        {
          "internalType": "uint256",
          "name": "_ticketsPerUser",
          "type": "uint256"
        },
        {
          "internalType": "string",
          "name": "_eventName",
          "type": "string"
        },
        {
          "internalType": "uint256",
          "name": "_resellStartTime",
          "type": "uint256"
        },
        {
          "internalType": "string[]",
          "name": "_ticketScheduleNames",
          "type": "string[]"
        },
        {
          "internalType": "uint256[]",
          "name": "_noOfTickets",
          "type": "uint256[]"
        },
        {
          "internalType": "uint256[]",
          "name": "_price",
          "type": "uint256[]"
        }
      ],
      "name": "createEvent",
      "outputs": [],
      "stateMutability": "nonpayable",
      "type": "function"
    },
    {
      "inputs": [
        {
          "internalType": "uint256",
          "name": "_eventId",
          "type": "uint256"
        }
      ],
      "name": "cancelEvent",
      "outputs": [],
      "stateMutability": "nonpayable",
      "type": "function"
    },
    {
      "inputs": [
        {
          "internalType": "uint256",
          "name": "_eventId",
          "type": "uint256"
        },
        {
          "internalType": "uint256",
          "name": "_noOfTickets",
          "type": "uint256"
        }
      ],
      "name": "buyEventTicket",
      "outputs": [],
      "stateMutability": "payable",
      "type": "function"
    },
    {
      "inputs": [
        {
          "internalType": "uint256",
          "name": "_eventId",
          "type": "uint256"
        },
        {
          "internalType": "uint256",
          "name": "_ticketId",
          "type": "uint256"
        }
      ],
      "name": "markEventAttendance",
      "outputs": [],
      "stateMutability": "nonpayable",
      "type": "function"
    },
    {
      "inputs": [
        {
          "internalType": "uint256",
          "name": "_eventId",
          "type": "uint256"
        }
      ],
      "name": "getEventEarnings",
      "outputs": [],
      "stateMutability": "nonpayable",
      "type": "function"
    },
    {
      "inputs": [
        {
          "internalType": "uint256",
          "name": "_eventId",
          "type": "uint256"
        },
        {
          "internalType": "uint256[]",
          "name": "_ticketIds",
          "type": "uint256[]"
        }
      ],
      "name": "redeemCancelledEventTicket",
      "outputs": [],
      "stateMutability": "payable",
      "type": "function"
    },
    {
      "inputs": [
        {
          "internalType": "uint256",
          "name": "_eventId",
          "type": "uint256"
        },
        {
          "internalType": "uint256",
          "name": "_ticketId",
          "type": "uint256"
        },
        {
          "internalType": "uint256",
          "name": "_price",
          "type": "uint256"
        }
      ],
      "name": "resellTicket",
      "outputs": [],
      "stateMutability": "payable",
      "type": "function"
    },
    {
      "inputs": [
        {
          "internalType": "uint256",
          "name": "_tradeId",
          "type": "uint256"
        }
      ],
      "name": "cancelresellTicketOrder",
      "outputs": [],
      "stateMutability": "nonpayable",
      "type": "function"
    },
    {
      "inputs": [
        {
          "internalType": "uint256",
          "name": "_tradeId",
          "type": "uint256"
        }
      ],
      "name": "buyResellTicket",
      "outputs": [],
      "stateMutability": "payable",
      "type": "function"
    }
  ],
  "bytecode": "0x60806040523480156200001157600080fd5b506040516200575e3803806200575e8339818101604052810190620000379190620000e6565b80600260006101000a81548173ffffffffffffffffffffffffffffffffffffffff021916908373ffffffffffffffffffffffffffffffffffffffff16021790555033600660006101000a81548173ffffffffffffffffffffffffffffffffffffffff021916908373ffffffffffffffffffffffffffffffffffffffff1602179055506000808190555060006001819055505062000160565b600081519050620000e08162000146565b92915050565b600060208284031215620000f957600080fd5b60006200010984828501620000cf565b91505092915050565b60006200011f8262000126565b9050919050565b600073ffffffffffffffffffffffffffffffffffffffff82169050919050565b620001518162000112565b81146200015d57600080fd5b50565b6155ee80620001706000396000f3fe6080604052600436106100f35760003560e01c80638fa9e5bf1161008a578063d4ac9f3911610059578063d4ac9f3914610321578063d8fe0c071461034a578063f4b18b7d14610366578063fb45e4ea1461038f576100f3565b80638fa9e5bf14610271578063a17d4c141461029a578063b393391b146102b6578063c0519690146102e1576100f3565b806350494afd116100c657806350494afd14610193578063535e63ce146101d5578063692b3a3b146101fe5780638da5cb5b14610246576100f3565b806302c5115b146100f8578063089cdd0c146101235780631489a2b01461014e5780633f69babd1461016a575b600080fd5b34801561010457600080fd5b5061010d6103ab565b60405161011a9190614dcb565b60405180910390f35b34801561012f57600080fd5b506101386103b1565b6040516101459190614dcb565b60405180910390f35b6101686004803603810190610163919061482f565b6103b7565b005b34801561017657600080fd5b50610191600480360381019061018c9190614623565b610916565b005b34801561019f57600080fd5b506101ba60048036038101906101b59190614623565b610d73565b6040516101cc96959493929190614be8565b60405180910390f35b3480156101e157600080fd5b506101fc60048036038101906101f79190614675565b610de9565b005b34801561020a57600080fd5b5061022560048036038101906102209190614623565b6114ca565b60405161023d9c9b9a99989796959493929190614b27565b60405180910390f35b34801561025257600080fd5b5061025b61162c565b6040516102689190614a9e565b60405180910390f35b34801561027d57600080fd5b5061029860048036038101906102939190614623565b611652565b005b6102b460048036038101906102af919061479b565b611c74565b005b3480156102c257600080fd5b506102cb61237d565b6040516102d89190614a83565b60405180910390f35b3480156102ed57600080fd5b50610308600480360381019061030391906147f3565b6123a3565b6040516103189493929190614e0f565b60405180910390f35b34801561032d57600080fd5b50610348600480360381019061034391906147f3565b612478565b005b610364600480360381019061035f9190614623565b6129f9565b005b34801561037257600080fd5b5061038d60048036038101906103889190614623565b6130f4565b005b6103a960048036038101906103a491906147f3565b613792565b005b60015481565b60005481565b600060036000858152602001908152602001600020604051806101800160405290816000820160009054906101000a900473ffffffffffffffffffffffffffffffffffffffff1673ffffffffffffffffffffffffffffffffffffffff1673ffffffffffffffffffffffffffffffffffffffff168152602001600182015481526020016002820160009054906101000a900473ffffffffffffffffffffffffffffffffffffffff1673ffffffffffffffffffffffffffffffffffffffff1673ffffffffffffffffffffffffffffffffffffffff16815260200160038201548152602001600482015481526020016005820180546104b2906150db565b80601f01602080910402602001604051908101604052809291908181526020018280546104de906150db565b801561052b5780601f106105005761010080835404028352916020019161052b565b820191906000526020600020905b81548152906001019060200180831161050e57829003601f168201915b5050505050815260200160068201548152602001600782015481526020016008820160009054906101000a900460ff161515151581526020016008820160019054906101000a900460ff1615151515815260200160098201548152602001600a820160009054906101000a900473ffffffffffffffffffffffffffffffffffffffff1673ffffffffffffffffffffffffffffffffffffffff1673ffffffffffffffffffffffffffffffffffffffff16815250509050600081610160015173ffffffffffffffffffffffffffffffffffffffff16636352211e856040518263ffffffff1660e01b81526004016106209190614dcb565b602060405180830381600087803b15801561063a57600080fd5b505af115801561064e573d6000803e3d6000fd5b505050506040513d601f19601f8201168201806040525081019061067291906145fa565b9050600073ffffffffffffffffffffffffffffffffffffffff16826000015173ffffffffffffffffffffffffffffffffffffffff16141580156106b85750428260200151115b80156106ef57503373ffffffffffffffffffffffffffffffffffffffff168173ffffffffffffffffffffffffffffffffffffffff16145b80156106fb5750600083115b801561070c57508161014001514210155b801561071b5750816101000151155b61075a576040517f08c379a000000000000000000000000000000000000000000000000000000000815260040161075190614d4b565b60405180910390fd5b600180600082825461076c9190614f25565b925050819055506040518060c001604052803373ffffffffffffffffffffffffffffffffffffffff1681526020018681526020018581526020018481526020016000151581526020016000151581525060046000600154815260200190815260200160002060008201518160000160006101000a81548173ffffffffffffffffffffffffffffffffffffffff021916908373ffffffffffffffffffffffffffffffffffffffff16021790555060208201518160010155604082015181600201556060820151816003015560808201518160040160006101000a81548160ff02191690831515021790555060a08201518160040160016101000a81548160ff02191690831515021790555090505081610160015173ffffffffffffffffffffffffffffffffffffffff166323b872dd33600660009054906101000a900473ffffffffffffffffffffffffffffffffffffffff16876040518463ffffffff1660e01b81526004016108dd93929190614af0565b600060405180830381600087803b1580156108f757600080fd5b505af115801561090b573d6000803e3d6000fd5b505050505050505050565b600060036000838152602001908152602001600020604051806101800160405290816000820160009054906101000a900473ffffffffffffffffffffffffffffffffffffffff1673ffffffffffffffffffffffffffffffffffffffff1673ffffffffffffffffffffffffffffffffffffffff168152602001600182015481526020016002820160009054906101000a900473ffffffffffffffffffffffffffffffffffffffff1673ffffffffffffffffffffffffffffffffffffffff1673ffffffffffffffffffffffffffffffffffffffff1681526020016003820154815260200160048201548152602001600582018054610a11906150db565b80601f0160208091040260200160405190810160405280929190818152602001828054610a3d906150db565b8015610a8a5780601f10610a5f57610100808354040283529160200191610a8a565b820191906000526020600020905b815481529060010190602001808311610a6d57829003601f168201915b5050505050815260200160068201548152602001600782015481526020016008820160009054906101000a900460ff161515151581526020016008820160019054906101000a900460ff1615151515815260200160098201548152602001600a820160009054906101000a900473ffffffffffffffffffffffffffffffffffffffff1673ffffffffffffffffffffffffffffffffffffffff1673ffffffffffffffffffffffffffffffffffffffff16815250509050806000015173ffffffffffffffffffffffffffffffffffffffff163373ffffffffffffffffffffffffffffffffffffffff16148015610b815750806101000151155b8015610b905750428160200151115b610bcf576040517f08c379a0000000000000000000000000000000000000000000000000000000008152600401610bc690614ceb565b60405180910390fd5b8061010001511581610100019015159081151581525050806003600084815260200190815260200160002060008201518160000160006101000a81548173ffffffffffffffffffffffffffffffffffffffff021916908373ffffffffffffffffffffffffffffffffffffffff1602179055506020820151816001015560408201518160020160006101000a81548173ffffffffffffffffffffffffffffffffffffffff021916908373ffffffffffffffffffffffffffffffffffffffff160217905550606082015181600301556080820151816004015560a0820151816005019080519060200190610cc292919061430b565b5060c0820151816006015560e082015181600701556101008201518160080160006101000a81548160ff0219169083151502179055506101208201518160080160016101000a81548160ff021916908315150217905550610140820151816009015561016082015181600a0160006101000a81548173ffffffffffffffffffffffffffffffffffffffff021916908373ffffffffffffffffffffffffffffffffffffffff1602179055509050505050565b60046020528060005260406000206000915090508060000160009054906101000a900473ffffffffffffffffffffffffffffffffffffffff16908060010154908060020154908060030154908060040160009054906101000a900460ff16908060040160019054906101000a900460ff16905086565b4289118015610e255750600073ffffffffffffffffffffffffffffffffffffffff168873ffffffffffffffffffffffffffffffffffffffff1614155b8015610e315750600087115b8015610e3d5750600086115b8015610e4b57506000855114155b610e8a576040517f08c379a0000000000000000000000000000000000000000000000000000000008152600401610e8190614d8b565b60405180910390fd5b6000825114158015610e9d575081518351145b8015610eaa575080518251145b610ee9576040517f08c379a0000000000000000000000000000000000000000000000000000000008152600401610ee090614d8b565b60405180910390fd5b6001600080828254610efb9190614f25565b925050819055506000610f2f600260009054906101000a900473ffffffffffffffffffffffffffffffffffffffff166142a1565b9050600073ffffffffffffffffffffffffffffffffffffffff168173ffffffffffffffffffffffffffffffffffffffff161415610f95577f4e487b7100000000000000000000000000000000000000000000000000000000600052600160045260246000fd5b8073ffffffffffffffffffffffffffffffffffffffff16631307d7c7876040518263ffffffff1660e01b8152600401610fce9190614c49565b600060405180830381600087803b158015610fe857600080fd5b505af1158015610ffc573d6000803e3d6000fd5b5050505060005b8351811015611298576000848281518110611047577f4e487b7100000000000000000000000000000000000000000000000000000000600052603260045260246000fd5b602002602001015111801561109c57506000838281518110611092577f4e487b7100000000000000000000000000000000000000000000000000000000600052603260045260246000fd5b6020026020010151115b80156110ea575060008582815181106110de577f4e487b7100000000000000000000000000000000000000000000000000000000600052603260045260246000fd5b60200260200101515114155b611129576040517f08c379a000000000000000000000000000000000000000000000000000000000815260040161112090614ccb565b60405180910390fd5b60056000805481526020019081526020016000206040518060800160405280868481518110611181577f4e487b7100000000000000000000000000000000000000000000000000000000600052603260045260246000fd5b602002602001015181526020018784815181106111c7577f4e487b7100000000000000000000000000000000000000000000000000000000600052603260045260246000fd5b6020026020010151815260200185848151811061120d577f4e487b7100000000000000000000000000000000000000000000000000000000600052603260045260246000fd5b602002602001015181526020016000815250908060018154018082558091505060019003906000526020600020906004020160009091909190915060008201518160000155602082015181600101908051906020019061126e92919061430b565b506040820151816002015560608201518160030155505080806112909061513e565b915050611003565b506040518061018001604052803373ffffffffffffffffffffffffffffffffffffffff1681526020018b81526020018a73ffffffffffffffffffffffffffffffffffffffff16815260200189815260200188815260200187815260200160008152602001600081526020016000151581526020016000151581526020018681526020018273ffffffffffffffffffffffffffffffffffffffff16815250600360008054815260200190815260200160002060008201518160000160006101000a81548173ffffffffffffffffffffffffffffffffffffffff021916908373ffffffffffffffffffffffffffffffffffffffff1602179055506020820151816001015560408201518160020160006101000a81548173ffffffffffffffffffffffffffffffffffffffff021916908373ffffffffffffffffffffffffffffffffffffffff160217905550606082015181600301556080820151816004015560a082015181600501908051906020019061141192919061430b565b5060c0820151816006015560e082015181600701556101008201518160080160006101000a81548160ff0219169083151502179055506101208201518160080160016101000a81548160ff021916908315150217905550610140820151816009015561016082015181600a0160006101000a81548173ffffffffffffffffffffffffffffffffffffffff021916908373ffffffffffffffffffffffffffffffffffffffff16021790555090505050505050505050505050565b60036020528060005260406000206000915090508060000160009054906101000a900473ffffffffffffffffffffffffffffffffffffffff16908060010154908060020160009054906101000a900473ffffffffffffffffffffffffffffffffffffffff169080600301549080600401549080600501805461154b906150db565b80601f0160208091040260200160405190810160405280929190818152602001828054611577906150db565b80156115c45780601f10611599576101008083540402835291602001916115c4565b820191906000526020600020905b8154815290600101906020018083116115a757829003601f168201915b5050505050908060060154908060070154908060080160009054906101000a900460ff16908060080160019054906101000a900460ff169080600901549080600a0160009054906101000a900473ffffffffffffffffffffffffffffffffffffffff1690508c565b600660009054906101000a900473ffffffffffffffffffffffffffffffffffffffff1681565b6000600460008381526020019081526020016000206040518060c00160405290816000820160009054906101000a900473ffffffffffffffffffffffffffffffffffffffff1673ffffffffffffffffffffffffffffffffffffffff1673ffffffffffffffffffffffffffffffffffffffff1681526020016001820154815260200160028201548152602001600382015481526020016004820160009054906101000a900460ff161515151581526020016004820160019054906101000a900460ff161515151581525050905060006003600083602001518152602001908152602001600020604051806101800160405290816000820160009054906101000a900473ffffffffffffffffffffffffffffffffffffffff1673ffffffffffffffffffffffffffffffffffffffff1673ffffffffffffffffffffffffffffffffffffffff168152602001600182015481526020016002820160009054906101000a900473ffffffffffffffffffffffffffffffffffffffff1673ffffffffffffffffffffffffffffffffffffffff1673ffffffffffffffffffffffffffffffffffffffff168152602001600382015481526020016004820154815260200160058201805461181d906150db565b80601f0160208091040260200160405190810160405280929190818152602001828054611849906150db565b80156118965780601f1061186b57610100808354040283529160200191611896565b820191906000526020600020905b81548152906001019060200180831161187957829003601f168201915b5050505050815260200160068201548152602001600782015481526020016008820160009054906101000a900460ff161515151581526020016008820160019054906101000a900460ff1615151515815260200160098201548152602001600a820160009054906101000a900473ffffffffffffffffffffffffffffffffffffffff1673ffffffffffffffffffffffffffffffffffffffff1673ffffffffffffffffffffffffffffffffffffffff16815250509050600081610160015173ffffffffffffffffffffffffffffffffffffffff16636352211e84604001516040518263ffffffff1660e01b815260040161198f9190614dcb565b602060405180830381600087803b1580156119a957600080fd5b505af11580156119bd573d6000803e3d6000fd5b505050506040513d601f19601f820116820180604052508101906119e191906145fa565b9050600073ffffffffffffffffffffffffffffffffffffffff16836000015173ffffffffffffffffffffffffffffffffffffffff1614158015611a5357503373ffffffffffffffffffffffffffffffffffffffff16836000015173ffffffffffffffffffffffffffffffffffffffff16145b8015611a6157508260a00151155b8015611a6f57508260800151155b8015611ac85750600660009054906101000a900473ffffffffffffffffffffffffffffffffffffffff1673ffffffffffffffffffffffffffffffffffffffff168173ffffffffffffffffffffffffffffffffffffffff16145b611b07576040517f08c379a0000000000000000000000000000000000000000000000000000000008152600401611afe90614d0b565b60405180910390fd5b60018360a001901515908115158152505081610160015173ffffffffffffffffffffffffffffffffffffffff166323b872dd600660009054906101000a900473ffffffffffffffffffffffffffffffffffffffff163386604001516040518463ffffffff1660e01b8152600401611b8093929190614ab9565b600060405180830381600087803b158015611b9a57600080fd5b505af1158015611bae573d6000803e3d6000fd5b50505050826004600086815260200190815260200160002060008201518160000160006101000a81548173ffffffffffffffffffffffffffffffffffffffff021916908373ffffffffffffffffffffffffffffffffffffffff16021790555060208201518160010155604082015181600201556060820151816003015560808201518160040160006101000a81548160ff02191690831515021790555060a08201518160040160016101000a81548160ff02191690831515021790555090505050505050565b600060036000858152602001908152602001600020604051806101800160405290816000820160009054906101000a900473ffffffffffffffffffffffffffffffffffffffff1673ffffffffffffffffffffffffffffffffffffffff1673ffffffffffffffffffffffffffffffffffffffff168152602001600182015481526020016002820160009054906101000a900473ffffffffffffffffffffffffffffffffffffffff1673ffffffffffffffffffffffffffffffffffffffff1673ffffffffffffffffffffffffffffffffffffffff1681526020016003820154815260200160048201548152602001600582018054611d6f906150db565b80601f0160208091040260200160405190810160405280929190818152602001828054611d9b906150db565b8015611de85780601f10611dbd57610100808354040283529160200191611de8565b820191906000526020600020905b815481529060010190602001808311611dcb57829003601f168201915b5050505050815260200160068201548152602001600782015481526020016008820160009054906101000a900460ff161515151581526020016008820160019054906101000a900460ff1615151515815260200160098201548152602001600a820160009054906101000a900473ffffffffffffffffffffffffffffffffffffffff1673ffffffffffffffffffffffffffffffffffffffff1673ffffffffffffffffffffffffffffffffffffffff16815250509050600060056000868152602001908152602001600020805480602002602001604051908101604052809291908181526020016000905b82821015611fb4578382906000526020600020906004020160405180608001604052908160008201548152602001600182018054611f0f906150db565b80601f0160208091040260200160405190810160405280929190818152602001828054611f3b906150db565b8015611f885780601f10611f5d57610100808354040283529160200191611f88565b820191906000526020600020905b815481529060010190602001808311611f6b57829003601f168201915b505050505081526020016002820154815260200160038201548152505081526020019060010190611ed2565b5050505090506000826101000151612001576040517f08c379a0000000000000000000000000000000000000000000000000000000008152600401611ff890614c6b565b60405180910390fd5b60005b8585905081101561232d57600084610160015173ffffffffffffffffffffffffffffffffffffffff16636352211e88888581811061206b577f4e487b7100000000000000000000000000000000000000000000000000000000600052603260045260246000fd5b905060200201356040518263ffffffff1660e01b815260040161208e9190614dcb565b602060405180830381600087803b1580156120a857600080fd5b505af11580156120bc573d6000803e3d6000fd5b505050506040513d601f19601f820116820180604052508101906120e091906145fa565b90503373ffffffffffffffffffffffffffffffffffffffff168173ffffffffffffffffffffffffffffffffffffffff1614612150576040517f08c379a000000000000000000000000000000000000000000000000000000000815260040161214790614dab565b60405180910390fd5b60005b845181101561224c57878784818110612195577f4e487b7100000000000000000000000000000000000000000000000000000000600052603260045260246000fd5b905060200201358582815181106121d5577f4e487b7100000000000000000000000000000000000000000000000000000000600052603260045260246000fd5b602002602001015160000151106122395784818151811061221f577f4e487b7100000000000000000000000000000000000000000000000000000000600052603260045260246000fd5b602002602001015160400151846122369190614f25565b93505b80806122449061513e565b915050612153565b50600260009054906101000a900473ffffffffffffffffffffffffffffffffffffffff1673ffffffffffffffffffffffffffffffffffffffff1663714951a38888858181106122c4577f4e487b7100000000000000000000000000000000000000000000000000000000600052603260045260246000fd5b905060200201356040518263ffffffff1660e01b81526004016122e79190614dcb565b600060405180830381600087803b15801561230157600080fd5b505af1158015612315573d6000803e3d6000fd5b505050505080806123259061513e565b915050612004565b503373ffffffffffffffffffffffffffffffffffffffff166108fc829081150290604051600060405180830381858888f19350505050158015612374573d6000803e3d6000fd5b50505050505050565b600260009054906101000a900473ffffffffffffffffffffffffffffffffffffffff1681565b600560205281600052604060002081815481106123bf57600080fd5b9060005260206000209060040201600091509150508060000154908060010180546123e9906150db565b80601f0160208091040260200160405190810160405280929190818152602001828054612415906150db565b80156124625780601f1061243757610100808354040283529160200191612462565b820191906000526020600020905b81548152906001019060200180831161244557829003601f168201915b5050505050908060020154908060030154905084565b600060036000848152602001908152602001600020604051806101800160405290816000820160009054906101000a900473ffffffffffffffffffffffffffffffffffffffff1673ffffffffffffffffffffffffffffffffffffffff1673ffffffffffffffffffffffffffffffffffffffff168152602001600182015481526020016002820160009054906101000a900473ffffffffffffffffffffffffffffffffffffffff1673ffffffffffffffffffffffffffffffffffffffff1673ffffffffffffffffffffffffffffffffffffffff1681526020016003820154815260200160048201548152602001600582018054612573906150db565b80601f016020809104026020016040519081016040528092919081815260200182805461259f906150db565b80156125ec5780601f106125c1576101008083540402835291602001916125ec565b820191906000526020600020905b8154815290600101906020018083116125cf57829003601f168201915b5050505050815260200160068201548152602001600782015481526020016008820160009054906101000a900460ff161515151581526020016008820160019054906101000a900460ff1615151515815260200160098201548152602001600a820160009054906101000a900473ffffffffffffffffffffffffffffffffffffffff1673ffffffffffffffffffffffffffffffffffffffff1673ffffffffffffffffffffffffffffffffffffffff16815250509050600081610160015173ffffffffffffffffffffffffffffffffffffffff16636352211e846040518263ffffffff1660e01b81526004016126e19190614dcb565b602060405180830381600087803b1580156126fb57600080fd5b505af115801561270f573d6000803e3d6000fd5b505050506040513d601f19601f8201168201806040525081019061273391906145fa565b90503373ffffffffffffffffffffffffffffffffffffffff168173ffffffffffffffffffffffffffffffffffffffff16148015612774575081602001514210155b801561279257508160600151826020015161278f9190614f25565b42105b80156127a15750816101000151155b6127e0576040517f08c379a00000000000000000000000000000000000000000000000000000000081526004016127d790614d6b565b60405180910390fd5b60018260c0018181516127f39190614f25565b91508181525050816003600086815260200190815260200160002060008201518160000160006101000a81548173ffffffffffffffffffffffffffffffffffffffff021916908373ffffffffffffffffffffffffffffffffffffffff1602179055506020820151816001015560408201518160020160006101000a81548173ffffffffffffffffffffffffffffffffffffffff021916908373ffffffffffffffffffffffffffffffffffffffff160217905550606082015181600301556080820151816004015560a08201518160050190805190602001906128d692919061430b565b5060c0820151816006015560e082015181600701556101008201518160080160006101000a81548160ff0219169083151502179055506101208201518160080160016101000a81548160ff021916908315150217905550610140820151816009015561016082015181600a0160006101000a81548173ffffffffffffffffffffffffffffffffffffffff021916908373ffffffffffffffffffffffffffffffffffffffff16021790555090505081610160015173ffffffffffffffffffffffffffffffffffffffff1663714951a3846040518263ffffffff1660e01b81526004016129c19190614dcb565b600060405180830381600087803b1580156129db57600080fd5b505af11580156129ef573d6000803e3d6000fd5b5050505050505050565b6000600460008381526020019081526020016000206040518060c00160405290816000820160009054906101000a900473ffffffffffffffffffffffffffffffffffffffff1673ffffffffffffffffffffffffffffffffffffffff1673ffffffffffffffffffffffffffffffffffffffff1681526020016001820154815260200160028201548152602001600382015481526020016004820160009054906101000a900460ff161515151581526020016004820160019054906101000a900460ff161515151581525050905060006003600083602001518152602001908152602001600020604051806101800160405290816000820160009054906101000a900473ffffffffffffffffffffffffffffffffffffffff1673ffffffffffffffffffffffffffffffffffffffff1673ffffffffffffffffffffffffffffffffffffffff168152602001600182015481526020016002820160009054906101000a900473ffffffffffffffffffffffffffffffffffffffff1673ffffffffffffffffffffffffffffffffffffffff1673ffffffffffffffffffffffffffffffffffffffff1681526020016003820154815260200160048201548152602001600582018054612bc4906150db565b80601f0160208091040260200160405190810160405280929190818152602001828054612bf0906150db565b8015612c3d5780601f10612c1257610100808354040283529160200191612c3d565b820191906000526020600020905b815481529060010190602001808311612c2057829003601f168201915b5050505050815260200160068201548152602001600782015481526020016008820160009054906101000a900460ff161515151581526020016008820160019054906101000a900460ff1615151515815260200160098201548152602001600a820160009054906101000a900473ffffffffffffffffffffffffffffffffffffffff1673ffffffffffffffffffffffffffffffffffffffff1673ffffffffffffffffffffffffffffffffffffffff16815250509050600081610160015173ffffffffffffffffffffffffffffffffffffffff16636352211e84604001516040518263ffffffff1660e01b8152600401612d369190614dcb565b602060405180830381600087803b158015612d5057600080fd5b505af1158015612d64573d6000803e3d6000fd5b505050506040513d601f19601f82011682018060405250810190612d8891906145fa565b9050600073ffffffffffffffffffffffffffffffffffffffff16836000015173ffffffffffffffffffffffffffffffffffffffff1614158015612e185750600660009054906101000a900473ffffffffffffffffffffffffffffffffffffffff1673ffffffffffffffffffffffffffffffffffffffff168173ffffffffffffffffffffffffffffffffffffffff16145b8015612e5457503373ffffffffffffffffffffffffffffffffffffffff16836000015173ffffffffffffffffffffffffffffffffffffffff1614155b8015612e6257508260a00151155b8015612e7057508260800151155b8015612e7f5750428260200151115b8015612e9057508161014001514210155b612ecf576040517f08c379a0000000000000000000000000000000000000000000000000000000008152600401612ec690614cab565b60405180910390fd5b81610160015173ffffffffffffffffffffffffffffffffffffffff166323b872dd600660009054906101000a900473ffffffffffffffffffffffffffffffffffffffff163386604001516040518463ffffffff1660e01b8152600401612f3793929190614ab9565b600060405180830381600087803b158015612f5157600080fd5b505af1158015612f65573d6000803e3d6000fd5b50505050600660009054906101000a900473ffffffffffffffffffffffffffffffffffffffff1673ffffffffffffffffffffffffffffffffffffffff166108fc84606001519081150290604051600060405180830381858888f19350505050158015612fd5573d6000803e3d6000fd5b503373ffffffffffffffffffffffffffffffffffffffff166108fc84606001519081150290604051600060405180830381858888f19350505050158015613020573d6000803e3d6000fd5b506001836080019015159081151581525050826004600086815260200190815260200160002060008201518160000160006101000a81548173ffffffffffffffffffffffffffffffffffffffff021916908373ffffffffffffffffffffffffffffffffffffffff16021790555060208201518160010155604082015181600201556060820151816003015560808201518160040160006101000a81548160ff02191690831515021790555060a08201518160040160016101000a81548160ff02191690831515021790555090505050505050565b600060036000838152602001908152602001600020604051806101800160405290816000820160009054906101000a900473ffffffffffffffffffffffffffffffffffffffff1673ffffffffffffffffffffffffffffffffffffffff1673ffffffffffffffffffffffffffffffffffffffff168152602001600182015481526020016002820160009054906101000a900473ffffffffffffffffffffffffffffffffffffffff1673ffffffffffffffffffffffffffffffffffffffff1673ffffffffffffffffffffffffffffffffffffffff16815260200160038201548152602001600482015481526020016005820180546131ef906150db565b80601f016020809104026020016040519081016040528092919081815260200182805461321b906150db565b80156132685780601f1061323d57610100808354040283529160200191613268565b820191906000526020600020905b81548152906001019060200180831161324b57829003601f168201915b5050505050815260200160068201548152602001600782015481526020016008820160009054906101000a900460ff161515151581526020016008820160019054906101000a900460ff1615151515815260200160098201548152602001600a820160009054906101000a900473ffffffffffffffffffffffffffffffffffffffff1673ffffffffffffffffffffffffffffffffffffffff1673ffffffffffffffffffffffffffffffffffffffff16815250509050600060056000848152602001908152602001600020805480602002602001604051908101604052809291908181526020016000905b8282101561343457838290600052602060002090600402016040518060800160405290816000820154815260200160018201805461338f906150db565b80601f01602080910402602001604051908101604052809291908181526020018280546133bb906150db565b80156134085780601f106133dd57610100808354040283529160200191613408565b820191906000526020600020905b8154815290600101906020018083116133eb57829003601f168201915b505050505081526020016002820154815260200160038201548152505081526020019060010190613352565b505050509050816000015173ffffffffffffffffffffffffffffffffffffffff163373ffffffffffffffffffffffffffffffffffffffff1614801561348b5750816060015182602001516134889190614f25565b42115b801561349a5750816101000151155b80156134a95750816101200151155b6134e8576040517f08c379a00000000000000000000000000000000000000000000000000000000081526004016134df90614d2b565b60405180910390fd5b6000805b82518110156135a95782818151811061352e577f4e487b7100000000000000000000000000000000000000000000000000000000600052603260045260246000fd5b602002602001015160400151838281518110613573577f4e487b7100000000000000000000000000000000000000000000000000000000600052603260045260246000fd5b6020026020010151606001516135899190614f7b565b826135949190614f25565b915080806135a19061513e565b9150506134ec565b503373ffffffffffffffffffffffffffffffffffffffff166108fc829081150290604051600060405180830381858888f193505050501580156135f0573d6000803e3d6000fd5b50600183610120019015159081151581525050826003600086815260200190815260200160002060008201518160000160006101000a81548173ffffffffffffffffffffffffffffffffffffffff021916908373ffffffffffffffffffffffffffffffffffffffff1602179055506020820151816001015560408201518160020160006101000a81548173ffffffffffffffffffffffffffffffffffffffff021916908373ffffffffffffffffffffffffffffffffffffffff160217905550606082015181600301556080820151816004015560a08201518160050190805190602001906136df92919061430b565b5060c0820151816006015560e082015181600701556101008201518160080160006101000a81548160ff0219169083151502179055506101208201518160080160016101000a81548160ff021916908315150217905550610140820151816009015561016082015181600a0160006101000a81548173ffffffffffffffffffffffffffffffffffffffff021916908373ffffffffffffffffffffffffffffffffffffffff16021790555090505050505050565b600060036000848152602001908152602001600020604051806101800160405290816000820160009054906101000a900473ffffffffffffffffffffffffffffffffffffffff1673ffffffffffffffffffffffffffffffffffffffff1673ffffffffffffffffffffffffffffffffffffffff168152602001600182015481526020016002820160009054906101000a900473ffffffffffffffffffffffffffffffffffffffff1673ffffffffffffffffffffffffffffffffffffffff1673ffffffffffffffffffffffffffffffffffffffff168152602001600382015481526020016004820154815260200160058201805461388d906150db565b80601f01602080910402602001604051908101604052809291908181526020018280546138b9906150db565b80156139065780601f106138db57610100808354040283529160200191613906565b820191906000526020600020905b8154815290600101906020018083116138e957829003601f168201915b5050505050815260200160068201548152602001600782015481526020016008820160009054906101000a900460ff161515151581526020016008820160019054906101000a900460ff1615151515815260200160098201548152602001600a820160009054906101000a900473ffffffffffffffffffffffffffffffffffffffff1673ffffffffffffffffffffffffffffffffffffffff1673ffffffffffffffffffffffffffffffffffffffff16815250509050600060056000858152602001908152602001600020805480602002602001604051908101604052809291908181526020016000905b82821015613ad2578382906000526020600020906004020160405180608001604052908160008201548152602001600182018054613a2d906150db565b80601f0160208091040260200160405190810160405280929190818152602001828054613a59906150db565b8015613aa65780601f10613a7b57610100808354040283529160200191613aa6565b820191906000526020600020905b815481529060010190602001808311613a8957829003601f168201915b5050505050815260200160028201548152602001600382015481525050815260200190600101906139f0565b505050509050600073ffffffffffffffffffffffffffffffffffffffff16826000015173ffffffffffffffffffffffffffffffffffffffff1614158015613b1c5750428260200151115b8015613b2b5750816101000151155b8015613b3a5750428260200151115b613b79576040517f08c379a0000000000000000000000000000000000000000000000000000000008152600401613b7090614d4b565b60405180910390fd5b6000600260009054906101000a900473ffffffffffffffffffffffffffffffffffffffff1673ffffffffffffffffffffffffffffffffffffffff166370a08231336040518263ffffffff1660e01b8152600401613bd69190614a83565b602060405180830381600087803b158015613bf057600080fd5b505af1158015613c04573d6000803e3d6000fd5b505050506040513d601f19601f82011682018060405250810190613c28919061464c565b90506000805b8351811015613c9c57838181518110613c70577f4e487b7100000000000000000000000000000000000000000000000000000000600052603260045260246000fd5b60200260200101516000015182613c879190614f25565b91508080613c949061513e565b915050613c2e565b5083608001518583613cae9190614f25565b11158015613cca575080858560e00151613cc89190614f25565b105b613d09576040517f08c379a0000000000000000000000000000000000000000000000000000000008152600401613d0090614c8b565b60405180910390fd5b6000805b8451811015613ff6576000879050858281518110613d54577f4e487b7100000000000000000000000000000000000000000000000000000000600052603260045260246000fd5b602002602001015160000151868381518110613d99577f4e487b7100000000000000000000000000000000000000000000000000000000600052603260045260246000fd5b60200260200101516060015114613fe2576000868381518110613de5577f4e487b7100000000000000000000000000000000000000000000000000000000600052603260045260246000fd5b602002602001015160600151878481518110613e2a577f4e487b7100000000000000000000000000000000000000000000000000000000600052603260045260246000fd5b602002602001015160000151613e409190614fd5565b905081811115613ea757868381518110613e83577f4e487b7100000000000000000000000000000000000000000000000000000000600052603260045260246000fd5b60200260200101516040015182613e9a9190614f7b565b9350600091505050613ff6565b868381518110613ee0577f4e487b7100000000000000000000000000000000000000000000000000000000600052603260045260246000fd5b60200260200101516040015181613ef79190614f7b565b93508082613f059190614fd5565b9150868381518110613f40577f4e487b7100000000000000000000000000000000000000000000000000000000600052603260045260246000fd5b602002602001015160056000805481526020019081526020016000208481548110613f94577f4e487b7100000000000000000000000000000000000000000000000000000000600052603260045260246000fd5b9060005260206000209060040201600082015181600001556020820151816001019080519060200190613fc892919061430b565b506040820151816002015560608201518160030155905050505b508080613fee9061513e565b915050613d0d565b5060005b868110156140a55760018660e0018181516140159190614f25565b9150818152505085610160015173ffffffffffffffffffffffffffffffffffffffff1663b4da675a8760e00151336040518363ffffffff1660e01b8152600401614060929190614de6565b600060405180830381600087803b15801561407a57600080fd5b505af115801561408e573d6000803e3d6000fd5b50505050808061409d9061513e565b915050613ffa565b50600660009054906101000a900473ffffffffffffffffffffffffffffffffffffffff1673ffffffffffffffffffffffffffffffffffffffff166108fc829081150290604051600060405180830381858888f1935050505015801561410e573d6000803e3d6000fd5b50846003600089815260200190815260200160002060008201518160000160006101000a81548173ffffffffffffffffffffffffffffffffffffffff021916908373ffffffffffffffffffffffffffffffffffffffff1602179055506020820151816001015560408201518160020160006101000a81548173ffffffffffffffffffffffffffffffffffffffff021916908373ffffffffffffffffffffffffffffffffffffffff160217905550606082015181600301556080820151816004015560a08201518160050190805190602001906141eb92919061430b565b5060c0820151816006015560e082015181600701556101008201518160080160006101000a81548160ff0219169083151502179055506101208201518160080160016101000a81548160ff021916908315150217905550610140820151816009015561016082015181600a0160006101000a81548173ffffffffffffffffffffffffffffffffffffffff021916908373ffffffffffffffffffffffffffffffffffffffff16021790555090505050505050505050565b6000808260601b90506040517f3d602d80600a3d3981f3363d3d373d3d3d363d7300000000000000000000000081528160148201527f5af43d82803e903d91602b57fd5bf3000000000000000000000000000000000060288201526037816000f092505050919050565b828054614317906150db565b90600052602060002090601f0160209004810192826143395760008555614380565b82601f1061435257805160ff1916838001178555614380565b82800160010185558215614380579182015b8281111561437f578251825591602001919060010190614364565b5b50905061438d9190614391565b5090565b5b808211156143aa576000816000905550600101614392565b5090565b60006143c16143bc84614e80565b614e5b565b905080838252602082019050828560208602820111156143e057600080fd5b60005b8581101561442a57813567ffffffffffffffff81111561440257600080fd5b80860161440f89826145a6565b855260208501945060208401935050506001810190506143e3565b5050509392505050565b600061444761444284614eac565b614e5b565b9050808382526020820190508285602086028201111561446657600080fd5b60005b85811015614496578161447c88826145d0565b845260208401935060208301925050600181019050614469565b5050509392505050565b60006144b36144ae84614ed8565b614e5b565b9050828152602081018484840111156144cb57600080fd5b6144d6848285615099565b509392505050565b6000813590506144ed8161558a565b92915050565b6000815190506145028161558a565b92915050565b600082601f83011261451957600080fd5b81356145298482602086016143ae565b91505092915050565b60008083601f84011261454457600080fd5b8235905067ffffffffffffffff81111561455d57600080fd5b60208301915083602082028301111561457557600080fd5b9250929050565b600082601f83011261458d57600080fd5b813561459d848260208601614434565b91505092915050565b600082601f8301126145b757600080fd5b81356145c78482602086016144a0565b91505092915050565b6000813590506145df816155a1565b92915050565b6000815190506145f4816155a1565b92915050565b60006020828403121561460c57600080fd5b600061461a848285016144f3565b91505092915050565b60006020828403121561463557600080fd5b6000614643848285016145d0565b91505092915050565b60006020828403121561465e57600080fd5b600061466c848285016145e5565b91505092915050565b60008060008060008060008060006101208a8c03121561469457600080fd5b60006146a28c828d016145d0565b99505060206146b38c828d016144de565b98505060406146c48c828d016145d0565b97505060606146d58c828d016145d0565b96505060808a013567ffffffffffffffff8111156146f257600080fd5b6146fe8c828d016145a6565b95505060a061470f8c828d016145d0565b94505060c08a013567ffffffffffffffff81111561472c57600080fd5b6147388c828d01614508565b93505060e08a013567ffffffffffffffff81111561475557600080fd5b6147618c828d0161457c565b9250506101008a013567ffffffffffffffff81111561477f57600080fd5b61478b8c828d0161457c565b9150509295985092959850929598565b6000806000604084860312156147b057600080fd5b60006147be868287016145d0565b935050602084013567ffffffffffffffff8111156147db57600080fd5b6147e786828701614532565b92509250509250925092565b6000806040838503121561480657600080fd5b6000614814858286016145d0565b9250506020614825858286016145d0565b9150509250929050565b60008060006060848603121561484457600080fd5b6000614852868287016145d0565b9350506020614863868287016145d0565b9250506040614874868287016145d0565b9150509250925092565b61488781615063565b82525050565b6148968161501b565b82525050565b6148a581615009565b82525050565b6148b48161502d565b82525050565b60006148c582614f09565b6148cf8185614f14565b93506148df8185602086016150a8565b6148e881615214565b840191505092915050565b6000614900602683614f14565b915061490b82615225565b604082019050919050565b6000614923601f83614f14565b915061492e82615274565b602082019050919050565b6000614946605083614f14565b91506149518261529d565b606082019050919050565b6000614969603183614f14565b915061497482615312565b604082019050919050565b600061498c605383614f14565b915061499782615361565b606082019050919050565b60006149af605383614f14565b91506149ba826153d6565b606082019050919050565b60006149d2603783614f14565b91506149dd8261544b565b604082019050919050565b60006149f5600d83614f14565b9150614a008261549a565b602082019050919050565b6000614a18603083614f14565b9150614a23826154c3565b604082019050919050565b6000614a3b601083614f14565b9150614a4682615512565b602082019050919050565b6000614a5e602583614f14565b9150614a698261553b565b604082019050919050565b614a7d81615059565b82525050565b6000602082019050614a98600083018461489c565b92915050565b6000602082019050614ab3600083018461488d565b92915050565b6000606082019050614ace600083018661487e565b614adb602083018561489c565b614ae86040830184614a74565b949350505050565b6000606082019050614b05600083018661489c565b614b12602083018561487e565b614b1f6040830184614a74565b949350505050565b600061018082019050614b3d600083018f61489c565b614b4a602083018e614a74565b614b57604083018d61489c565b614b64606083018c614a74565b614b71608083018b614a74565b81810360a0830152614b83818a6148ba565b9050614b9260c0830189614a74565b614b9f60e0830188614a74565b614bad6101008301876148ab565b614bbb6101208301866148ab565b614bc9610140830185614a74565b614bd761016083018461489c565b9d9c50505050505050505050505050565b600060c082019050614bfd600083018961489c565b614c0a6020830188614a74565b614c176040830187614a74565b614c246060830186614a74565b614c3160808301856148ab565b614c3e60a08301846148ab565b979650505050505050565b60006020820190508181036000830152614c6381846148ba565b905092915050565b60006020820190508181036000830152614c84816148f3565b9050919050565b60006020820190508181036000830152614ca481614916565b9050919050565b60006020820190508181036000830152614cc481614939565b9050919050565b60006020820190508181036000830152614ce48161495c565b9050919050565b60006020820190508181036000830152614d048161497f565b9050919050565b60006020820190508181036000830152614d24816149a2565b9050919050565b60006020820190508181036000830152614d44816149c5565b9050919050565b60006020820190508181036000830152614d64816149e8565b9050919050565b60006020820190508181036000830152614d8481614a0b565b9050919050565b60006020820190508181036000830152614da481614a2e565b9050919050565b60006020820190508181036000830152614dc481614a51565b9050919050565b6000602082019050614de06000830184614a74565b92915050565b6000604082019050614dfb6000830185614a74565b614e08602083018461489c565b9392505050565b6000608082019050614e246000830187614a74565b8181036020830152614e3681866148ba565b9050614e456040830185614a74565b614e526060830184614a74565b95945050505050565b6000614e65614e76565b9050614e71828261510d565b919050565b6000604051905090565b600067ffffffffffffffff821115614e9b57614e9a6151e5565b5b602082029050602081019050919050565b600067ffffffffffffffff821115614ec757614ec66151e5565b5b602082029050602081019050919050565b600067ffffffffffffffff821115614ef357614ef26151e5565b5b614efc82615214565b9050602081019050919050565b600081519050919050565b600082825260208201905092915050565b6000614f3082615059565b9150614f3b83615059565b9250827fffffffffffffffffffffffffffffffffffffffffffffffffffffffffffffffff03821115614f7057614f6f615187565b5b828201905092915050565b6000614f8682615059565b9150614f9183615059565b9250817fffffffffffffffffffffffffffffffffffffffffffffffffffffffffffffffff0483118215151615614fca57614fc9615187565b5b828202905092915050565b6000614fe082615059565b9150614feb83615059565b925082821015614ffe57614ffd615187565b5b828203905092915050565b600061501482615039565b9050919050565b600061502682615039565b9050919050565b60008115159050919050565b600073ffffffffffffffffffffffffffffffffffffffff82169050919050565b6000819050919050565b600061506e82615075565b9050919050565b600061508082615087565b9050919050565b600061509282615039565b9050919050565b82818337600083830152505050565b60005b838110156150c65780820151818401526020810190506150ab565b838111156150d5576000848401525b50505050565b600060028204905060018216806150f357607f821691505b60208210811415615107576151066151b6565b5b50919050565b61511682615214565b810181811067ffffffffffffffff82111715615135576151346151e5565b5b80604052505050565b600061514982615059565b91507fffffffffffffffffffffffffffffffffffffffffffffffffffffffffffffffff82141561517c5761517b615187565b5b600182019050919050565b7f4e487b7100000000000000000000000000000000000000000000000000000000600052601160045260246000fd5b7f4e487b7100000000000000000000000000000000000000000000000000000000600052602260045260246000fd5b7f4e487b7100000000000000000000000000000000000000000000000000000000600052604160045260246000fd5b6000601f19601f8301169050919050565b7f4f6e6c792063616e63656c6c6564206576656e74732063616e2062652072656460008201527f65656d65642e0000000000000000000000000000000000000000000000000000602082015250565b7f7469636b6574206c696d69742065786365656420627920746865207573657200600082015250565b7f4f726465722073686f756c6420626520696e206163746976652073746174652060008201527f616e6420746865207469636b6574696e67206576656e742073686f756c64206e60208201527f6f74206861766520737461727465642e00000000000000000000000000000000604082015250565b7f496e76616c696420496e70757420666f722073657474696e67207469636b657460008201527f2073656c6c696e67207363686564756c65000000000000000000000000000000602082015250565b7f6f6e6c7920686f73742063616e2063616e63656c20746865206576656e74206260008201527f65666f726520746865206576656e74207374617274206f72206576656e74206960208201527f7320616c72656164792063616e63656c6c656400000000000000000000000000604082015250565b7f4f726465722063616e206f6e6c792062652063616e63656c6c6564206279207460008201527f6865206f726465722063726561746f72206f72206f726465722069732063616e60208201527f63656c6c6564206f722066756c66696c6c656400000000000000000000000000604082015250565b7f4f6e6c79204f776e65722063616e2074616b6520746865206561726e696e672060008201527f616674657220746865206576656e74206973206f766572000000000000000000602082015250565b7f496e76616c696420496e70757400000000000000000000000000000000000000600082015250565b7f4f6e6c792055736572206f776e696e6720746865204e46542063616e206d617260008201527f6b2074686520617474656e64616e636500000000000000000000000000000000602082015250565b7f496e636f727265637420496e7075747300000000000000000000000000000000600082015250565b7f4f6e6c79207469636b6574206f776e65722063616e2061736b20666f7220726560008201527f66756e642e000000000000000000000000000000000000000000000000000000602082015250565b61559381615009565b811461559e57600080fd5b50565b6155aa81615059565b81146155b557600080fd5b5056fea264697066735822122016efc099338c474fb778ff0025aa94dbb96dff15a20f26264e0d67b9570af9cc64736f6c63430008040033",
  "immutableReferences": {},
  "source": "// SPDX-License-Identifier: Unlicenced\n\npragma solidity ^0.8.4;\nimport \"@openzeppelin/contracts-upgradeable/token/ERC20/utils/SafeERC20Upgradeable.sol\";\n\nabstract contract NFTContract {\n  function initializer (\n      string memory name_\n  ) public virtual;\n}\n\ninterface TicketNFTInterface {\n    function mintTicketNFT(uint256 _tokenID, address _lender) external;\n\n    function burnTicketNFT(uint256 _tokenID) external;\n\n    function ownerOf(uint256 _tokenID) external returns (address);\n\n    function transferFrom( address from, address to, uint256 tokenId) external;\n\n    function balanceOf(address owner) external returns (uint256);\n}\n\ncontract EventManagement{\n  using SafeERC20Upgradeable for IERC20Upgradeable;\n\n  uint256 public eventId;\n  uint256 public tradeId;\n  address public ticketNFT;\n\n  struct eventDetails {\n    address eventHost;\n    uint256 eventStartTime;\n    address paymentAddress;\n    uint256 eventDuration;\n    uint256 ticketsPerUser;\n    string eventName;\n    uint256 totalAttendees;\n    uint256 ticketsSold;\n    bool isEventCancelled;\n    bool isPaymentComplete;\n    uint256 resellStartTime;\n    address nftContractAddress;\n  }\n\n  struct ticketSchedule {\n    uint256 ticketsNo;\n    string ticketScheduleName;\n    uint256 price;\n    uint256 ticketsUsed;\n  }\n\n  struct tradeDetails {\n    address orderCreator;\n    uint256 eventId;\n    uint256 ticketId;\n    uint256 price;\n    bool orderFulfilled;\n    bool isOrderCancelled;\n  }\n\n  mapping(uint256 => eventDetails) public eventDetailsBook;\n  mapping(uint256 => tradeDetails) public tradeDetailsBook;\n  mapping(uint256 => ticketSchedule[]) public ticketScheduleBook;\n\n  address payable public owner;\n\n    constructor(address _nft){\n      ticketNFT = _nft;\n      owner = payable(msg.sender);\n      eventId = 0;\n      tradeId = 0;\n    }\n\n  function createEvent(\n      uint256 _eventStartTime,\n      address _paymentAddress,\n      uint256 _eventDuration,\n      uint256 _ticketsPerUser,\n      string memory _eventName,\n      uint256 _resellStartTime,\n      string[] memory _ticketScheduleNames,\n      uint256[] memory _noOfTickets,\n      uint256[] memory _price\n  ) external virtual{\n\n    require(\n      _eventStartTime>block.timestamp &&\n      _paymentAddress != address(0) &&\n      _eventDuration >0 &&\n      _ticketsPerUser >0 &&\n      bytes(_eventName).length != 0, \"Incorrect Inputs\"\n      );\n    // Require to handle the ticket selling schedule\n    require(\n      _noOfTickets.length != 0 &&\n      _ticketScheduleNames.length == _noOfTickets.length &&\n      _noOfTickets.length == _price.length, \"Incorrect Inputs\"\n      );\n\n    eventId +=1;\n\n    address deployedNFT = create(ticketNFT);\n    assert(deployedNFT != address(0));\n    NFTContract(deployedNFT).initializer(\n      _eventName\n    );\n\n    for(uint256 i=0; i< _noOfTickets.length; i++){\n      require(\n        _noOfTickets[i] > 0 &&\n        _price[i] > 0 &&\n        bytes(_ticketScheduleNames[i]).length != 0, \"Invalid Input for setting ticket selling schedule\"\n      );\n\n      ticketScheduleBook[eventId].push(\n        ticketSchedule(\n          _noOfTickets[i],\n          _ticketScheduleNames[i],\n          _price[i],\n          0\n        )\n      );\n    }\n\n    // create event details entry in the event details book\n    eventDetailsBook[eventId] = eventDetails(\n      msg.sender,\n      _eventStartTime,\n      _paymentAddress,\n      _eventDuration,\n      _ticketsPerUser,\n      _eventName,\n      0,\n      0,\n      false,\n      false,\n      _resellStartTime,\n      deployedNFT\n    );\n  }\n\n  function cancelEvent(uint256 _eventId) external virtual{\n    eventDetails memory _eventDetails = eventDetailsBook[_eventId];\n    require(\n      msg.sender == _eventDetails.eventHost &&\n      !_eventDetails.isEventCancelled &&\n      _eventDetails.eventStartTime > block.timestamp, \"only host can cancel the event before the event start or event is already cancelled\"\n      );\n    _eventDetails.isEventCancelled = !(_eventDetails.isEventCancelled);\n    eventDetailsBook[_eventId] = _eventDetails;\n  }\n\n  function buyEventTicket(uint256 _eventId, uint256 _noOfTickets) external virtual payable{\n    // RECHECK FUNCTION LOGIC\n    eventDetails memory _eventDetails = eventDetailsBook[_eventId];\n    ticketSchedule[] memory _ticketSchedule = ticketScheduleBook[_eventId];\n\n    require(\n      _eventDetails.eventHost != address(0) &&\n      _eventDetails.eventStartTime > block.timestamp &&\n      !(_eventDetails.isEventCancelled) &&\n      _eventDetails.eventStartTime > block.timestamp, \"Invalid Input\"\n    );\n\n    uint256 ticketOwnedByUser = TicketNFTInterface(ticketNFT).balanceOf(\n      msg.sender\n    );\n    uint256 totalTickets = 0;\n    for(uint256 i=0; i< _ticketSchedule.length; i++){\n      totalTickets += _ticketSchedule[i].ticketsNo;\n    }\n    require(\n      (ticketOwnedByUser + _noOfTickets ) <= _eventDetails.ticketsPerUser &&\n      (_eventDetails.ticketsSold + _noOfTickets ) < totalTickets,\"ticket limit exceed by the user\"\n    );\n    uint256 totalPrice = 0;\n    for(uint256 i=0; i< _ticketSchedule.length; i++){\n      uint256 ticketsPending = _noOfTickets;\n      if (_ticketSchedule[i].ticketsUsed != _ticketSchedule[i].ticketsNo){\n          uint256 ticketsLeft = _ticketSchedule[i].ticketsNo - _ticketSchedule[i].ticketsUsed;\n          if(ticketsLeft > ticketsPending){\n            totalPrice = ticketsPending*_ticketSchedule[i].price;\n            ticketsPending = 0;\n            break;\n          } else {\n            totalPrice = ticketsLeft*_ticketSchedule[i].price;\n            ticketsPending = ticketsPending - ticketsLeft;\n          }\n          ticketScheduleBook[eventId][i] = _ticketSchedule[i];\n      }\n    }\n    for(uint256 i=0; i< _noOfTickets; i++){\n      _eventDetails.ticketsSold +=1;\n      TicketNFTInterface(_eventDetails.nftContractAddress).mintTicketNFT(\n          _eventDetails.ticketsSold,\n          msg.sender\n      );\n    }\n    owner.transfer(totalPrice);\n    eventDetailsBook[_eventId] = _eventDetails;\n  }\n\n  function markEventAttendance(uint256 _eventId, uint256 _ticketId) external virtual{\n    eventDetails memory _eventDetails = eventDetailsBook[_eventId];\n    address nftOwner = TicketNFTInterface(_eventDetails.nftContractAddress).ownerOf(_ticketId);\n    require(\n      nftOwner == msg.sender &&\n      block.timestamp >= _eventDetails.eventStartTime &&\n      block.timestamp < (_eventDetails.eventStartTime + _eventDetails.eventDuration) &&\n      !(_eventDetails.isEventCancelled), \"Only User owning the NFT can mark the attendance\"\n    );\n    _eventDetails.totalAttendees +=1;\n    eventDetailsBook[_eventId] = _eventDetails;\n    TicketNFTInterface(_eventDetails.nftContractAddress).burnTicketNFT(_ticketId);\n  }\n\n  function getEventEarnings(uint256 _eventId) external virtual{\n    eventDetails memory _eventDetails = eventDetailsBook[_eventId];\n    ticketSchedule[] memory _ticketSchedule = ticketScheduleBook[_eventId];\n    require(\n      msg.sender == _eventDetails.eventHost &&\n      block.timestamp > (_eventDetails.eventStartTime + _eventDetails.eventDuration) &&\n      !(_eventDetails.isEventCancelled) &&\n      !(_eventDetails.isPaymentComplete), \"Only Owner can take the earning after the event is over\"\n    );\n    uint256 ticketsPrice = 0;\n    for(uint256 i=0; i < _ticketSchedule.length; i++){\n      ticketsPrice+=_ticketSchedule[i].ticketsUsed*_ticketSchedule[i].price;\n    }\n    (payable(msg.sender)).transfer(ticketsPrice);\n    _eventDetails.isPaymentComplete = true;\n    eventDetailsBook[_eventId] = _eventDetails;\n  }\n\n  function redeemCancelledEventTicket(uint256 _eventId, uint256[] calldata _ticketIds) external virtual payable{\n    eventDetails memory _eventDetails = eventDetailsBook[_eventId];\n    ticketSchedule[] memory _ticketSchedule = ticketScheduleBook[_eventId];\n    uint256 totalRefundPrice = 0;\n    require(\n      _eventDetails.isEventCancelled, \"Only cancelled events can be redeemed.\"\n    );\n    for (uint256 i=0;i<_ticketIds.length;i++){\n      address nftOwner = TicketNFTInterface(_eventDetails.nftContractAddress).ownerOf(_ticketIds[i]);\n      require(\n        nftOwner == msg.sender, \"Only ticket owner can ask for refund.\"\n      );\n      for(uint256 j=0; j<_ticketSchedule.length; j++){\n        if(_ticketSchedule[j].ticketsNo >= _ticketIds[i]){\n          totalRefundPrice+=_ticketSchedule[j].price;\n        }\n      }\n      TicketNFTInterface(ticketNFT).burnTicketNFT(_ticketIds[i]);\n    }\n    (payable(msg.sender)).transfer(totalRefundPrice);\n  }\n\n  function resellTicket(uint256 _eventId, uint256 _ticketId, uint256 _price) external virtual payable {\n    eventDetails memory _eventDetails = eventDetailsBook[_eventId];\n    address nftOwner = TicketNFTInterface(_eventDetails.nftContractAddress).ownerOf(_ticketId);\n\n    require(\n      _eventDetails.eventHost != address(0) &&\n      _eventDetails.eventStartTime > block.timestamp &&\n      nftOwner == msg.sender &&\n      _price>0 &&\n      block.timestamp >= _eventDetails.resellStartTime &&\n      !(_eventDetails.isEventCancelled), \"Invalid Input\"\n    );\n    tradeId += 1;\n    tradeDetailsBook[tradeId] = tradeDetails(\n      msg.sender,\n      _eventId,\n      _ticketId,\n      _price,\n      false,\n      false\n    );\n    TicketNFTInterface(_eventDetails.nftContractAddress).transferFrom(msg.sender, owner, _ticketId);\n  }\n\n  function cancelresellTicketOrder(uint256 _tradeId) external virtual{\n    tradeDetails memory _tradeDetails = tradeDetailsBook[_tradeId];\n    eventDetails memory _eventDetails = eventDetailsBook[_tradeDetails.eventId];\n    address nftOwner = TicketNFTInterface(_eventDetails.nftContractAddress).ownerOf(_tradeDetails.ticketId);\n    require(\n      _tradeDetails.orderCreator != address(0) &&\n      _tradeDetails.orderCreator == msg.sender &&\n      !(_tradeDetails.isOrderCancelled) &&\n      !(_tradeDetails.orderFulfilled) &&\n      nftOwner == owner , \"Order can only be cancelled by the order creator or order is cancelled or fulfilled\"\n    );\n    _tradeDetails.isOrderCancelled = true;\n    TicketNFTInterface(_eventDetails.nftContractAddress).transferFrom(owner, msg.sender, _tradeDetails.ticketId);\n    tradeDetailsBook[_tradeId] = _tradeDetails;\n  }\n\n  function buyResellTicket(uint256 _tradeId) external virtual payable{\n    tradeDetails memory _tradeDetails = tradeDetailsBook[_tradeId];\n    eventDetails memory _eventDetails = eventDetailsBook[_tradeDetails.eventId];\n    address nftOwner = TicketNFTInterface(_eventDetails.nftContractAddress).ownerOf(_tradeDetails.ticketId);\n\n    require(\n      _tradeDetails.orderCreator != address(0) &&\n      nftOwner == owner && \n      _tradeDetails.orderCreator != msg.sender &&\n      !(_tradeDetails.isOrderCancelled) &&\n      !(_tradeDetails.orderFulfilled) &&\n      _eventDetails.eventStartTime > block.timestamp &&\n      block.timestamp >= _eventDetails.resellStartTime, \"Order should be in active state and the ticketing event should not have started.\"\n    );\n\n    TicketNFTInterface(_eventDetails.nftContractAddress).transferFrom(owner, msg.sender, _tradeDetails.ticketId);\n    owner.transfer(_tradeDetails.price);\n    (payable(msg.sender)).transfer(_tradeDetails.price);\n    _tradeDetails.orderFulfilled = true;\n    tradeDetailsBook[_tradeId] = _tradeDetails;\n  }\n\n  /// @notice Function uses EIP-1167 implementation\n  function create(address _target) internal returns (address result) {\n      bytes20 targetBytes = bytes20(_target);\n      assembly {\n          let clone := mload(0x40)\n          mstore(\n              clone,\n              0x3d602d80600a3d3981f3363d3d373d3d3d363d73000000000000000000000000\n          )\n          mstore(add(clone, 0x14), targetBytes)\n          mstore(\n              add(clone, 0x28),\n              0x5af43d82803e903d91602b57fd5bf30000000000000000000000000000000000\n          )\n          result := create(0, clone, 0x37)\n      }\n  }\n}",
  "sourcePath": "/Users/raghukapur/private-projects/EventManagementSystem/contracts/EventManagement.sol",
  "compiler": {
    "name": "solc",
    "version": "0.8.4+commit.c7e474f2.Emscripten.clang"
  },
  "schemaVersion": "3.4.4",
  "updatedAt": "2022-07-05T13:25:14.680Z",
  "devdoc": {
    "kind": "dev",
    "methods": {},
    "version": 1
  },
  "userdoc": {
    "kind": "user",
    "methods": {},
    "version": 1
  }
}