{
  "contractName": "TicketNFT",
  "abi": [
    {
      "anonymous": false,
      "inputs": [
        {
          "indexed": true,
          "internalType": "address",
          "name": "owner",
          "type": "address"
        },
        {
          "indexed": true,
          "internalType": "address",
          "name": "approved",
          "type": "address"
        },
        {
          "indexed": true,
          "internalType": "uint256",
          "name": "tokenId",
          "type": "uint256"
        }
      ],
      "name": "Approval",
      "type": "event"
    },
    {
      "anonymous": false,
      "inputs": [
        {
          "indexed": true,
          "internalType": "address",
          "name": "owner",
          "type": "address"
        },
        {
          "indexed": true,
          "internalType": "address",
          "name": "operator",
          "type": "address"
        },
        {
          "indexed": false,
          "internalType": "bool",
          "name": "approved",
          "type": "bool"
        }
      ],
      "name": "ApprovalForAll",
      "type": "event"
    },
    {
      "anonymous": false,
      "inputs": [
        {
          "indexed": false,
          "internalType": "uint8",
          "name": "version",
          "type": "uint8"
        }
      ],
      "name": "Initialized",
      "type": "event"
    },
    {
      "anonymous": false,
      "inputs": [
        {
          "indexed": true,
          "internalType": "address",
          "name": "previousOwner",
          "type": "address"
        },
        {
          "indexed": true,
          "internalType": "address",
          "name": "newOwner",
          "type": "address"
        }
      ],
      "name": "OwnershipTransferred",
      "type": "event"
    },
    {
      "anonymous": false,
      "inputs": [
        {
          "indexed": true,
          "internalType": "address",
          "name": "from",
          "type": "address"
        },
        {
          "indexed": true,
          "internalType": "address",
          "name": "to",
          "type": "address"
        },
        {
          "indexed": true,
          "internalType": "uint256",
          "name": "tokenId",
          "type": "uint256"
        }
      ],
      "name": "Transfer",
      "type": "event"
    },
    {
      "inputs": [
        {
          "internalType": "address",
          "name": "to",
          "type": "address"
        },
        {
          "internalType": "uint256",
          "name": "tokenId",
          "type": "uint256"
        }
      ],
      "name": "approve",
      "outputs": [],
      "stateMutability": "nonpayable",
      "type": "function"
    },
    {
      "inputs": [
        {
          "internalType": "address",
          "name": "owner",
          "type": "address"
        }
      ],
      "name": "balanceOf",
      "outputs": [
        {
          "internalType": "uint256",
          "name": "",
          "type": "uint256"
        }
      ],
      "stateMutability": "view",
      "type": "function"
    },
    {
      "inputs": [],
      "name": "controller",
      "outputs": [
        {
          "internalType": "address",
          "name": "",
          "type": "address"
        }
      ],
      "stateMutability": "view",
      "type": "function"
    },
    {
      "inputs": [
        {
          "internalType": "uint256",
          "name": "tokenId",
          "type": "uint256"
        }
      ],
      "name": "getApproved",
      "outputs": [
        {
          "internalType": "address",
          "name": "",
          "type": "address"
        }
      ],
      "stateMutability": "view",
      "type": "function"
    },
    {
      "inputs": [
        {
          "internalType": "address",
          "name": "owner",
          "type": "address"
        },
        {
          "internalType": "address",
          "name": "operator",
          "type": "address"
        }
      ],
      "name": "isApprovedForAll",
      "outputs": [
        {
          "internalType": "bool",
          "name": "",
          "type": "bool"
        }
      ],
      "stateMutability": "view",
      "type": "function"
    },
    {
      "inputs": [],
      "name": "name",
      "outputs": [
        {
          "internalType": "string",
          "name": "",
          "type": "string"
        }
      ],
      "stateMutability": "view",
      "type": "function"
    },
    {
      "inputs": [],
      "name": "owner",
      "outputs": [
        {
          "internalType": "address",
          "name": "",
          "type": "address"
        }
      ],
      "stateMutability": "view",
      "type": "function"
    },
    {
      "inputs": [
        {
          "internalType": "uint256",
          "name": "tokenId",
          "type": "uint256"
        }
      ],
      "name": "ownerOf",
      "outputs": [
        {
          "internalType": "address",
          "name": "",
          "type": "address"
        }
      ],
      "stateMutability": "view",
      "type": "function"
    },
    {
      "inputs": [],
      "name": "renounceOwnership",
      "outputs": [],
      "stateMutability": "nonpayable",
      "type": "function"
    },
    {
      "inputs": [
        {
          "internalType": "address",
          "name": "from",
          "type": "address"
        },
        {
          "internalType": "address",
          "name": "to",
          "type": "address"
        },
        {
          "internalType": "uint256",
          "name": "tokenId",
          "type": "uint256"
        }
      ],
      "name": "safeTransferFrom",
      "outputs": [],
      "stateMutability": "nonpayable",
      "type": "function"
    },
    {
      "inputs": [
        {
          "internalType": "address",
          "name": "from",
          "type": "address"
        },
        {
          "internalType": "address",
          "name": "to",
          "type": "address"
        },
        {
          "internalType": "uint256",
          "name": "tokenId",
          "type": "uint256"
        },
        {
          "internalType": "bytes",
          "name": "_data",
          "type": "bytes"
        }
      ],
      "name": "safeTransferFrom",
      "outputs": [],
      "stateMutability": "nonpayable",
      "type": "function"
    },
    {
      "inputs": [
        {
          "internalType": "address",
          "name": "operator",
          "type": "address"
        },
        {
          "internalType": "bool",
          "name": "approved",
          "type": "bool"
        }
      ],
      "name": "setApprovalForAll",
      "outputs": [],
      "stateMutability": "nonpayable",
      "type": "function"
    },
    {
      "inputs": [
        {
          "internalType": "bytes4",
          "name": "interfaceId",
          "type": "bytes4"
        }
      ],
      "name": "supportsInterface",
      "outputs": [
        {
          "internalType": "bool",
          "name": "",
          "type": "bool"
        }
      ],
      "stateMutability": "view",
      "type": "function"
    },
    {
      "inputs": [],
      "name": "symbol",
      "outputs": [
        {
          "internalType": "string",
          "name": "",
          "type": "string"
        }
      ],
      "stateMutability": "view",
      "type": "function"
    },
    {
      "inputs": [
        {
          "internalType": "uint256",
          "name": "tokenId",
          "type": "uint256"
        }
      ],
      "name": "tokenURI",
      "outputs": [
        {
          "internalType": "string",
          "name": "",
          "type": "string"
        }
      ],
      "stateMutability": "view",
      "type": "function"
    },
    {
      "inputs": [
        {
          "internalType": "address",
          "name": "from",
          "type": "address"
        },
        {
          "internalType": "address",
          "name": "to",
          "type": "address"
        },
        {
          "internalType": "uint256",
          "name": "tokenId",
          "type": "uint256"
        }
      ],
      "name": "transferFrom",
      "outputs": [],
      "stateMutability": "nonpayable",
      "type": "function"
    },
    {
      "inputs": [
        {
          "internalType": "address",
          "name": "newOwner",
          "type": "address"
        }
      ],
      "name": "transferOwnership",
      "outputs": [],
      "stateMutability": "nonpayable",
      "type": "function"
    },
    {
      "inputs": [
        {
          "internalType": "string",
          "name": "_name",
          "type": "string"
        }
      ],
      "name": "initialize",
      "outputs": [],
      "stateMutability": "nonpayable",
      "type": "function"
    },
    {
      "inputs": [
        {
          "internalType": "address",
          "name": "_controller",
          "type": "address"
        }
      ],
      "name": "setController",
      "outputs": [],
      "stateMutability": "nonpayable",
      "type": "function"
    },
    {
      "inputs": [
        {
          "internalType": "uint256",
          "name": "_tokenID",
          "type": "uint256"
        },
        {
          "internalType": "address",
          "name": "_ticketOwner",
          "type": "address"
        }
      ],
      "name": "mintTicketNFT",
      "outputs": [],
      "stateMutability": "nonpayable",
      "type": "function"
    },
    {
      "inputs": [
        {
          "internalType": "uint256",
          "name": "_tokenID",
          "type": "uint256"
        }
      ],
      "name": "burnTicketNFT",
      "outputs": [],
      "stateMutability": "nonpayable",
      "type": "function"
    }
  ],
  "bytecode": "0x608060405234801561001057600080fd5b506135e8806100206000396000f3fe608060405234801561001057600080fd5b50600436106101375760003560e01c80638da5cb5b116100b8578063b88d4fde1161007c578063b88d4fde14610324578063c87b56dd14610340578063e985e9c514610370578063f2fde38b146103a0578063f62d1888146103bc578063f77c4791146103d857610137565b80638da5cb5b1461029457806392eefe9b146102b257806395d89b41146102ce578063a22cb465146102ec578063b4da675a1461030857610137565b806342842e0e116100ff57806342842e0e146101f25780636352211e1461020e57806370a082311461023e578063714951a31461026e578063715018a61461028a57610137565b806301ffc9a71461013c57806306fdde031461016c578063081812fc1461018a578063095ea7b3146101ba57806323b872dd146101d6575b600080fd5b6101566004803603810190610151919061238d565b6103f6565b60405161016391906128ce565b60405180910390f35b6101746104d8565b6040516101819190612904565b60405180910390f35b6101a4600480360381019061019f9190612420565b61056a565b6040516101b19190612867565b60405180910390f35b6101d460048036038101906101cf9190612351565b6105ef565b005b6101f060048036038101906101eb919061224b565b610707565b005b61020c6004803603810190610207919061224b565b610767565b005b61022860048036038101906102239190612420565b610787565b6040516102359190612867565b60405180910390f35b610258600480360381019061025391906121e6565b610839565b6040516102659190612bc6565b60405180910390f35b61028860048036038101906102839190612420565b6108f1565b005b61029261098d565b005b61029c610a15565b6040516102a99190612867565b60405180910390f35b6102cc60048036038101906102c791906121e6565b610a3f565b005b6102d6610af8565b6040516102e39190612904565b60405180910390f35b61030660048036038101906103019190612315565b610b8a565b005b610322600480360381019061031d9190612449565b610ba0565b005b61033e6004803603810190610339919061229a565b610c3e565b005b61035a60048036038101906103559190612420565b610ca0565b6040516103679190612904565b60405180910390f35b61038a6004803603810190610385919061220f565b610d47565b60405161039791906128ce565b60405180910390f35b6103ba60048036038101906103b591906121e6565b610ddb565b005b6103d660048036038101906103d191906123df565b610ed3565b005b6103e0610f72565b6040516103ed9190612867565b60405180910390f35b60007f80ac58cd000000000000000000000000000000000000000000000000000000007bffffffffffffffffffffffffffffffffffffffffffffffffffffffff1916827bffffffffffffffffffffffffffffffffffffffffffffffffffffffff191614806104c157507f5b5e139f000000000000000000000000000000000000000000000000000000007bffffffffffffffffffffffffffffffffffffffffffffffffffffffff1916827bffffffffffffffffffffffffffffffffffffffffffffffffffffffff1916145b806104d157506104d082610f98565b5b9050919050565b6060609780546104e790612e3b565b80601f016020809104026020016040519081016040528092919081815260200182805461051390612e3b565b80156105605780601f1061053557610100808354040283529160200191610560565b820191906000526020600020905b81548152906001019060200180831161054357829003601f168201915b5050505050905090565b600061057582611002565b6105b4576040517f08c379a00000000000000000000000000000000000000000000000000000000081526004016105ab90612ae6565b60405180910390fd5b609b600083815260200190815260200160002060009054906101000a900473ffffffffffffffffffffffffffffffffffffffff169050919050565b60006105fa82610787565b90508073ffffffffffffffffffffffffffffffffffffffff168373ffffffffffffffffffffffffffffffffffffffff16141561066b576040517f08c379a000000000000000000000000000000000000000000000000000000000815260040161066290612b46565b60405180910390fd5b8073ffffffffffffffffffffffffffffffffffffffff1661068a61106e565b73ffffffffffffffffffffffffffffffffffffffff1614806106b957506106b8816106b361106e565b610d47565b5b6106f8576040517f08c379a00000000000000000000000000000000000000000000000000000000081526004016106ef90612a46565b60405180910390fd5b6107028383611076565b505050565b61071861071261106e565b8261112f565b610757576040517f08c379a000000000000000000000000000000000000000000000000000000000815260040161074e90612b66565b60405180910390fd5b61076283838361120d565b505050565b61078283838360405180602001604052806000815250610c3e565b505050565b6000806099600084815260200190815260200160002060009054906101000a900473ffffffffffffffffffffffffffffffffffffffff169050600073ffffffffffffffffffffffffffffffffffffffff168173ffffffffffffffffffffffffffffffffffffffff161415610830576040517f08c379a000000000000000000000000000000000000000000000000000000000815260040161082790612a86565b60405180910390fd5b80915050919050565b60008073ffffffffffffffffffffffffffffffffffffffff168273ffffffffffffffffffffffffffffffffffffffff1614156108aa576040517f08c379a00000000000000000000000000000000000000000000000000000000081526004016108a190612a66565b60405180910390fd5b609a60008373ffffffffffffffffffffffffffffffffffffffff1673ffffffffffffffffffffffffffffffffffffffff168152602001908152602001600020549050919050565b60c960009054906101000a900473ffffffffffffffffffffffffffffffffffffffff1673ffffffffffffffffffffffffffffffffffffffff163373ffffffffffffffffffffffffffffffffffffffff1614610981576040517f08c379a000000000000000000000000000000000000000000000000000000000815260040161097890612ba6565b60405180910390fd5b61098a81611474565b50565b61099561106e565b73ffffffffffffffffffffffffffffffffffffffff166109b3610a15565b73ffffffffffffffffffffffffffffffffffffffff1614610a09576040517f08c379a0000000000000000000000000000000000000000000000000000000008152600401610a0090612b06565b60405180910390fd5b610a136000611591565b565b6000603360009054906101000a900473ffffffffffffffffffffffffffffffffffffffff16905090565b610a47610a15565b73ffffffffffffffffffffffffffffffffffffffff163373ffffffffffffffffffffffffffffffffffffffff1614610ab4576040517f08c379a0000000000000000000000000000000000000000000000000000000008152600401610aab90612926565b60405180910390fd5b8060c960006101000a81548173ffffffffffffffffffffffffffffffffffffffff021916908373ffffffffffffffffffffffffffffffffffffffff16021790555050565b606060988054610b0790612e3b565b80601f0160208091040260200160405190810160405280929190818152602001828054610b3390612e3b565b8015610b805780601f10610b5557610100808354040283529160200191610b80565b820191906000526020600020905b815481529060010190602001808311610b6357829003601f168201915b5050505050905090565b610b9c610b9561106e565b8383611657565b5050565b60c960009054906101000a900473ffffffffffffffffffffffffffffffffffffffff1673ffffffffffffffffffffffffffffffffffffffff163373ffffffffffffffffffffffffffffffffffffffff1614610c30576040517f08c379a0000000000000000000000000000000000000000000000000000000008152600401610c2790612a06565b60405180910390fd5b610c3a81836117c4565b5050565b610c4f610c4961106e565b8361112f565b610c8e576040517f08c379a0000000000000000000000000000000000000000000000000000000008152600401610c8590612b66565b60405180910390fd5b610c9a8484848461199e565b50505050565b6060610cab82611002565b610cea576040517f08c379a0000000000000000000000000000000000000000000000000000000008152600401610ce190612b26565b60405180910390fd5b6000610cf46119fa565b90506000815111610d145760405180602001604052806000815250610d3f565b80610d1e84611a11565b604051602001610d2f929190612843565b6040516020818303038152906040525b915050919050565b6000609c60008473ffffffffffffffffffffffffffffffffffffffff1673ffffffffffffffffffffffffffffffffffffffff16815260200190815260200160002060008373ffffffffffffffffffffffffffffffffffffffff1673ffffffffffffffffffffffffffffffffffffffff16815260200190815260200160002060009054906101000a900460ff16905092915050565b610de361106e565b73ffffffffffffffffffffffffffffffffffffffff16610e01610a15565b73ffffffffffffffffffffffffffffffffffffffff1614610e57576040517f08c379a0000000000000000000000000000000000000000000000000000000008152600401610e4e90612b06565b60405180910390fd5b600073ffffffffffffffffffffffffffffffffffffffff168173ffffffffffffffffffffffffffffffffffffffff161415610ec7576040517f08c379a0000000000000000000000000000000000000000000000000000000008152600401610ebe90612966565b60405180910390fd5b610ed081611591565b50565b6000610edf6001611bbe565b90508015610f03576001600060016101000a81548160ff0219169083151502179055505b610f0b611cae565b610f158283611d07565b8015610f6e5760008060016101000a81548160ff0219169083151502179055507f7f26b83ff96e1f2b6a682f133852f6798a09c465da95921460cefb38474024986001604051610f6591906128e9565b60405180910390a15b5050565b60c960009054906101000a900473ffffffffffffffffffffffffffffffffffffffff1681565b60007f01ffc9a7000000000000000000000000000000000000000000000000000000007bffffffffffffffffffffffffffffffffffffffffffffffffffffffff1916827bffffffffffffffffffffffffffffffffffffffffffffffffffffffff1916149050919050565b60008073ffffffffffffffffffffffffffffffffffffffff166099600084815260200190815260200160002060009054906101000a900473ffffffffffffffffffffffffffffffffffffffff1673ffffffffffffffffffffffffffffffffffffffff1614159050919050565b600033905090565b81609b600083815260200190815260200160002060006101000a81548173ffffffffffffffffffffffffffffffffffffffff021916908373ffffffffffffffffffffffffffffffffffffffff160217905550808273ffffffffffffffffffffffffffffffffffffffff166110e983610787565b73ffffffffffffffffffffffffffffffffffffffff167f8c5be1e5ebec7d5bd14f71427d1e84f3dd0314c0f7b2291e5b200ac8c7c3b92560405160405180910390a45050565b600061113a82611002565b611179576040517f08c379a000000000000000000000000000000000000000000000000000000000815260040161117090612a26565b60405180910390fd5b600061118483610787565b90508073ffffffffffffffffffffffffffffffffffffffff168473ffffffffffffffffffffffffffffffffffffffff1614806111c657506111c58185610d47565b5b8061120457508373ffffffffffffffffffffffffffffffffffffffff166111ec8461056a565b73ffffffffffffffffffffffffffffffffffffffff16145b91505092915050565b8273ffffffffffffffffffffffffffffffffffffffff1661122d82610787565b73ffffffffffffffffffffffffffffffffffffffff1614611283576040517f08c379a000000000000000000000000000000000000000000000000000000000815260040161127a90612986565b60405180910390fd5b600073ffffffffffffffffffffffffffffffffffffffff168273ffffffffffffffffffffffffffffffffffffffff1614156112f3576040517f08c379a00000000000000000000000000000000000000000000000000000000081526004016112ea906129c6565b60405180910390fd5b6112fe838383611d64565b611309600082611076565b6001609a60008573ffffffffffffffffffffffffffffffffffffffff1673ffffffffffffffffffffffffffffffffffffffff16815260200190815260200160002060008282546113599190612d32565b925050819055506001609a60008473ffffffffffffffffffffffffffffffffffffffff1673ffffffffffffffffffffffffffffffffffffffff16815260200190815260200160002060008282546113b09190612cab565b92505081905550816099600083815260200190815260200160002060006101000a81548173ffffffffffffffffffffffffffffffffffffffff021916908373ffffffffffffffffffffffffffffffffffffffff160217905550808273ffffffffffffffffffffffffffffffffffffffff168473ffffffffffffffffffffffffffffffffffffffff167fddf252ad1be2c89b69c2b068fc378daa952ba7f163c4a11628f55a4df523b3ef60405160405180910390a461146f838383611d69565b505050565b600061147f82610787565b905061148d81600084611d64565b611498600083611076565b6001609a60008373ffffffffffffffffffffffffffffffffffffffff1673ffffffffffffffffffffffffffffffffffffffff16815260200190815260200160002060008282546114e89190612d32565b925050819055506099600083815260200190815260200160002060006101000a81549073ffffffffffffffffffffffffffffffffffffffff021916905581600073ffffffffffffffffffffffffffffffffffffffff168273ffffffffffffffffffffffffffffffffffffffff167fddf252ad1be2c89b69c2b068fc378daa952ba7f163c4a11628f55a4df523b3ef60405160405180910390a461158d81600084611d69565b5050565b6000603360009054906101000a900473ffffffffffffffffffffffffffffffffffffffff16905081603360006101000a81548173ffffffffffffffffffffffffffffffffffffffff021916908373ffffffffffffffffffffffffffffffffffffffff1602179055508173ffffffffffffffffffffffffffffffffffffffff168173ffffffffffffffffffffffffffffffffffffffff167f8be0079c531659141344cd1fd0a4f28419497f9722a3daafe3b4186f6b6457e060405160405180910390a35050565b8173ffffffffffffffffffffffffffffffffffffffff168373ffffffffffffffffffffffffffffffffffffffff1614156116c6576040517f08c379a00000000000000000000000000000000000000000000000000000000081526004016116bd906129e6565b60405180910390fd5b80609c60008573ffffffffffffffffffffffffffffffffffffffff1673ffffffffffffffffffffffffffffffffffffffff16815260200190815260200160002060008473ffffffffffffffffffffffffffffffffffffffff1673ffffffffffffffffffffffffffffffffffffffff16815260200190815260200160002060006101000a81548160ff0219169083151502179055508173ffffffffffffffffffffffffffffffffffffffff168373ffffffffffffffffffffffffffffffffffffffff167f17307eab39ab6107e8899845ad3d59bd9653f200f220920489ca2b5937696c31836040516117b791906128ce565b60405180910390a3505050565b600073ffffffffffffffffffffffffffffffffffffffff168273ffffffffffffffffffffffffffffffffffffffff161415611834576040517f08c379a000000000000000000000000000000000000000000000000000000000815260040161182b90612ac6565b60405180910390fd5b61183d81611002565b1561187d576040517f08c379a0000000000000000000000000000000000000000000000000000000008152600401611874906129a6565b60405180910390fd5b61188960008383611d64565b6001609a60008473ffffffffffffffffffffffffffffffffffffffff1673ffffffffffffffffffffffffffffffffffffffff16815260200190815260200160002060008282546118d99190612cab565b92505081905550816099600083815260200190815260200160002060006101000a81548173ffffffffffffffffffffffffffffffffffffffff021916908373ffffffffffffffffffffffffffffffffffffffff160217905550808273ffffffffffffffffffffffffffffffffffffffff16600073ffffffffffffffffffffffffffffffffffffffff167fddf252ad1be2c89b69c2b068fc378daa952ba7f163c4a11628f55a4df523b3ef60405160405180910390a461199a60008383611d69565b5050565b6119a984848461120d565b6119b584848484611d6e565b6119f4576040517f08c379a00000000000000000000000000000000000000000000000000000000081526004016119eb90612946565b60405180910390fd5b50505050565b606060405180602001604052806000815250905090565b60606000821415611a59576040518060400160405280600181526020017f30000000000000000000000000000000000000000000000000000000000000008152509050611bb9565b600082905060005b60008214611a8b578080611a7490612e9e565b915050600a82611a849190612d01565b9150611a61565b60008167ffffffffffffffff811115611acd577f4e487b7100000000000000000000000000000000000000000000000000000000600052604160045260246000fd5b6040519080825280601f01601f191660200182016040528015611aff5781602001600182028036833780820191505090505b5090505b60008514611bb257600182611b189190612d32565b9150600a85611b279190612ee7565b6030611b339190612cab565b60f81b818381518110611b6f577f4e487b7100000000000000000000000000000000000000000000000000000000600052603260045260246000fd5b60200101907effffffffffffffffffffffffffffffffffffffffffffffffffffffffffffff1916908160001a905350600a85611bab9190612d01565b9450611b03565b8093505050505b919050565b60008060019054906101000a900460ff1615611c355760018260ff16148015611bed5750611beb30611f05565b155b611c2c576040517f08c379a0000000000000000000000000000000000000000000000000000000008152600401611c2390612aa6565b60405180910390fd5b60009050611ca9565b8160ff1660008054906101000a900460ff1660ff1610611c8a576040517f08c379a0000000000000000000000000000000000000000000000000000000008152600401611c8190612aa6565b60405180910390fd5b816000806101000a81548160ff021916908360ff160217905550600190505b919050565b600060019054906101000a900460ff16611cfd576040517f08c379a0000000000000000000000000000000000000000000000000000000008152600401611cf490612b86565b60405180910390fd5b611d05611f28565b565b600060019054906101000a900460ff16611d56576040517f08c379a0000000000000000000000000000000000000000000000000000000008152600401611d4d90612b86565b60405180910390fd5b611d608282611f89565b5050565b505050565b505050565b6000611d8f8473ffffffffffffffffffffffffffffffffffffffff16611f05565b15611ef8578373ffffffffffffffffffffffffffffffffffffffff1663150b7a02611db861106e565b8786866040518563ffffffff1660e01b8152600401611dda9493929190612882565b602060405180830381600087803b158015611df457600080fd5b505af1925050508015611e2557506040513d601f19601f82011682018060405250810190611e2291906123b6565b60015b611ea8573d8060008114611e55576040519150601f19603f3d011682016040523d82523d6000602084013e611e5a565b606091505b50600081511415611ea0576040517f08c379a0000000000000000000000000000000000000000000000000000000008152600401611e9790612946565b60405180910390fd5b805181602001fd5b63150b7a0260e01b7bffffffffffffffffffffffffffffffffffffffffffffffffffffffff1916817bffffffffffffffffffffffffffffffffffffffffffffffffffffffff191614915050611efd565b600190505b949350505050565b6000808273ffffffffffffffffffffffffffffffffffffffff163b119050919050565b600060019054906101000a900460ff16611f77576040517f08c379a0000000000000000000000000000000000000000000000000000000008152600401611f6e90612b86565b60405180910390fd5b611f87611f8261106e565b611591565b565b600060019054906101000a900460ff16611fd8576040517f08c379a0000000000000000000000000000000000000000000000000000000008152600401611fcf90612b86565b60405180910390fd5b8160979080519060200190611fee92919061200a565b50806098908051906020019061200592919061200a565b505050565b82805461201690612e3b565b90600052602060002090601f016020900481019282612038576000855561207f565b82601f1061205157805160ff191683800117855561207f565b8280016001018555821561207f579182015b8281111561207e578251825591602001919060010190612063565b5b50905061208c9190612090565b5090565b5b808211156120a9576000816000905550600101612091565b5090565b60006120c06120bb84612c06565b612be1565b9050828152602081018484840111156120d857600080fd5b6120e3848285612df9565b509392505050565b60006120fe6120f984612c37565b612be1565b90508281526020810184848401111561211657600080fd5b612121848285612df9565b509392505050565b60008135905061213881613556565b92915050565b60008135905061214d8161356d565b92915050565b60008135905061216281613584565b92915050565b60008151905061217781613584565b92915050565b600082601f83011261218e57600080fd5b813561219e8482602086016120ad565b91505092915050565b600082601f8301126121b857600080fd5b81356121c88482602086016120eb565b91505092915050565b6000813590506121e08161359b565b92915050565b6000602082840312156121f857600080fd5b600061220684828501612129565b91505092915050565b6000806040838503121561222257600080fd5b600061223085828601612129565b925050602061224185828601612129565b9150509250929050565b60008060006060848603121561226057600080fd5b600061226e86828701612129565b935050602061227f86828701612129565b9250506040612290868287016121d1565b9150509250925092565b600080600080608085870312156122b057600080fd5b60006122be87828801612129565b94505060206122cf87828801612129565b93505060406122e0878288016121d1565b925050606085013567ffffffffffffffff8111156122fd57600080fd5b6123098782880161217d565b91505092959194509250565b6000806040838503121561232857600080fd5b600061233685828601612129565b92505060206123478582860161213e565b9150509250929050565b6000806040838503121561236457600080fd5b600061237285828601612129565b9250506020612383858286016121d1565b9150509250929050565b60006020828403121561239f57600080fd5b60006123ad84828501612153565b91505092915050565b6000602082840312156123c857600080fd5b60006123d684828501612168565b91505092915050565b6000602082840312156123f157600080fd5b600082013567ffffffffffffffff81111561240b57600080fd5b612417848285016121a7565b91505092915050565b60006020828403121561243257600080fd5b6000612440848285016121d1565b91505092915050565b6000806040838503121561245c57600080fd5b600061246a858286016121d1565b925050602061247b85828601612129565b9150509250929050565b61248e81612d66565b82525050565b61249d81612d78565b82525050565b60006124ae82612c68565b6124b88185612c7e565b93506124c8818560208601612e08565b6124d181612fd4565b840191505092915050565b6124e581612de7565b82525050565b60006124f682612c73565b6125008185612c8f565b9350612510818560208601612e08565b61251981612fd4565b840191505092915050565b600061252f82612c73565b6125398185612ca0565b9350612549818560208601612e08565b80840191505092915050565b6000612562601d83612c8f565b915061256d82612fe5565b602082019050919050565b6000612585603283612c8f565b91506125908261300e565b604082019050919050565b60006125a8602683612c8f565b91506125b38261305d565b604082019050919050565b60006125cb602583612c8f565b91506125d6826130ac565b604082019050919050565b60006125ee601c83612c8f565b91506125f9826130fb565b602082019050919050565b6000612611602483612c8f565b915061261c82613124565b604082019050919050565b6000612634601983612c8f565b915061263f82613173565b602082019050919050565b6000612657601883612c8f565b91506126628261319c565b602082019050919050565b600061267a602c83612c8f565b9150612685826131c5565b604082019050919050565b600061269d603883612c8f565b91506126a882613214565b604082019050919050565b60006126c0602a83612c8f565b91506126cb82613263565b604082019050919050565b60006126e3602983612c8f565b91506126ee826132b2565b604082019050919050565b6000612706602e83612c8f565b915061271182613301565b604082019050919050565b6000612729602083612c8f565b915061273482613350565b602082019050919050565b600061274c602c83612c8f565b915061275782613379565b604082019050919050565b600061276f602083612c8f565b915061277a826133c8565b602082019050919050565b6000612792602f83612c8f565b915061279d826133f1565b604082019050919050565b60006127b5602183612c8f565b91506127c082613440565b604082019050919050565b60006127d8603183612c8f565b91506127e38261348f565b604082019050919050565b60006127fb602b83612c8f565b9150612806826134de565b604082019050919050565b600061281e601883612c8f565b91506128298261352d565b602082019050919050565b61283d81612dd0565b82525050565b600061284f8285612524565b915061285b8284612524565b91508190509392505050565b600060208201905061287c6000830184612485565b92915050565b60006080820190506128976000830187612485565b6128a46020830186612485565b6128b16040830185612834565b81810360608301526128c381846124a3565b905095945050505050565b60006020820190506128e36000830184612494565b92915050565b60006020820190506128fe60008301846124dc565b92915050565b6000602082019050818103600083015261291e81846124eb565b905092915050565b6000602082019050818103600083015261293f81612555565b9050919050565b6000602082019050818103600083015261295f81612578565b9050919050565b6000602082019050818103600083015261297f8161259b565b9050919050565b6000602082019050818103600083015261299f816125be565b9050919050565b600060208201905081810360008301526129bf816125e1565b9050919050565b600060208201905081810360008301526129df81612604565b9050919050565b600060208201905081810360008301526129ff81612627565b9050919050565b60006020820190508181036000830152612a1f8161264a565b9050919050565b60006020820190508181036000830152612a3f8161266d565b9050919050565b60006020820190508181036000830152612a5f81612690565b9050919050565b60006020820190508181036000830152612a7f816126b3565b9050919050565b60006020820190508181036000830152612a9f816126d6565b9050919050565b60006020820190508181036000830152612abf816126f9565b9050919050565b60006020820190508181036000830152612adf8161271c565b9050919050565b60006020820190508181036000830152612aff8161273f565b9050919050565b60006020820190508181036000830152612b1f81612762565b9050919050565b60006020820190508181036000830152612b3f81612785565b9050919050565b60006020820190508181036000830152612b5f816127a8565b9050919050565b60006020820190508181036000830152612b7f816127cb565b9050919050565b60006020820190508181036000830152612b9f816127ee565b9050919050565b60006020820190508181036000830152612bbf81612811565b9050919050565b6000602082019050612bdb6000830184612834565b92915050565b6000612beb612bfc565b9050612bf78282612e6d565b919050565b6000604051905090565b600067ffffffffffffffff821115612c2157612c20612fa5565b5b612c2a82612fd4565b9050602081019050919050565b600067ffffffffffffffff821115612c5257612c51612fa5565b5b612c5b82612fd4565b9050602081019050919050565b600081519050919050565b600081519050919050565b600082825260208201905092915050565b600082825260208201905092915050565b600081905092915050565b6000612cb682612dd0565b9150612cc183612dd0565b9250827fffffffffffffffffffffffffffffffffffffffffffffffffffffffffffffffff03821115612cf657612cf5612f18565b5b828201905092915050565b6000612d0c82612dd0565b9150612d1783612dd0565b925082612d2757612d26612f47565b5b828204905092915050565b6000612d3d82612dd0565b9150612d4883612dd0565b925082821015612d5b57612d5a612f18565b5b828203905092915050565b6000612d7182612db0565b9050919050565b60008115159050919050565b60007fffffffff0000000000000000000000000000000000000000000000000000000082169050919050565b600073ffffffffffffffffffffffffffffffffffffffff82169050919050565b6000819050919050565b600060ff82169050919050565b6000612df282612dda565b9050919050565b82818337600083830152505050565b60005b83811015612e26578082015181840152602081019050612e0b565b83811115612e35576000848401525b50505050565b60006002820490506001821680612e5357607f821691505b60208210811415612e6757612e66612f76565b5b50919050565b612e7682612fd4565b810181811067ffffffffffffffff82111715612e9557612e94612fa5565b5b80604052505050565b6000612ea982612dd0565b91507fffffffffffffffffffffffffffffffffffffffffffffffffffffffffffffffff821415612edc57612edb612f18565b5b600182019050919050565b6000612ef282612dd0565b9150612efd83612dd0565b925082612f0d57612f0c612f47565b5b828206905092915050565b7f4e487b7100000000000000000000000000000000000000000000000000000000600052601160045260246000fd5b7f4e487b7100000000000000000000000000000000000000000000000000000000600052601260045260246000fd5b7f4e487b7100000000000000000000000000000000000000000000000000000000600052602260045260246000fd5b7f4e487b7100000000000000000000000000000000000000000000000000000000600052604160045260246000fd5b6000601f19601f8301169050919050565b7f4f6e6c79206f776e65722063616e2073657420636f6e74726f6c6c6572000000600082015250565b7f4552433732313a207472616e7366657220746f206e6f6e20455243373231526560008201527f63656976657220696d706c656d656e7465720000000000000000000000000000602082015250565b7f4f776e61626c653a206e6577206f776e657220697320746865207a65726f206160008201527f6464726573730000000000000000000000000000000000000000000000000000602082015250565b7f4552433732313a207472616e736665722066726f6d20696e636f72726563742060008201527f6f776e6572000000000000000000000000000000000000000000000000000000602082015250565b7f4552433732313a20746f6b656e20616c7265616479206d696e74656400000000600082015250565b7f4552433732313a207472616e7366657220746f20746865207a65726f2061646460008201527f7265737300000000000000000000000000000000000000000000000000000000602082015250565b7f4552433732313a20617070726f766520746f2063616c6c657200000000000000600082015250565b7f436f6e74726f6c6c65722063616e206f6e6c79206d696e740000000000000000600082015250565b7f4552433732313a206f70657261746f7220717565727920666f72206e6f6e657860008201527f697374656e7420746f6b656e0000000000000000000000000000000000000000602082015250565b7f4552433732313a20617070726f76652063616c6c6572206973206e6f74206f7760008201527f6e6572206e6f7220617070726f76656420666f7220616c6c0000000000000000602082015250565b7f4552433732313a2062616c616e636520717565727920666f7220746865207a6560008201527f726f206164647265737300000000000000000000000000000000000000000000602082015250565b7f4552433732313a206f776e657220717565727920666f72206e6f6e657869737460008201527f656e7420746f6b656e0000000000000000000000000000000000000000000000602082015250565b7f496e697469616c697a61626c653a20636f6e747261637420697320616c72656160008201527f647920696e697469616c697a6564000000000000000000000000000000000000602082015250565b7f4552433732313a206d696e7420746f20746865207a65726f2061646472657373600082015250565b7f4552433732313a20617070726f76656420717565727920666f72206e6f6e657860008201527f697374656e7420746f6b656e0000000000000000000000000000000000000000602082015250565b7f4f776e61626c653a2063616c6c6572206973206e6f7420746865206f776e6572600082015250565b7f4552433732314d657461646174613a2055524920717565727920666f72206e6f60008201527f6e6578697374656e7420746f6b656e0000000000000000000000000000000000602082015250565b7f4552433732313a20617070726f76616c20746f2063757272656e74206f776e6560008201527f7200000000000000000000000000000000000000000000000000000000000000602082015250565b7f4552433732313a207472616e736665722063616c6c6572206973206e6f74206f60008201527f776e6572206e6f7220617070726f766564000000000000000000000000000000602082015250565b7f496e697469616c697a61626c653a20636f6e7472616374206973206e6f74206960008201527f6e697469616c697a696e67000000000000000000000000000000000000000000602082015250565b7f436f6e74726f6c6c65722063616e206f6e6c79206275726e0000000000000000600082015250565b61355f81612d66565b811461356a57600080fd5b50565b61357681612d78565b811461358157600080fd5b50565b61358d81612d84565b811461359857600080fd5b50565b6135a481612dd0565b81146135af57600080fd5b5056fea2646970667358221220e49f45ab1bcd29953cbb85f21876547d8080f9def5d3c084cd200926f879e77564736f6c63430008040033",
  "immutableReferences": {},
  "source": "// SPDX-License-Identifier: Unlicenced\npragma solidity ^0.8.4;\n\nimport \"@openzeppelin/contracts-upgradeable/proxy/utils/Initializable.sol\";\nimport \"@openzeppelin/contracts-upgradeable/access/OwnableUpgradeable.sol\";\nimport \"@openzeppelin/contracts/access/Ownable.sol\";\nimport \"@openzeppelin/contracts/token/ERC721/ERC721.sol\";\nimport \"@openzeppelin/contracts-upgradeable/token/ERC721/ERC721Upgradeable.sol\";\n\ncontract TicketNFT is  Initializable ,OwnableUpgradeable, ERC721Upgradeable{\n    address public controller;\n    bool initialized;\n\n    function initialize(string memory _name) public initializer {\n        __Ownable_init();\n        __ERC721_init(_name, _name);\n    }\n\n    function setController(address _controller) public {\n        require((msg.sender == owner()), \"Only owner can set controller\");\n        controller = _controller;\n    }\n\n    function mintTicketNFT(uint256 _tokenID, address _ticketOwner) public {\n        require(msg.sender == controller, \"Controller can only mint\");\n        _mint(_ticketOwner, _tokenID);\n    }\n\n    function burnTicketNFT(uint256 _tokenID) public {\n        require(msg.sender == controller, \"Controller can only burn\");\n        _burn(_tokenID);\n    }\n}\n",
  "sourcePath": "/Users/raghukapur/private-projects/EventManagementSystem/contracts/TicketNFT.sol",
  "compiler": {
    "name": "solc",
    "version": "0.8.4+commit.c7e474f2.Emscripten.clang"
  },
  "schemaVersion": "3.4.4",
  "updatedAt": "2022-07-13T12:52:56.049Z",
  "devdoc": {
    "kind": "dev",
    "methods": {
      "approve(address,uint256)": {
        "details": "See {IERC721-approve}."
      },
      "balanceOf(address)": {
        "details": "See {IERC721-balanceOf}."
      },
      "getApproved(uint256)": {
        "details": "See {IERC721-getApproved}."
      },
      "isApprovedForAll(address,address)": {
        "details": "See {IERC721-isApprovedForAll}."
      },
      "name()": {
        "details": "See {IERC721Metadata-name}."
      },
      "owner()": {
        "details": "Returns the address of the current owner."
      },
      "ownerOf(uint256)": {
        "details": "See {IERC721-ownerOf}."
      },
      "renounceOwnership()": {
        "details": "Leaves the contract without owner. It will not be possible to call `onlyOwner` functions anymore. Can only be called by the current owner. NOTE: Renouncing ownership will leave the contract without an owner, thereby removing any functionality that is only available to the owner."
      },
      "safeTransferFrom(address,address,uint256)": {
        "details": "See {IERC721-safeTransferFrom}."
      },
      "safeTransferFrom(address,address,uint256,bytes)": {
        "details": "See {IERC721-safeTransferFrom}."
      },
      "setApprovalForAll(address,bool)": {
        "details": "See {IERC721-setApprovalForAll}."
      },
      "supportsInterface(bytes4)": {
        "details": "See {IERC165-supportsInterface}."
      },
      "symbol()": {
        "details": "See {IERC721Metadata-symbol}."
      },
      "tokenURI(uint256)": {
        "details": "See {IERC721Metadata-tokenURI}."
      },
      "transferFrom(address,address,uint256)": {
        "details": "See {IERC721-transferFrom}."
      },
      "transferOwnership(address)": {
        "details": "Transfers ownership of the contract to a new account (`newOwner`). Can only be called by the current owner."
      }
    },
    "version": 1
  },
  "userdoc": {
    "kind": "user",
    "methods": {},
    "version": 1
  }
}