{
  "contractName": "TicketNFT",
  "abi": [
    {
      "inputs": [],
      "stateMutability": "nonpayable",
      "type": "constructor"
    },
    {
      "anonymous": false,
      "inputs": [
        {
          "indexed": true,
          "internalType": "address",
          "name": "owner",
          "type": "address"
        },
        {
          "indexed": true,
          "internalType": "address",
          "name": "approved",
          "type": "address"
        },
        {
          "indexed": true,
          "internalType": "uint256",
          "name": "tokenId",
          "type": "uint256"
        }
      ],
      "name": "Approval",
      "type": "event"
    },
    {
      "anonymous": false,
      "inputs": [
        {
          "indexed": true,
          "internalType": "address",
          "name": "owner",
          "type": "address"
        },
        {
          "indexed": true,
          "internalType": "address",
          "name": "operator",
          "type": "address"
        },
        {
          "indexed": false,
          "internalType": "bool",
          "name": "approved",
          "type": "bool"
        }
      ],
      "name": "ApprovalForAll",
      "type": "event"
    },
    {
      "anonymous": false,
      "inputs": [
        {
          "indexed": false,
          "internalType": "uint8",
          "name": "version",
          "type": "uint8"
        }
      ],
      "name": "Initialized",
      "type": "event"
    },
    {
      "anonymous": false,
      "inputs": [
        {
          "indexed": true,
          "internalType": "address",
          "name": "from",
          "type": "address"
        },
        {
          "indexed": true,
          "internalType": "address",
          "name": "to",
          "type": "address"
        },
        {
          "indexed": true,
          "internalType": "uint256",
          "name": "tokenId",
          "type": "uint256"
        }
      ],
      "name": "Transfer",
      "type": "event"
    },
    {
      "inputs": [
        {
          "internalType": "address",
          "name": "to",
          "type": "address"
        },
        {
          "internalType": "uint256",
          "name": "tokenId",
          "type": "uint256"
        }
      ],
      "name": "approve",
      "outputs": [],
      "stateMutability": "nonpayable",
      "type": "function"
    },
    {
      "inputs": [
        {
          "internalType": "address",
          "name": "owner",
          "type": "address"
        }
      ],
      "name": "balanceOf",
      "outputs": [
        {
          "internalType": "uint256",
          "name": "",
          "type": "uint256"
        }
      ],
      "stateMutability": "view",
      "type": "function"
    },
    {
      "inputs": [],
      "name": "controller",
      "outputs": [
        {
          "internalType": "address",
          "name": "",
          "type": "address"
        }
      ],
      "stateMutability": "view",
      "type": "function"
    },
    {
      "inputs": [
        {
          "internalType": "uint256",
          "name": "tokenId",
          "type": "uint256"
        }
      ],
      "name": "getApproved",
      "outputs": [
        {
          "internalType": "address",
          "name": "",
          "type": "address"
        }
      ],
      "stateMutability": "view",
      "type": "function"
    },
    {
      "inputs": [
        {
          "internalType": "address",
          "name": "owner",
          "type": "address"
        },
        {
          "internalType": "address",
          "name": "operator",
          "type": "address"
        }
      ],
      "name": "isApprovedForAll",
      "outputs": [
        {
          "internalType": "bool",
          "name": "",
          "type": "bool"
        }
      ],
      "stateMutability": "view",
      "type": "function"
    },
    {
      "inputs": [],
      "name": "name",
      "outputs": [
        {
          "internalType": "string",
          "name": "",
          "type": "string"
        }
      ],
      "stateMutability": "view",
      "type": "function"
    },
    {
      "inputs": [],
      "name": "owner",
      "outputs": [
        {
          "internalType": "address",
          "name": "",
          "type": "address"
        }
      ],
      "stateMutability": "view",
      "type": "function"
    },
    {
      "inputs": [
        {
          "internalType": "uint256",
          "name": "tokenId",
          "type": "uint256"
        }
      ],
      "name": "ownerOf",
      "outputs": [
        {
          "internalType": "address",
          "name": "",
          "type": "address"
        }
      ],
      "stateMutability": "view",
      "type": "function"
    },
    {
      "inputs": [
        {
          "internalType": "address",
          "name": "from",
          "type": "address"
        },
        {
          "internalType": "address",
          "name": "to",
          "type": "address"
        },
        {
          "internalType": "uint256",
          "name": "tokenId",
          "type": "uint256"
        }
      ],
      "name": "safeTransferFrom",
      "outputs": [],
      "stateMutability": "nonpayable",
      "type": "function"
    },
    {
      "inputs": [
        {
          "internalType": "address",
          "name": "from",
          "type": "address"
        },
        {
          "internalType": "address",
          "name": "to",
          "type": "address"
        },
        {
          "internalType": "uint256",
          "name": "tokenId",
          "type": "uint256"
        },
        {
          "internalType": "bytes",
          "name": "_data",
          "type": "bytes"
        }
      ],
      "name": "safeTransferFrom",
      "outputs": [],
      "stateMutability": "nonpayable",
      "type": "function"
    },
    {
      "inputs": [
        {
          "internalType": "address",
          "name": "operator",
          "type": "address"
        },
        {
          "internalType": "bool",
          "name": "approved",
          "type": "bool"
        }
      ],
      "name": "setApprovalForAll",
      "outputs": [],
      "stateMutability": "nonpayable",
      "type": "function"
    },
    {
      "inputs": [
        {
          "internalType": "bytes4",
          "name": "interfaceId",
          "type": "bytes4"
        }
      ],
      "name": "supportsInterface",
      "outputs": [
        {
          "internalType": "bool",
          "name": "",
          "type": "bool"
        }
      ],
      "stateMutability": "view",
      "type": "function"
    },
    {
      "inputs": [],
      "name": "symbol",
      "outputs": [
        {
          "internalType": "string",
          "name": "",
          "type": "string"
        }
      ],
      "stateMutability": "view",
      "type": "function"
    },
    {
      "inputs": [
        {
          "internalType": "uint256",
          "name": "tokenId",
          "type": "uint256"
        }
      ],
      "name": "tokenURI",
      "outputs": [
        {
          "internalType": "string",
          "name": "",
          "type": "string"
        }
      ],
      "stateMutability": "view",
      "type": "function"
    },
    {
      "inputs": [
        {
          "internalType": "address",
          "name": "from",
          "type": "address"
        },
        {
          "internalType": "address",
          "name": "to",
          "type": "address"
        },
        {
          "internalType": "uint256",
          "name": "tokenId",
          "type": "uint256"
        }
      ],
      "name": "transferFrom",
      "outputs": [],
      "stateMutability": "nonpayable",
      "type": "function"
    },
    {
      "inputs": [
        {
          "internalType": "address",
          "name": "_controller",
          "type": "address"
        }
      ],
      "name": "setController",
      "outputs": [],
      "stateMutability": "nonpayable",
      "type": "function"
    },
    {
      "inputs": [
        {
          "internalType": "uint256",
          "name": "_tokenID",
          "type": "uint256"
        },
        {
          "internalType": "address",
          "name": "_lender",
          "type": "address"
        }
      ],
      "name": "mintTicketNFT",
      "outputs": [],
      "stateMutability": "nonpayable",
      "type": "function"
    },
    {
      "inputs": [
        {
          "internalType": "uint256",
          "name": "_tokenID",
          "type": "uint256"
        }
      ],
      "name": "burnTicketNFT",
      "outputs": [],
      "stateMutability": "nonpayable",
      "type": "function"
    }
  ],
  "bytecode": "0x608060405234801561001057600080fd5b5033609860006101000a81548173ffffffffffffffffffffffffffffffffffffffff021916908373ffffffffffffffffffffffffffffffffffffffff160217905550612c47806100616000396000f3fe608060405234801561001057600080fd5b50600436106101165760003560e01c80638da5cb5b116100a2578063b4da675a11610071578063b4da675a146102dd578063b88d4fde146102f9578063c87b56dd14610315578063e985e9c514610345578063f77c47911461037557610116565b80638da5cb5b1461026957806392eefe9b1461028757806395d89b41146102a3578063a22cb465146102c157610116565b806323b872dd116100e957806323b872dd146101b557806342842e0e146101d15780636352211e146101ed57806370a082311461021d578063714951a31461024d57610116565b806301ffc9a71461011b57806306fdde031461014b578063081812fc14610169578063095ea7b314610199575b600080fd5b61013560048036038101906101309190611cc9565b610393565b604051610142919061212e565b60405180910390f35b610153610475565b6040516101609190612149565b60405180910390f35b610183600480360381019061017e9190611d1b565b610507565b60405161019091906120c7565b60405180910390f35b6101b360048036038101906101ae9190611c8d565b61058c565b005b6101cf60048036038101906101ca9190611b87565b6106a4565b005b6101eb60048036038101906101e69190611b87565b610704565b005b61020760048036038101906102029190611d1b565b610724565b60405161021491906120c7565b60405180910390f35b61023760048036038101906102329190611b22565b6107d6565b604051610244919061238b565b60405180910390f35b61026760048036038101906102629190611d1b565b61088e565b005b61027161092a565b60405161027e91906120c7565b60405180910390f35b6102a1600480360381019061029c9190611b22565b610950565b005b6102ab610a24565b6040516102b89190612149565b60405180910390f35b6102db60048036038101906102d69190611c51565b610ab6565b005b6102f760048036038101906102f29190611d44565b610acc565b005b610313600480360381019061030e9190611bd6565b610b6a565b005b61032f600480360381019061032a9190611d1b565b610bcc565b60405161033c9190612149565b60405180910390f35b61035f600480360381019061035a9190611b4b565b610c73565b60405161036c919061212e565b60405180910390f35b61037d610d07565b60405161038a91906120c7565b60405180910390f35b60007f80ac58cd000000000000000000000000000000000000000000000000000000007bffffffffffffffffffffffffffffffffffffffffffffffffffffffff1916827bffffffffffffffffffffffffffffffffffffffffffffffffffffffff1916148061045e57507f5b5e139f000000000000000000000000000000000000000000000000000000007bffffffffffffffffffffffffffffffffffffffffffffffffffffffff1916827bffffffffffffffffffffffffffffffffffffffffffffffffffffffff1916145b8061046e575061046d82610d2d565b5b9050919050565b606060658054610484906125b0565b80601f01602080910402602001604051908101604052809291908181526020018280546104b0906125b0565b80156104fd5780601f106104d2576101008083540402835291602001916104fd565b820191906000526020600020905b8154815290600101906020018083116104e057829003601f168201915b5050505050905090565b600061051282610d97565b610551576040517f08c379a0000000000000000000000000000000000000000000000000000000008152600401610548906122eb565b60405180910390fd5b6069600083815260200190815260200160002060009054906101000a900473ffffffffffffffffffffffffffffffffffffffff169050919050565b600061059782610724565b90508073ffffffffffffffffffffffffffffffffffffffff168373ffffffffffffffffffffffffffffffffffffffff161415610608576040517f08c379a00000000000000000000000000000000000000000000000000000000081526004016105ff9061232b565b60405180910390fd5b8073ffffffffffffffffffffffffffffffffffffffff16610627610e03565b73ffffffffffffffffffffffffffffffffffffffff161480610656575061065581610650610e03565b610c73565b5b610695576040517f08c379a000000000000000000000000000000000000000000000000000000000815260040161068c9061226b565b60405180910390fd5b61069f8383610e0b565b505050565b6106b56106af610e03565b82610ec4565b6106f4576040517f08c379a00000000000000000000000000000000000000000000000000000000081526004016106eb9061234b565b60405180910390fd5b6106ff838383610fa2565b505050565b61071f83838360405180602001604052806000815250610b6a565b505050565b6000806067600084815260200190815260200160002060009054906101000a900473ffffffffffffffffffffffffffffffffffffffff169050600073ffffffffffffffffffffffffffffffffffffffff168173ffffffffffffffffffffffffffffffffffffffff1614156107cd576040517f08c379a00000000000000000000000000000000000000000000000000000000081526004016107c4906122ab565b60405180910390fd5b80915050919050565b60008073ffffffffffffffffffffffffffffffffffffffff168273ffffffffffffffffffffffffffffffffffffffff161415610847576040517f08c379a000000000000000000000000000000000000000000000000000000000815260040161083e9061228b565b60405180910390fd5b606860008373ffffffffffffffffffffffffffffffffffffffff1673ffffffffffffffffffffffffffffffffffffffff168152602001908152602001600020549050919050565b609760009054906101000a900473ffffffffffffffffffffffffffffffffffffffff1673ffffffffffffffffffffffffffffffffffffffff163373ffffffffffffffffffffffffffffffffffffffff161461091e576040517f08c379a00000000000000000000000000000000000000000000000000000000081526004016109159061236b565b60405180910390fd5b61092781611209565b50565b609860009054906101000a900473ffffffffffffffffffffffffffffffffffffffff1681565b609860009054906101000a900473ffffffffffffffffffffffffffffffffffffffff1673ffffffffffffffffffffffffffffffffffffffff163373ffffffffffffffffffffffffffffffffffffffff16146109e0576040517f08c379a00000000000000000000000000000000000000000000000000000000081526004016109d79061216b565b60405180910390fd5b80609760006101000a81548173ffffffffffffffffffffffffffffffffffffffff021916908373ffffffffffffffffffffffffffffffffffffffff16021790555050565b606060668054610a33906125b0565b80601f0160208091040260200160405190810160405280929190818152602001828054610a5f906125b0565b8015610aac5780601f10610a8157610100808354040283529160200191610aac565b820191906000526020600020905b815481529060010190602001808311610a8f57829003601f168201915b5050505050905090565b610ac8610ac1610e03565b8383611326565b5050565b609760009054906101000a900473ffffffffffffffffffffffffffffffffffffffff1673ffffffffffffffffffffffffffffffffffffffff163373ffffffffffffffffffffffffffffffffffffffff1614610b5c576040517f08c379a0000000000000000000000000000000000000000000000000000000008152600401610b539061222b565b60405180910390fd5b610b668183611493565b5050565b610b7b610b75610e03565b83610ec4565b610bba576040517f08c379a0000000000000000000000000000000000000000000000000000000008152600401610bb19061234b565b60405180910390fd5b610bc68484848461166d565b50505050565b6060610bd782610d97565b610c16576040517f08c379a0000000000000000000000000000000000000000000000000000000008152600401610c0d9061230b565b60405180910390fd5b6000610c206116c9565b90506000815111610c405760405180602001604052806000815250610c6b565b80610c4a846116e0565b604051602001610c5b9291906120a3565b6040516020818303038152906040525b915050919050565b6000606a60008473ffffffffffffffffffffffffffffffffffffffff1673ffffffffffffffffffffffffffffffffffffffff16815260200190815260200160002060008373ffffffffffffffffffffffffffffffffffffffff1673ffffffffffffffffffffffffffffffffffffffff16815260200190815260200160002060009054906101000a900460ff16905092915050565b609760009054906101000a900473ffffffffffffffffffffffffffffffffffffffff1681565b60007f01ffc9a7000000000000000000000000000000000000000000000000000000007bffffffffffffffffffffffffffffffffffffffffffffffffffffffff1916827bffffffffffffffffffffffffffffffffffffffffffffffffffffffff1916149050919050565b60008073ffffffffffffffffffffffffffffffffffffffff166067600084815260200190815260200160002060009054906101000a900473ffffffffffffffffffffffffffffffffffffffff1673ffffffffffffffffffffffffffffffffffffffff1614159050919050565b600033905090565b816069600083815260200190815260200160002060006101000a81548173ffffffffffffffffffffffffffffffffffffffff021916908373ffffffffffffffffffffffffffffffffffffffff160217905550808273ffffffffffffffffffffffffffffffffffffffff16610e7e83610724565b73ffffffffffffffffffffffffffffffffffffffff167f8c5be1e5ebec7d5bd14f71427d1e84f3dd0314c0f7b2291e5b200ac8c7c3b92560405160405180910390a45050565b6000610ecf82610d97565b610f0e576040517f08c379a0000000000000000000000000000000000000000000000000000000008152600401610f059061224b565b60405180910390fd5b6000610f1983610724565b90508073ffffffffffffffffffffffffffffffffffffffff168473ffffffffffffffffffffffffffffffffffffffff161480610f5b5750610f5a8185610c73565b5b80610f9957508373ffffffffffffffffffffffffffffffffffffffff16610f8184610507565b73ffffffffffffffffffffffffffffffffffffffff16145b91505092915050565b8273ffffffffffffffffffffffffffffffffffffffff16610fc282610724565b73ffffffffffffffffffffffffffffffffffffffff1614611018576040517f08c379a000000000000000000000000000000000000000000000000000000000815260040161100f906121ab565b60405180910390fd5b600073ffffffffffffffffffffffffffffffffffffffff168273ffffffffffffffffffffffffffffffffffffffff161415611088576040517f08c379a000000000000000000000000000000000000000000000000000000000815260040161107f906121eb565b60405180910390fd5b61109383838361188d565b61109e600082610e0b565b6001606860008573ffffffffffffffffffffffffffffffffffffffff1673ffffffffffffffffffffffffffffffffffffffff16815260200190815260200160002060008282546110ee91906124c6565b925050819055506001606860008473ffffffffffffffffffffffffffffffffffffffff1673ffffffffffffffffffffffffffffffffffffffff1681526020019081526020016000206000828254611145919061243f565b92505081905550816067600083815260200190815260200160002060006101000a81548173ffffffffffffffffffffffffffffffffffffffff021916908373ffffffffffffffffffffffffffffffffffffffff160217905550808273ffffffffffffffffffffffffffffffffffffffff168473ffffffffffffffffffffffffffffffffffffffff167fddf252ad1be2c89b69c2b068fc378daa952ba7f163c4a11628f55a4df523b3ef60405160405180910390a4611204838383611892565b505050565b600061121482610724565b90506112228160008461188d565b61122d600083610e0b565b6001606860008373ffffffffffffffffffffffffffffffffffffffff1673ffffffffffffffffffffffffffffffffffffffff168152602001908152602001600020600082825461127d91906124c6565b925050819055506067600083815260200190815260200160002060006101000a81549073ffffffffffffffffffffffffffffffffffffffff021916905581600073ffffffffffffffffffffffffffffffffffffffff168273ffffffffffffffffffffffffffffffffffffffff167fddf252ad1be2c89b69c2b068fc378daa952ba7f163c4a11628f55a4df523b3ef60405160405180910390a461132281600084611892565b5050565b8173ffffffffffffffffffffffffffffffffffffffff168373ffffffffffffffffffffffffffffffffffffffff161415611395576040517f08c379a000000000000000000000000000000000000000000000000000000000815260040161138c9061220b565b60405180910390fd5b80606a60008573ffffffffffffffffffffffffffffffffffffffff1673ffffffffffffffffffffffffffffffffffffffff16815260200190815260200160002060008473ffffffffffffffffffffffffffffffffffffffff1673ffffffffffffffffffffffffffffffffffffffff16815260200190815260200160002060006101000a81548160ff0219169083151502179055508173ffffffffffffffffffffffffffffffffffffffff168373ffffffffffffffffffffffffffffffffffffffff167f17307eab39ab6107e8899845ad3d59bd9653f200f220920489ca2b5937696c3183604051611486919061212e565b60405180910390a3505050565b600073ffffffffffffffffffffffffffffffffffffffff168273ffffffffffffffffffffffffffffffffffffffff161415611503576040517f08c379a00000000000000000000000000000000000000000000000000000000081526004016114fa906122cb565b60405180910390fd5b61150c81610d97565b1561154c576040517f08c379a0000000000000000000000000000000000000000000000000000000008152600401611543906121cb565b60405180910390fd5b6115586000838361188d565b6001606860008473ffffffffffffffffffffffffffffffffffffffff1673ffffffffffffffffffffffffffffffffffffffff16815260200190815260200160002060008282546115a8919061243f565b92505081905550816067600083815260200190815260200160002060006101000a81548173ffffffffffffffffffffffffffffffffffffffff021916908373ffffffffffffffffffffffffffffffffffffffff160217905550808273ffffffffffffffffffffffffffffffffffffffff16600073ffffffffffffffffffffffffffffffffffffffff167fddf252ad1be2c89b69c2b068fc378daa952ba7f163c4a11628f55a4df523b3ef60405160405180910390a461166960008383611892565b5050565b611678848484610fa2565b61168484848484611897565b6116c3576040517f08c379a00000000000000000000000000000000000000000000000000000000081526004016116ba9061218b565b60405180910390fd5b50505050565b606060405180602001604052806000815250905090565b60606000821415611728576040518060400160405280600181526020017f30000000000000000000000000000000000000000000000000000000000000008152509050611888565b600082905060005b6000821461175a57808061174390612613565b915050600a826117539190612495565b9150611730565b60008167ffffffffffffffff81111561179c577f4e487b7100000000000000000000000000000000000000000000000000000000600052604160045260246000fd5b6040519080825280601f01601f1916602001820160405280156117ce5781602001600182028036833780820191505090505b5090505b60008514611881576001826117e791906124c6565b9150600a856117f6919061265c565b6030611802919061243f565b60f81b81838151811061183e577f4e487b7100000000000000000000000000000000000000000000000000000000600052603260045260246000fd5b60200101907effffffffffffffffffffffffffffffffffffffffffffffffffffffffffffff1916908160001a905350600a8561187a9190612495565b94506117d2565b8093505050505b919050565b505050565b505050565b60006118b88473ffffffffffffffffffffffffffffffffffffffff16611a2e565b15611a21578373ffffffffffffffffffffffffffffffffffffffff1663150b7a026118e1610e03565b8786866040518563ffffffff1660e01b815260040161190394939291906120e2565b602060405180830381600087803b15801561191d57600080fd5b505af192505050801561194e57506040513d601f19601f8201168201806040525081019061194b9190611cf2565b60015b6119d1573d806000811461197e576040519150601f19603f3d011682016040523d82523d6000602084013e611983565b606091505b506000815114156119c9576040517f08c379a00000000000000000000000000000000000000000000000000000000081526004016119c09061218b565b60405180910390fd5b805181602001fd5b63150b7a0260e01b7bffffffffffffffffffffffffffffffffffffffffffffffffffffffff1916817bffffffffffffffffffffffffffffffffffffffffffffffffffffffff191614915050611a26565b600190505b949350505050565b6000808273ffffffffffffffffffffffffffffffffffffffff163b119050919050565b6000611a64611a5f846123cb565b6123a6565b905082815260208101848484011115611a7c57600080fd5b611a8784828561256e565b509392505050565b600081359050611a9e81612bb5565b92915050565b600081359050611ab381612bcc565b92915050565b600081359050611ac881612be3565b92915050565b600081519050611add81612be3565b92915050565b600082601f830112611af457600080fd5b8135611b04848260208601611a51565b91505092915050565b600081359050611b1c81612bfa565b92915050565b600060208284031215611b3457600080fd5b6000611b4284828501611a8f565b91505092915050565b60008060408385031215611b5e57600080fd5b6000611b6c85828601611a8f565b9250506020611b7d85828601611a8f565b9150509250929050565b600080600060608486031215611b9c57600080fd5b6000611baa86828701611a8f565b9350506020611bbb86828701611a8f565b9250506040611bcc86828701611b0d565b9150509250925092565b60008060008060808587031215611bec57600080fd5b6000611bfa87828801611a8f565b9450506020611c0b87828801611a8f565b9350506040611c1c87828801611b0d565b925050606085013567ffffffffffffffff811115611c3957600080fd5b611c4587828801611ae3565b91505092959194509250565b60008060408385031215611c6457600080fd5b6000611c7285828601611a8f565b9250506020611c8385828601611aa4565b9150509250929050565b60008060408385031215611ca057600080fd5b6000611cae85828601611a8f565b9250506020611cbf85828601611b0d565b9150509250929050565b600060208284031215611cdb57600080fd5b6000611ce984828501611ab9565b91505092915050565b600060208284031215611d0457600080fd5b6000611d1284828501611ace565b91505092915050565b600060208284031215611d2d57600080fd5b6000611d3b84828501611b0d565b91505092915050565b60008060408385031215611d5757600080fd5b6000611d6585828601611b0d565b9250506020611d7685828601611a8f565b9150509250929050565b611d89816124fa565b82525050565b611d988161250c565b82525050565b6000611da9826123fc565b611db38185612412565b9350611dc381856020860161257d565b611dcc81612749565b840191505092915050565b6000611de282612407565b611dec8185612423565b9350611dfc81856020860161257d565b611e0581612749565b840191505092915050565b6000611e1b82612407565b611e258185612434565b9350611e3581856020860161257d565b80840191505092915050565b6000611e4e601d83612423565b9150611e598261275a565b602082019050919050565b6000611e71603283612423565b9150611e7c82612783565b604082019050919050565b6000611e94602583612423565b9150611e9f826127d2565b604082019050919050565b6000611eb7601c83612423565b9150611ec282612821565b602082019050919050565b6000611eda602483612423565b9150611ee58261284a565b604082019050919050565b6000611efd601983612423565b9150611f0882612899565b602082019050919050565b6000611f20601883612423565b9150611f2b826128c2565b602082019050919050565b6000611f43602c83612423565b9150611f4e826128eb565b604082019050919050565b6000611f66603883612423565b9150611f718261293a565b604082019050919050565b6000611f89602a83612423565b9150611f9482612989565b604082019050919050565b6000611fac602983612423565b9150611fb7826129d8565b604082019050919050565b6000611fcf602083612423565b9150611fda82612a27565b602082019050919050565b6000611ff2602c83612423565b9150611ffd82612a50565b604082019050919050565b6000612015602f83612423565b915061202082612a9f565b604082019050919050565b6000612038602183612423565b915061204382612aee565b604082019050919050565b600061205b603183612423565b915061206682612b3d565b604082019050919050565b600061207e601883612423565b915061208982612b8c565b602082019050919050565b61209d81612564565b82525050565b60006120af8285611e10565b91506120bb8284611e10565b91508190509392505050565b60006020820190506120dc6000830184611d80565b92915050565b60006080820190506120f76000830187611d80565b6121046020830186611d80565b6121116040830185612094565b81810360608301526121238184611d9e565b905095945050505050565b60006020820190506121436000830184611d8f565b92915050565b600060208201905081810360008301526121638184611dd7565b905092915050565b6000602082019050818103600083015261218481611e41565b9050919050565b600060208201905081810360008301526121a481611e64565b9050919050565b600060208201905081810360008301526121c481611e87565b9050919050565b600060208201905081810360008301526121e481611eaa565b9050919050565b6000602082019050818103600083015261220481611ecd565b9050919050565b6000602082019050818103600083015261222481611ef0565b9050919050565b6000602082019050818103600083015261224481611f13565b9050919050565b6000602082019050818103600083015261226481611f36565b9050919050565b6000602082019050818103600083015261228481611f59565b9050919050565b600060208201905081810360008301526122a481611f7c565b9050919050565b600060208201905081810360008301526122c481611f9f565b9050919050565b600060208201905081810360008301526122e481611fc2565b9050919050565b6000602082019050818103600083015261230481611fe5565b9050919050565b6000602082019050818103600083015261232481612008565b9050919050565b600060208201905081810360008301526123448161202b565b9050919050565b600060208201905081810360008301526123648161204e565b9050919050565b6000602082019050818103600083015261238481612071565b9050919050565b60006020820190506123a06000830184612094565b92915050565b60006123b06123c1565b90506123bc82826125e2565b919050565b6000604051905090565b600067ffffffffffffffff8211156123e6576123e561271a565b5b6123ef82612749565b9050602081019050919050565b600081519050919050565b600081519050919050565b600082825260208201905092915050565b600082825260208201905092915050565b600081905092915050565b600061244a82612564565b915061245583612564565b9250827fffffffffffffffffffffffffffffffffffffffffffffffffffffffffffffffff0382111561248a5761248961268d565b5b828201905092915050565b60006124a082612564565b91506124ab83612564565b9250826124bb576124ba6126bc565b5b828204905092915050565b60006124d182612564565b91506124dc83612564565b9250828210156124ef576124ee61268d565b5b828203905092915050565b600061250582612544565b9050919050565b60008115159050919050565b60007fffffffff0000000000000000000000000000000000000000000000000000000082169050919050565b600073ffffffffffffffffffffffffffffffffffffffff82169050919050565b6000819050919050565b82818337600083830152505050565b60005b8381101561259b578082015181840152602081019050612580565b838111156125aa576000848401525b50505050565b600060028204905060018216806125c857607f821691505b602082108114156125dc576125db6126eb565b5b50919050565b6125eb82612749565b810181811067ffffffffffffffff8211171561260a5761260961271a565b5b80604052505050565b600061261e82612564565b91507fffffffffffffffffffffffffffffffffffffffffffffffffffffffffffffffff8214156126515761265061268d565b5b600182019050919050565b600061266782612564565b915061267283612564565b925082612682576126816126bc565b5b828206905092915050565b7f4e487b7100000000000000000000000000000000000000000000000000000000600052601160045260246000fd5b7f4e487b7100000000000000000000000000000000000000000000000000000000600052601260045260246000fd5b7f4e487b7100000000000000000000000000000000000000000000000000000000600052602260045260246000fd5b7f4e487b7100000000000000000000000000000000000000000000000000000000600052604160045260246000fd5b6000601f19601f8301169050919050565b7f4f6e6c79206f776e65722063616e2073657420636f6e74726f6c6c6572000000600082015250565b7f4552433732313a207472616e7366657220746f206e6f6e20455243373231526560008201527f63656976657220696d706c656d656e7465720000000000000000000000000000602082015250565b7f4552433732313a207472616e736665722066726f6d20696e636f72726563742060008201527f6f776e6572000000000000000000000000000000000000000000000000000000602082015250565b7f4552433732313a20746f6b656e20616c7265616479206d696e74656400000000600082015250565b7f4552433732313a207472616e7366657220746f20746865207a65726f2061646460008201527f7265737300000000000000000000000000000000000000000000000000000000602082015250565b7f4552433732313a20617070726f766520746f2063616c6c657200000000000000600082015250565b7f436f6e74726f6c6c65722063616e206f6e6c79206d696e740000000000000000600082015250565b7f4552433732313a206f70657261746f7220717565727920666f72206e6f6e657860008201527f697374656e7420746f6b656e0000000000000000000000000000000000000000602082015250565b7f4552433732313a20617070726f76652063616c6c6572206973206e6f74206f7760008201527f6e6572206e6f7220617070726f76656420666f7220616c6c0000000000000000602082015250565b7f4552433732313a2062616c616e636520717565727920666f7220746865207a6560008201527f726f206164647265737300000000000000000000000000000000000000000000602082015250565b7f4552433732313a206f776e657220717565727920666f72206e6f6e657869737460008201527f656e7420746f6b656e0000000000000000000000000000000000000000000000602082015250565b7f4552433732313a206d696e7420746f20746865207a65726f2061646472657373600082015250565b7f4552433732313a20617070726f76656420717565727920666f72206e6f6e657860008201527f697374656e7420746f6b656e0000000000000000000000000000000000000000602082015250565b7f4552433732314d657461646174613a2055524920717565727920666f72206e6f60008201527f6e6578697374656e7420746f6b656e0000000000000000000000000000000000602082015250565b7f4552433732313a20617070726f76616c20746f2063757272656e74206f776e6560008201527f7200000000000000000000000000000000000000000000000000000000000000602082015250565b7f4552433732313a207472616e736665722063616c6c6572206973206e6f74206f60008201527f776e6572206e6f7220617070726f766564000000000000000000000000000000602082015250565b7f436f6e74726f6c6c65722063616e206f6e6c79206275726e0000000000000000600082015250565b612bbe816124fa565b8114612bc957600080fd5b50565b612bd58161250c565b8114612be057600080fd5b50565b612bec81612518565b8114612bf757600080fd5b50565b612c0381612564565b8114612c0e57600080fd5b5056fea2646970667358221220ba36a323a4c3c9b9ada631a91246090af518893fdead11ccf84e979f3bce894c64736f6c63430008040033",
  "immutableReferences": {},
  "source": "// SPDX-License-Identifier: Unlicenced\n\nimport \"@openzeppelin/contracts-upgradeable/token/ERC721/ERC721Upgradeable.sol\";\n\npragma solidity ^0.8.4;\n\ncontract TicketNFT is ERC721Upgradeable {\n    address public controller;\n    address public owner;\n\n    constructor(){\n        owner = msg.sender;\n    }\n\n    function setController(address _controller) public {\n        require((msg.sender == owner), \"Only owner can set controller\");\n        controller = _controller;\n    }\n\n    function mintTicketNFT(uint256 _tokenID, address _lender) public {\n        require(msg.sender == controller, \"Controller can only mint\");\n        _mint(_lender, _tokenID);\n    }\n\n    function burnTicketNFT(uint256 _tokenID) public {\n        require(msg.sender == controller, \"Controller can only burn\");\n        _burn(_tokenID);\n    }\n}\n",
  "sourcePath": "/Users/raghukapur/private-projects/EventManagementSystem/contracts/TicketNFT.sol",
  "compiler": {
    "name": "solc",
    "version": "0.8.4+commit.c7e474f2.Emscripten.clang"
  },
  "schemaVersion": "3.4.4",
  "updatedAt": "2022-06-23T08:18:03.779Z",
  "devdoc": {
    "kind": "dev",
    "methods": {
      "approve(address,uint256)": {
        "details": "See {IERC721-approve}."
      },
      "balanceOf(address)": {
        "details": "See {IERC721-balanceOf}."
      },
      "getApproved(uint256)": {
        "details": "See {IERC721-getApproved}."
      },
      "isApprovedForAll(address,address)": {
        "details": "See {IERC721-isApprovedForAll}."
      },
      "name()": {
        "details": "See {IERC721Metadata-name}."
      },
      "ownerOf(uint256)": {
        "details": "See {IERC721-ownerOf}."
      },
      "safeTransferFrom(address,address,uint256)": {
        "details": "See {IERC721-safeTransferFrom}."
      },
      "safeTransferFrom(address,address,uint256,bytes)": {
        "details": "See {IERC721-safeTransferFrom}."
      },
      "setApprovalForAll(address,bool)": {
        "details": "See {IERC721-setApprovalForAll}."
      },
      "supportsInterface(bytes4)": {
        "details": "See {IERC165-supportsInterface}."
      },
      "symbol()": {
        "details": "See {IERC721Metadata-symbol}."
      },
      "tokenURI(uint256)": {
        "details": "See {IERC721Metadata-tokenURI}."
      },
      "transferFrom(address,address,uint256)": {
        "details": "See {IERC721-transferFrom}."
      }
    },
    "version": 1
  },
  "userdoc": {
    "kind": "user",
    "methods": {},
    "version": 1
  }
}